{
	"contracts/case/Array.sol": {
		"ArrayRemoveByShifting": {
			"abi": [
				{
					"inputs": [
						{
							"internalType": "uint256",
							"name": "",
							"type": "uint256"
						}
					],
					"name": "arrs",
					"outputs": [
						{
							"internalType": "uint256",
							"name": "",
							"type": "uint256"
						}
					],
					"stateMutability": "view",
					"type": "function"
				},
				{
					"inputs": [
						{
							"internalType": "uint256",
							"name": "index",
							"type": "uint256"
						}
					],
					"name": "remove",
					"outputs": [],
					"stateMutability": "nonpayable",
					"type": "function"
				},
				{
					"inputs": [],
					"name": "test",
					"outputs": [],
					"stateMutability": "nonpayable",
					"type": "function"
				}
			],
			"devdoc": {
				"kind": "dev",
				"methods": {},
				"version": 1
			},
			"evm": {
				"assembly": "    /* \"contracts/case/Array.sol\":1233:1951  contract ArrayRemoveByShifting {... */\n  mstore(0x40, 0x80)\n  callvalue\n  dup1\n  iszero\n  tag_1\n  jumpi\n  0x00\n  dup1\n  revert\ntag_1:\n  pop\n  dataSize(sub_0)\n  dup1\n  dataOffset(sub_0)\n  0x00\n  codecopy\n  0x00\n  return\nstop\n\nsub_0: assembly {\n        /* \"contracts/case/Array.sol\":1233:1951  contract ArrayRemoveByShifting {... */\n      mstore(0x40, 0x80)\n      callvalue\n      dup1\n      iszero\n      tag_1\n      jumpi\n      0x00\n      dup1\n      revert\n    tag_1:\n      pop\n      jumpi(tag_2, lt(calldatasize, 0x04))\n      shr(0xe0, calldataload(0x00))\n      dup1\n      0x4cc82215\n      eq\n      tag_3\n      jumpi\n      dup1\n      0x61bb0230\n      eq\n      tag_4\n      jumpi\n      dup1\n      0xf8a8fd6d\n      eq\n      tag_5\n      jumpi\n    tag_2:\n      0x00\n      dup1\n      revert\n        /* \"contracts/case/Array.sol\":1301:1551  function remove(uint256 index) public {... */\n    tag_3:\n      tag_6\n      tag_7\n      calldatasize\n      0x04\n      tag_8\n      jump\t// in\n    tag_7:\n      tag_9\n      jump\t// in\n    tag_6:\n      stop\n        /* \"contracts/case/Array.sol\":1271:1292  uint256[] public arrs */\n    tag_4:\n      tag_10\n      tag_11\n      calldatasize\n      0x04\n      tag_8\n      jump\t// in\n    tag_11:\n      tag_12\n      jump\t// in\n    tag_10:\n      mload(0x40)\n        /* \"#utility.yul\":345:370   */\n      swap1\n      dup2\n      mstore\n        /* \"#utility.yul\":333:335   */\n      0x20\n        /* \"#utility.yul\":318:336   */\n      add\n        /* \"contracts/case/Array.sol\":1271:1292  uint256[] public arrs */\n      mload(0x40)\n      dup1\n      swap2\n      sub\n      swap1\n      return\n        /* \"contracts/case/Array.sol\":1559:1948  function test() external {... */\n    tag_5:\n      tag_6\n      tag_16\n      jump\t// in\n        /* \"contracts/case/Array.sol\":1301:1551  function remove(uint256 index) public {... */\n    tag_9:\n        /* \"contracts/case/Array.sol\":1406:1411  index */\n      dup1\n        /* \"contracts/case/Array.sol\":1389:1487  for (uint256 i = index; i < arrs.length - 1; i++) {... */\n    tag_18:\n        /* \"contracts/case/Array.sol\":1417:1421  arrs */\n      0x00\n        /* \"contracts/case/Array.sol\":1417:1428  arrs.length */\n      sload\n        /* \"contracts/case/Array.sol\":1417:1432  arrs.length - 1 */\n      tag_21\n      swap1\n        /* \"contracts/case/Array.sol\":1431:1432  1 */\n      0x01\n      swap1\n        /* \"contracts/case/Array.sol\":1417:1432  arrs.length - 1 */\n      tag_22\n      jump\t// in\n    tag_21:\n        /* \"contracts/case/Array.sol\":1413:1414  i */\n      dup2\n        /* \"contracts/case/Array.sol\":1413:1432  i < arrs.length - 1 */\n      lt\n        /* \"contracts/case/Array.sol\":1389:1487  for (uint256 i = index; i < arrs.length - 1; i++) {... */\n      iszero\n      tag_19\n      jumpi\n        /* \"contracts/case/Array.sol\":1464:1468  arrs */\n      0x00\n        /* \"contracts/case/Array.sol\":1469:1474  i + 1 */\n      tag_23\n        /* \"contracts/case/Array.sol\":1469:1470  i */\n      dup3\n        /* \"contracts/case/Array.sol\":1473:1474  1 */\n      0x01\n        /* \"contracts/case/Array.sol\":1469:1474  i + 1 */\n      tag_24\n      jump\t// in\n    tag_23:\n        /* \"contracts/case/Array.sol\":1464:1475  arrs[i + 1] */\n      dup2\n      sload\n      dup2\n      lt\n      tag_26\n      jumpi\n      tag_26\n      tag_27\n      jump\t// in\n    tag_26:\n      swap1\n      0x00\n      mstore\n      keccak256(0x00, 0x20)\n      add\n      sload\n        /* \"contracts/case/Array.sol\":1454:1458  arrs */\n      0x00\n        /* \"contracts/case/Array.sol\":1459:1460  i */\n      dup3\n        /* \"contracts/case/Array.sol\":1454:1461  arrs[i] */\n      dup2\n      sload\n      dup2\n      lt\n      tag_30\n      jumpi\n      tag_30\n      tag_27\n      jump\t// in\n    tag_30:\n      0x00\n      swap2\n      dup3\n      mstore\n      0x20\n      swap1\n      swap2\n      keccak256\n      add\n        /* \"contracts/case/Array.sol\":1454:1475  arrs[i] = arrs[i + 1] */\n      sstore\n        /* \"contracts/case/Array.sol\":1434:1437  i++ */\n      dup1\n      tag_32\n      dup2\n      tag_33\n      jump\t// in\n    tag_32:\n      swap2\n      pop\n      pop\n        /* \"contracts/case/Array.sol\":1389:1487  for (uint256 i = index; i < arrs.length - 1; i++) {... */\n      jump(tag_18)\n    tag_19:\n      pop\n        /* \"contracts/case/Array.sol\":1533:1537  arrs */\n      0x00\n        /* \"contracts/case/Array.sol\":1533:1543  arrs.pop() */\n      dup1\n      sload\n      dup1\n      tag_35\n      jumpi\n      tag_35\n      tag_36\n      jump\t// in\n    tag_35:\n      0x01\n      swap1\n      sub\n      dup2\n      dup2\n      swap1\n      0x00\n      mstore\n      keccak256(0x00, 0x20)\n      add\n      0x00\n      swap1\n      sstore\n      swap1\n      sstore\n        /* \"contracts/case/Array.sol\":1301:1551  function remove(uint256 index) public {... */\n      pop\n      jump\t// out\n        /* \"contracts/case/Array.sol\":1271:1292  uint256[] public arrs */\n    tag_12:\n      0x00\n      dup2\n      dup2\n      sload\n      dup2\n      lt\n      tag_38\n      jumpi\n      0x00\n      dup1\n      revert\n    tag_38:\n      0x00\n      swap2\n      dup3\n      mstore\n      0x20\n      swap1\n      swap2\n      keccak256\n      add\n      sload\n      swap1\n      pop\n      dup2\n      jump\t// out\n        /* \"contracts/case/Array.sol\":1559:1948  function test() external {... */\n    tag_16:\n        /* \"contracts/case/Array.sol\":1595:1617  arrs = [1, 2, 3, 4, 5] */\n      0x40\n      dup1\n      mload\n      0xa0\n      dup2\n      add\n      dup3\n      mstore\n        /* \"contracts/case/Array.sol\":1603:1604  1 */\n      0x01\n        /* \"contracts/case/Array.sol\":1595:1617  arrs = [1, 2, 3, 4, 5] */\n      dup2\n      mstore\n        /* \"contracts/case/Array.sol\":1606:1607  2 */\n      0x02\n        /* \"contracts/case/Array.sol\":1595:1617  arrs = [1, 2, 3, 4, 5] */\n      0x20\n      dup3\n      add\n      mstore\n        /* \"contracts/case/Array.sol\":1609:1610  3 */\n      0x03\n        /* \"contracts/case/Array.sol\":1595:1617  arrs = [1, 2, 3, 4, 5] */\n      swap2\n      dup2\n      add\n      swap2\n      swap1\n      swap2\n      mstore\n        /* \"contracts/case/Array.sol\":1612:1613  4 */\n      0x04\n        /* \"contracts/case/Array.sol\":1595:1617  arrs = [1, 2, 3, 4, 5] */\n      0x60\n      dup3\n      add\n      mstore\n        /* \"contracts/case/Array.sol\":1615:1616  5 */\n      0x05\n        /* \"contracts/case/Array.sol\":1595:1617  arrs = [1, 2, 3, 4, 5] */\n      0x80\n      dup3\n      add\n      dup2\n      swap1\n      mstore\n      tag_41\n      swap2\n      0x00\n      swap2\n      tag_42\n      jump\t// in\n    tag_41:\n      pop\n        /* \"contracts/case/Array.sol\":1628:1637  remove(2) */\n      tag_43\n        /* \"contracts/case/Array.sol\":1635:1636  2 */\n      0x02\n        /* \"contracts/case/Array.sol\":1628:1634  remove */\n      tag_9\n        /* \"contracts/case/Array.sol\":1628:1637  remove(2) */\n      jump\t// in\n    tag_43:\n        /* \"contracts/case/Array.sol\":1693:1697  arrs */\n      0x00\n        /* \"contracts/case/Array.sol\":1698:1699  0 */\n      dup1\n        /* \"contracts/case/Array.sol\":1693:1700  arrs[0] */\n      dup2\n      sload\n      dup2\n      lt\n      tag_45\n      jumpi\n      tag_45\n      tag_27\n      jump\t// in\n    tag_45:\n      swap1\n      0x00\n      mstore\n      keccak256(0x00, 0x20)\n      add\n      sload\n        /* \"contracts/case/Array.sol\":1704:1705  1 */\n      0x01\n        /* \"contracts/case/Array.sol\":1693:1705  arrs[0] == 1 */\n      eq\n        /* \"contracts/case/Array.sol\":1686:1706  assert(arrs[0] == 1) */\n      tag_48\n      jumpi\n      tag_48\n      tag_49\n      jump\t// in\n    tag_48:\n        /* \"contracts/case/Array.sol\":1724:1728  arrs */\n      0x00\n        /* \"contracts/case/Array.sol\":1729:1730  1 */\n      0x01\n        /* \"contracts/case/Array.sol\":1724:1731  arrs[1] */\n      dup2\n      sload\n      dup2\n      lt\n      tag_51\n      jumpi\n      tag_51\n      tag_27\n      jump\t// in\n    tag_51:\n      swap1\n      0x00\n      mstore\n      keccak256(0x00, 0x20)\n      add\n      sload\n        /* \"contracts/case/Array.sol\":1735:1736  2 */\n      0x02\n        /* \"contracts/case/Array.sol\":1724:1736  arrs[1] == 2 */\n      eq\n        /* \"contracts/case/Array.sol\":1717:1737  assert(arrs[1] == 2) */\n      tag_54\n      jumpi\n      tag_54\n      tag_49\n      jump\t// in\n    tag_54:\n        /* \"contracts/case/Array.sol\":1755:1759  arrs */\n      0x00\n        /* \"contracts/case/Array.sol\":1760:1761  2 */\n      0x02\n        /* \"contracts/case/Array.sol\":1755:1762  arrs[2] */\n      dup2\n      sload\n      dup2\n      lt\n      tag_56\n      jumpi\n      tag_56\n      tag_27\n      jump\t// in\n    tag_56:\n      swap1\n      0x00\n      mstore\n      keccak256(0x00, 0x20)\n      add\n      sload\n        /* \"contracts/case/Array.sol\":1766:1767  4 */\n      0x04\n        /* \"contracts/case/Array.sol\":1755:1767  arrs[2] == 4 */\n      eq\n        /* \"contracts/case/Array.sol\":1748:1768  assert(arrs[2] == 4) */\n      tag_59\n      jumpi\n      tag_59\n      tag_49\n      jump\t// in\n    tag_59:\n        /* \"contracts/case/Array.sol\":1786:1790  arrs */\n      0x00\n        /* \"contracts/case/Array.sol\":1791:1792  3 */\n      0x03\n        /* \"contracts/case/Array.sol\":1786:1793  arrs[3] */\n      dup2\n      sload\n      dup2\n      lt\n      tag_61\n      jumpi\n      tag_61\n      tag_27\n      jump\t// in\n    tag_61:\n      swap1\n      0x00\n      mstore\n      keccak256(0x00, 0x20)\n      add\n      sload\n        /* \"contracts/case/Array.sol\":1797:1798  5 */\n      0x05\n        /* \"contracts/case/Array.sol\":1786:1798  arrs[3] == 5 */\n      eq\n        /* \"contracts/case/Array.sol\":1779:1799  assert(arrs[3] == 5) */\n      tag_64\n      jumpi\n      tag_64\n      tag_49\n      jump\t// in\n    tag_64:\n        /* \"contracts/case/Array.sol\":1817:1821  arrs */\n      0x00\n        /* \"contracts/case/Array.sol\":1817:1828  arrs.length */\n      sload\n        /* \"contracts/case/Array.sol\":1832:1833  4 */\n      0x04\n        /* \"contracts/case/Array.sol\":1817:1833  arrs.length == 4 */\n      eq\n        /* \"contracts/case/Array.sol\":1810:1834  assert(arrs.length == 4) */\n      tag_66\n      jumpi\n      tag_66\n      tag_49\n      jump\t// in\n    tag_66:\n        /* \"contracts/case/Array.sol\":1847:1857  arrs = [1] */\n      0x40\n      dup1\n      mload\n      0x20\n      dup2\n      add\n      swap1\n      swap2\n      mstore\n        /* \"contracts/case/Array.sol\":1855:1856  1 */\n      0x01\n        /* \"contracts/case/Array.sol\":1847:1857  arrs = [1] */\n      dup1\n      dup3\n      mstore\n      tag_67\n      swap2\n      0x00\n      swap2\n      tag_42\n      jump\t// in\n    tag_67:\n      pop\n        /* \"contracts/case/Array.sol\":1868:1877  remove(0) */\n      tag_69\n        /* \"contracts/case/Array.sol\":1875:1876  0 */\n      0x00\n        /* \"contracts/case/Array.sol\":1868:1874  remove */\n      tag_9\n        /* \"contracts/case/Array.sol\":1868:1877  remove(0) */\n      jump\t// in\n    tag_69:\n        /* \"contracts/case/Array.sol\":1923:1927  arrs */\n      0x00\n        /* \"contracts/case/Array.sol\":1923:1934  arrs.length */\n      sload\n        /* \"contracts/case/Array.sol\":1923:1939  arrs.length == 0 */\n      iszero\n        /* \"contracts/case/Array.sol\":1916:1940  assert(arrs.length == 0) */\n      tag_71\n      jumpi\n      tag_71\n      tag_49\n      jump\t// in\n    tag_71:\n        /* \"contracts/case/Array.sol\":1559:1948  function test() external {... */\n      jump\t// out\n    tag_42:\n      dup3\n      dup1\n      sload\n      dup3\n      dup3\n      sstore\n      swap1\n      0x00\n      mstore\n      keccak256(0x00, 0x20)\n      swap1\n      dup2\n      add\n      swap3\n      dup3\n      iszero\n      tag_74\n      jumpi\n      swap2\n      0x20\n      mul\n      dup3\n      add\n    tag_73:\n      dup3\n      dup2\n      gt\n      iszero\n      tag_74\n      jumpi\n      dup3\n      mload\n      dup3\n      swap1\n      0xff\n      and\n      swap1\n      sstore\n      swap2\n      0x20\n      add\n      swap2\n      swap1\n      0x01\n      add\n      swap1\n      jump(tag_73)\n    tag_74:\n      pop\n      tag_75\n      swap3\n      swap2\n      pop\n      tag_76\n      jump\t// in\n    tag_75:\n      pop\n      swap1\n      jump\t// out\n    tag_76:\n    tag_81:\n      dup1\n      dup3\n      gt\n      iszero\n      tag_75\n      jumpi\n      0x00\n      dup2\n      sstore\n      0x01\n      add\n      jump(tag_81)\n        /* \"#utility.yul\":14:194   */\n    tag_8:\n        /* \"#utility.yul\":73:79   */\n      0x00\n        /* \"#utility.yul\":126:128   */\n      0x20\n        /* \"#utility.yul\":114:123   */\n      dup3\n        /* \"#utility.yul\":105:112   */\n      dup5\n        /* \"#utility.yul\":101:124   */\n      sub\n        /* \"#utility.yul\":97:129   */\n      slt\n        /* \"#utility.yul\":94:146   */\n      iszero\n      tag_86\n      jumpi\n        /* \"#utility.yul\":142:143   */\n      0x00\n        /* \"#utility.yul\":139:140   */\n      dup1\n        /* \"#utility.yul\":132:144   */\n      revert\n        /* \"#utility.yul\":94:146   */\n    tag_86:\n      pop\n        /* \"#utility.yul\":165:188   */\n      calldataload\n      swap2\n        /* \"#utility.yul\":14:194   */\n      swap1\n      pop\n      jump\t// out\n        /* \"#utility.yul\":381:508   */\n    tag_83:\n        /* \"#utility.yul\":442:452   */\n      0x4e487b71\n        /* \"#utility.yul\":437:440   */\n      0xe0\n        /* \"#utility.yul\":433:453   */\n      shl\n        /* \"#utility.yul\":430:431   */\n      0x00\n        /* \"#utility.yul\":423:454   */\n      mstore\n        /* \"#utility.yul\":473:477   */\n      0x11\n        /* \"#utility.yul\":470:471   */\n      0x04\n        /* \"#utility.yul\":463:478   */\n      mstore\n        /* \"#utility.yul\":497:501   */\n      0x24\n        /* \"#utility.yul\":494:495   */\n      0x00\n        /* \"#utility.yul\":487:502   */\n      revert\n        /* \"#utility.yul\":513:641   */\n    tag_22:\n        /* \"#utility.yul\":580:589   */\n      dup2\n      dup2\n      sub\n        /* \"#utility.yul\":601:612   */\n      dup2\n      dup2\n      gt\n        /* \"#utility.yul\":598:635   */\n      iszero\n      tag_91\n      jumpi\n        /* \"#utility.yul\":615:633   */\n      tag_91\n      tag_83\n      jump\t// in\n    tag_91:\n        /* \"#utility.yul\":513:641   */\n      swap3\n      swap2\n      pop\n      pop\n      jump\t// out\n        /* \"#utility.yul\":646:771   */\n    tag_24:\n        /* \"#utility.yul\":711:720   */\n      dup1\n      dup3\n      add\n        /* \"#utility.yul\":732:742   */\n      dup1\n      dup3\n      gt\n        /* \"#utility.yul\":729:765   */\n      iszero\n      tag_91\n      jumpi\n        /* \"#utility.yul\":745:763   */\n      tag_91\n      tag_83\n      jump\t// in\n        /* \"#utility.yul\":776:903   */\n    tag_27:\n        /* \"#utility.yul\":837:847   */\n      0x4e487b71\n        /* \"#utility.yul\":832:835   */\n      0xe0\n        /* \"#utility.yul\":828:848   */\n      shl\n        /* \"#utility.yul\":825:826   */\n      0x00\n        /* \"#utility.yul\":818:849   */\n      mstore\n        /* \"#utility.yul\":868:872   */\n      0x32\n        /* \"#utility.yul\":865:866   */\n      0x04\n        /* \"#utility.yul\":858:873   */\n      mstore\n        /* \"#utility.yul\":892:896   */\n      0x24\n        /* \"#utility.yul\":889:890   */\n      0x00\n        /* \"#utility.yul\":882:897   */\n      revert\n        /* \"#utility.yul\":908:1043   */\n    tag_33:\n        /* \"#utility.yul\":947:950   */\n      0x00\n        /* \"#utility.yul\":968:985   */\n      0x01\n      dup3\n      add\n        /* \"#utility.yul\":965:1008   */\n      tag_98\n      jumpi\n        /* \"#utility.yul\":988:1006   */\n      tag_98\n      tag_83\n      jump\t// in\n    tag_98:\n      pop\n        /* \"#utility.yul\":1035:1036   */\n      0x01\n        /* \"#utility.yul\":1024:1037   */\n      add\n      swap1\n        /* \"#utility.yul\":908:1043   */\n      jump\t// out\n        /* \"#utility.yul\":1048:1175   */\n    tag_36:\n        /* \"#utility.yul\":1109:1119   */\n      0x4e487b71\n        /* \"#utility.yul\":1104:1107   */\n      0xe0\n        /* \"#utility.yul\":1100:1120   */\n      shl\n        /* \"#utility.yul\":1097:1098   */\n      0x00\n        /* \"#utility.yul\":1090:1121   */\n      mstore\n        /* \"#utility.yul\":1140:1144   */\n      0x31\n        /* \"#utility.yul\":1137:1138   */\n      0x04\n        /* \"#utility.yul\":1130:1145   */\n      mstore\n        /* \"#utility.yul\":1164:1168   */\n      0x24\n        /* \"#utility.yul\":1161:1162   */\n      0x00\n        /* \"#utility.yul\":1154:1169   */\n      revert\n        /* \"#utility.yul\":1180:1307   */\n    tag_49:\n        /* \"#utility.yul\":1241:1251   */\n      0x4e487b71\n        /* \"#utility.yul\":1236:1239   */\n      0xe0\n        /* \"#utility.yul\":1232:1252   */\n      shl\n        /* \"#utility.yul\":1229:1230   */\n      0x00\n        /* \"#utility.yul\":1222:1253   */\n      mstore\n        /* \"#utility.yul\":1272:1276   */\n      0x01\n        /* \"#utility.yul\":1269:1270   */\n      0x04\n        /* \"#utility.yul\":1262:1277   */\n      mstore\n        /* \"#utility.yul\":1296:1300   */\n      0x24\n        /* \"#utility.yul\":1293:1294   */\n      0x00\n        /* \"#utility.yul\":1286:1301   */\n      revert\n\n    auxdata: 0xa26469706673582212201e7f321bb94273e5b83f05dd0e1d2c08c5819a8fbf790b5d8cfc3ffd6973d7e364736f6c63430008130033\n}\n",
				"bytecode": {
					"linkReferences": {},
					"object": "608060405234801561001057600080fd5b506103dd806100206000396000f3fe608060405234801561001057600080fd5b50600436106100415760003560e01c80634cc822151461004657806361bb02301461005b578063f8a8fd6d14610080575b600080fd5b6100596100543660046102f1565b610088565b005b61006e6100693660046102f1565b610124565b60405190815260200160405180910390f35b610059610145565b805b60005461009990600190610320565b8110156100f95760006100ad826001610339565b815481106100bd576100bd61034c565b9060005260206000200154600082815481106100db576100db61034c565b600091825260209091200155806100f181610362565b91505061008a565b50600080548061010b5761010b61037b565b6001900381819060005260206000200160009055905550565b6000818154811061013457600080fd5b600091825260209091200154905081565b6040805160a08101825260018152600260208201526003918101919091526004606082015260056080820181905261017f9160009161028c565b5061018a6002610088565b6000808154811061019d5761019d61034c565b90600052602060002001546001146101b7576101b7610391565b60006001815481106101cb576101cb61034c565b90600052602060002001546002146101e5576101e5610391565b60006002815481106101f9576101f961034c565b906000526020600020015460041461021357610213610391565b60006003815481106102275761022761034c565b906000526020600020015460051461024157610241610391565b60005460041461025357610253610391565b6040805160208101909152600180825261026f9160009161028c565b5061027a6000610088565b6000541561028a5761028a610391565b565b8280548282559060005260206000209081019282156102cc579160200282015b828111156102cc578251829060ff169055916020019190600101906102ac565b506102d89291506102dc565b5090565b5b808211156102d857600081556001016102dd565b60006020828403121561030357600080fd5b5035919050565b634e487b7160e01b600052601160045260246000fd5b818103818111156103335761033361030a565b92915050565b808201808211156103335761033361030a565b634e487b7160e01b600052603260045260246000fd5b6000600182016103745761037461030a565b5060010190565b634e487b7160e01b600052603160045260246000fd5b634e487b7160e01b600052600160045260246000fdfea26469706673582212201e7f321bb94273e5b83f05dd0e1d2c08c5819a8fbf790b5d8cfc3ffd6973d7e364736f6c63430008130033",
					"opcodes": "PUSH1 0x80 PUSH1 0x40 MSTORE CALLVALUE DUP1 ISZERO PUSH2 0x10 JUMPI PUSH1 0x0 DUP1 REVERT JUMPDEST POP PUSH2 0x3DD DUP1 PUSH2 0x20 PUSH1 0x0 CODECOPY PUSH1 0x0 RETURN INVALID PUSH1 0x80 PUSH1 0x40 MSTORE CALLVALUE DUP1 ISZERO PUSH2 0x10 JUMPI PUSH1 0x0 DUP1 REVERT JUMPDEST POP PUSH1 0x4 CALLDATASIZE LT PUSH2 0x41 JUMPI PUSH1 0x0 CALLDATALOAD PUSH1 0xE0 SHR DUP1 PUSH4 0x4CC82215 EQ PUSH2 0x46 JUMPI DUP1 PUSH4 0x61BB0230 EQ PUSH2 0x5B JUMPI DUP1 PUSH4 0xF8A8FD6D EQ PUSH2 0x80 JUMPI JUMPDEST PUSH1 0x0 DUP1 REVERT JUMPDEST PUSH2 0x59 PUSH2 0x54 CALLDATASIZE PUSH1 0x4 PUSH2 0x2F1 JUMP JUMPDEST PUSH2 0x88 JUMP JUMPDEST STOP JUMPDEST PUSH2 0x6E PUSH2 0x69 CALLDATASIZE PUSH1 0x4 PUSH2 0x2F1 JUMP JUMPDEST PUSH2 0x124 JUMP JUMPDEST PUSH1 0x40 MLOAD SWAP1 DUP2 MSTORE PUSH1 0x20 ADD PUSH1 0x40 MLOAD DUP1 SWAP2 SUB SWAP1 RETURN JUMPDEST PUSH2 0x59 PUSH2 0x145 JUMP JUMPDEST DUP1 JUMPDEST PUSH1 0x0 SLOAD PUSH2 0x99 SWAP1 PUSH1 0x1 SWAP1 PUSH2 0x320 JUMP JUMPDEST DUP2 LT ISZERO PUSH2 0xF9 JUMPI PUSH1 0x0 PUSH2 0xAD DUP3 PUSH1 0x1 PUSH2 0x339 JUMP JUMPDEST DUP2 SLOAD DUP2 LT PUSH2 0xBD JUMPI PUSH2 0xBD PUSH2 0x34C JUMP JUMPDEST SWAP1 PUSH1 0x0 MSTORE PUSH1 0x20 PUSH1 0x0 KECCAK256 ADD SLOAD PUSH1 0x0 DUP3 DUP2 SLOAD DUP2 LT PUSH2 0xDB JUMPI PUSH2 0xDB PUSH2 0x34C JUMP JUMPDEST PUSH1 0x0 SWAP2 DUP3 MSTORE PUSH1 0x20 SWAP1 SWAP2 KECCAK256 ADD SSTORE DUP1 PUSH2 0xF1 DUP2 PUSH2 0x362 JUMP JUMPDEST SWAP2 POP POP PUSH2 0x8A JUMP JUMPDEST POP PUSH1 0x0 DUP1 SLOAD DUP1 PUSH2 0x10B JUMPI PUSH2 0x10B PUSH2 0x37B JUMP JUMPDEST PUSH1 0x1 SWAP1 SUB DUP2 DUP2 SWAP1 PUSH1 0x0 MSTORE PUSH1 0x20 PUSH1 0x0 KECCAK256 ADD PUSH1 0x0 SWAP1 SSTORE SWAP1 SSTORE POP JUMP JUMPDEST PUSH1 0x0 DUP2 DUP2 SLOAD DUP2 LT PUSH2 0x134 JUMPI PUSH1 0x0 DUP1 REVERT JUMPDEST PUSH1 0x0 SWAP2 DUP3 MSTORE PUSH1 0x20 SWAP1 SWAP2 KECCAK256 ADD SLOAD SWAP1 POP DUP2 JUMP JUMPDEST PUSH1 0x40 DUP1 MLOAD PUSH1 0xA0 DUP2 ADD DUP3 MSTORE PUSH1 0x1 DUP2 MSTORE PUSH1 0x2 PUSH1 0x20 DUP3 ADD MSTORE PUSH1 0x3 SWAP2 DUP2 ADD SWAP2 SWAP1 SWAP2 MSTORE PUSH1 0x4 PUSH1 0x60 DUP3 ADD MSTORE PUSH1 0x5 PUSH1 0x80 DUP3 ADD DUP2 SWAP1 MSTORE PUSH2 0x17F SWAP2 PUSH1 0x0 SWAP2 PUSH2 0x28C JUMP JUMPDEST POP PUSH2 0x18A PUSH1 0x2 PUSH2 0x88 JUMP JUMPDEST PUSH1 0x0 DUP1 DUP2 SLOAD DUP2 LT PUSH2 0x19D JUMPI PUSH2 0x19D PUSH2 0x34C JUMP JUMPDEST SWAP1 PUSH1 0x0 MSTORE PUSH1 0x20 PUSH1 0x0 KECCAK256 ADD SLOAD PUSH1 0x1 EQ PUSH2 0x1B7 JUMPI PUSH2 0x1B7 PUSH2 0x391 JUMP JUMPDEST PUSH1 0x0 PUSH1 0x1 DUP2 SLOAD DUP2 LT PUSH2 0x1CB JUMPI PUSH2 0x1CB PUSH2 0x34C JUMP JUMPDEST SWAP1 PUSH1 0x0 MSTORE PUSH1 0x20 PUSH1 0x0 KECCAK256 ADD SLOAD PUSH1 0x2 EQ PUSH2 0x1E5 JUMPI PUSH2 0x1E5 PUSH2 0x391 JUMP JUMPDEST PUSH1 0x0 PUSH1 0x2 DUP2 SLOAD DUP2 LT PUSH2 0x1F9 JUMPI PUSH2 0x1F9 PUSH2 0x34C JUMP JUMPDEST SWAP1 PUSH1 0x0 MSTORE PUSH1 0x20 PUSH1 0x0 KECCAK256 ADD SLOAD PUSH1 0x4 EQ PUSH2 0x213 JUMPI PUSH2 0x213 PUSH2 0x391 JUMP JUMPDEST PUSH1 0x0 PUSH1 0x3 DUP2 SLOAD DUP2 LT PUSH2 0x227 JUMPI PUSH2 0x227 PUSH2 0x34C JUMP JUMPDEST SWAP1 PUSH1 0x0 MSTORE PUSH1 0x20 PUSH1 0x0 KECCAK256 ADD SLOAD PUSH1 0x5 EQ PUSH2 0x241 JUMPI PUSH2 0x241 PUSH2 0x391 JUMP JUMPDEST PUSH1 0x0 SLOAD PUSH1 0x4 EQ PUSH2 0x253 JUMPI PUSH2 0x253 PUSH2 0x391 JUMP JUMPDEST PUSH1 0x40 DUP1 MLOAD PUSH1 0x20 DUP2 ADD SWAP1 SWAP2 MSTORE PUSH1 0x1 DUP1 DUP3 MSTORE PUSH2 0x26F SWAP2 PUSH1 0x0 SWAP2 PUSH2 0x28C JUMP JUMPDEST POP PUSH2 0x27A PUSH1 0x0 PUSH2 0x88 JUMP JUMPDEST PUSH1 0x0 SLOAD ISZERO PUSH2 0x28A JUMPI PUSH2 0x28A PUSH2 0x391 JUMP JUMPDEST JUMP JUMPDEST DUP3 DUP1 SLOAD DUP3 DUP3 SSTORE SWAP1 PUSH1 0x0 MSTORE PUSH1 0x20 PUSH1 0x0 KECCAK256 SWAP1 DUP2 ADD SWAP3 DUP3 ISZERO PUSH2 0x2CC JUMPI SWAP2 PUSH1 0x20 MUL DUP3 ADD JUMPDEST DUP3 DUP2 GT ISZERO PUSH2 0x2CC JUMPI DUP3 MLOAD DUP3 SWAP1 PUSH1 0xFF AND SWAP1 SSTORE SWAP2 PUSH1 0x20 ADD SWAP2 SWAP1 PUSH1 0x1 ADD SWAP1 PUSH2 0x2AC JUMP JUMPDEST POP PUSH2 0x2D8 SWAP3 SWAP2 POP PUSH2 0x2DC JUMP JUMPDEST POP SWAP1 JUMP JUMPDEST JUMPDEST DUP1 DUP3 GT ISZERO PUSH2 0x2D8 JUMPI PUSH1 0x0 DUP2 SSTORE PUSH1 0x1 ADD PUSH2 0x2DD JUMP JUMPDEST PUSH1 0x0 PUSH1 0x20 DUP3 DUP5 SUB SLT ISZERO PUSH2 0x303 JUMPI PUSH1 0x0 DUP1 REVERT JUMPDEST POP CALLDATALOAD SWAP2 SWAP1 POP JUMP JUMPDEST PUSH4 0x4E487B71 PUSH1 0xE0 SHL PUSH1 0x0 MSTORE PUSH1 0x11 PUSH1 0x4 MSTORE PUSH1 0x24 PUSH1 0x0 REVERT JUMPDEST DUP2 DUP2 SUB DUP2 DUP2 GT ISZERO PUSH2 0x333 JUMPI PUSH2 0x333 PUSH2 0x30A JUMP JUMPDEST SWAP3 SWAP2 POP POP JUMP JUMPDEST DUP1 DUP3 ADD DUP1 DUP3 GT ISZERO PUSH2 0x333 JUMPI PUSH2 0x333 PUSH2 0x30A JUMP JUMPDEST PUSH4 0x4E487B71 PUSH1 0xE0 SHL PUSH1 0x0 MSTORE PUSH1 0x32 PUSH1 0x4 MSTORE PUSH1 0x24 PUSH1 0x0 REVERT JUMPDEST PUSH1 0x0 PUSH1 0x1 DUP3 ADD PUSH2 0x374 JUMPI PUSH2 0x374 PUSH2 0x30A JUMP JUMPDEST POP PUSH1 0x1 ADD SWAP1 JUMP JUMPDEST PUSH4 0x4E487B71 PUSH1 0xE0 SHL PUSH1 0x0 MSTORE PUSH1 0x31 PUSH1 0x4 MSTORE PUSH1 0x24 PUSH1 0x0 REVERT JUMPDEST PUSH4 0x4E487B71 PUSH1 0xE0 SHL PUSH1 0x0 MSTORE PUSH1 0x1 PUSH1 0x4 MSTORE PUSH1 0x24 PUSH1 0x0 REVERT INVALID LOG2 PUSH5 0x6970667358 0x22 SLT KECCAK256 0x1E PUSH32 0x321BB94273E5B83F05DD0E1D2C08C5819A8FBF790B5D8CFC3FFD6973D7E36473 PUSH16 0x6C634300081300330000000000000000 "
				},
				"gasEstimates": {
					"creation": {
						"codeDepositCost": "197800",
						"executionCost": "238",
						"totalCost": "198038"
					},
					"external": {
						"arrs(uint256)": "4563",
						"remove(uint256)": "infinite",
						"test()": "infinite"
					}
				},
				"methodIdentifiers": {
					"arrs(uint256)": "61bb0230",
					"remove(uint256)": "4cc82215",
					"test()": "f8a8fd6d"
				}
			},
			"storageLayout": {
				"storage": [
					{
						"astId": 102,
						"contract": "contracts/case/Array.sol:ArrayRemoveByShifting",
						"label": "arrs",
						"offset": 0,
						"slot": "0",
						"type": "t_array(t_uint256)dyn_storage"
					}
				],
				"types": {
					"t_array(t_uint256)dyn_storage": {
						"base": "t_uint256",
						"encoding": "dynamic_array",
						"label": "uint256[]",
						"numberOfBytes": "32"
					},
					"t_uint256": {
						"encoding": "inplace",
						"label": "uint256",
						"numberOfBytes": "32"
					}
				}
			},
			"userdoc": {
				"kind": "user",
				"methods": {},
				"version": 1
			}
		}
	}
}