{
	"contracts/case/Array.sol": {
		"Array": {
			"abi": [
				{
					"inputs": [
						{
							"internalType": "uint256",
							"name": "",
							"type": "uint256"
						}
					],
					"name": "arrs",
					"outputs": [
						{
							"internalType": "uint256",
							"name": "",
							"type": "uint256"
						}
					],
					"stateMutability": "view",
					"type": "function"
				},
				{
					"inputs": [
						{
							"internalType": "uint256",
							"name": "",
							"type": "uint256"
						}
					],
					"name": "arrs2",
					"outputs": [
						{
							"internalType": "uint256",
							"name": "",
							"type": "uint256"
						}
					],
					"stateMutability": "view",
					"type": "function"
				},
				{
					"inputs": [],
					"name": "example",
					"outputs": [],
					"stateMutability": "pure",
					"type": "function"
				},
				{
					"inputs": [
						{
							"internalType": "uint256",
							"name": "i",
							"type": "uint256"
						}
					],
					"name": "get",
					"outputs": [
						{
							"internalType": "uint256",
							"name": "",
							"type": "uint256"
						}
					],
					"stateMutability": "view",
					"type": "function"
				},
				{
					"inputs": [],
					"name": "getArrs",
					"outputs": [
						{
							"internalType": "uint256[]",
							"name": "",
							"type": "uint256[]"
						}
					],
					"stateMutability": "view",
					"type": "function"
				},
				{
					"inputs": [],
					"name": "getLength",
					"outputs": [
						{
							"internalType": "uint256",
							"name": "",
							"type": "uint256"
						}
					],
					"stateMutability": "view",
					"type": "function"
				},
				{
					"inputs": [
						{
							"internalType": "uint256",
							"name": "",
							"type": "uint256"
						}
					],
					"name": "myFixedSizeArr",
					"outputs": [
						{
							"internalType": "uint256",
							"name": "",
							"type": "uint256"
						}
					],
					"stateMutability": "view",
					"type": "function"
				},
				{
					"inputs": [],
					"name": "pop",
					"outputs": [],
					"stateMutability": "nonpayable",
					"type": "function"
				},
				{
					"inputs": [
						{
							"internalType": "uint256",
							"name": "i",
							"type": "uint256"
						}
					],
					"name": "push",
					"outputs": [],
					"stateMutability": "nonpayable",
					"type": "function"
				},
				{
					"inputs": [
						{
							"internalType": "uint256",
							"name": "i",
							"type": "uint256"
						}
					],
					"name": "remove",
					"outputs": [],
					"stateMutability": "nonpayable",
					"type": "function"
				}
			],
			"devdoc": {
				"kind": "dev",
				"methods": {},
				"version": 1
			},
			"evm": {
				"assembly": "    /* \"contracts/case/Array.sol\":112:146  uint256[] public arrs2 = [1, 2, 3] */\n  0xe0\n    /* \"contracts/case/Array.sol\":60:1229  contract Array {... */\n  0x40\n    /* \"contracts/case/Array.sol\":112:146  uint256[] public arrs2 = [1, 2, 3] */\n  mstore\n    /* \"contracts/case/Array.sol\":138:139  1 */\n  0x01\n    /* \"contracts/case/Array.sol\":60:1229  contract Array {... */\n  0x80\n    /* \"contracts/case/Array.sol\":112:146  uint256[] public arrs2 = [1, 2, 3] */\n  dup2\n  dup2\n  mstore\n    /* \"contracts/case/Array.sol\":141:142  2 */\n  0x02\n    /* \"contracts/case/Array.sol\":112:146  uint256[] public arrs2 = [1, 2, 3] */\n  0xa0\n  mstore\n    /* \"contracts/case/Array.sol\":144:145  3 */\n  0x03\n    /* \"contracts/case/Array.sol\":112:146  uint256[] public arrs2 = [1, 2, 3] */\n  0xc0\n  dup2\n  swap1\n  mstore\n  tag_1\n  swap3\n    /* \"contracts/case/Array.sol\":138:139  1 */\n  swap2\n    /* \"contracts/case/Array.sol\":60:1229  contract Array {... */\n  swap1\n    /* \"contracts/case/Array.sol\":112:146  uint256[] public arrs2 = [1, 2, 3] */\n  tag_2\n  jump\t// in\ntag_1:\n  pop\n    /* \"contracts/case/Array.sol\":60:1229  contract Array {... */\n  callvalue\n  dup1\n  iszero\n  tag_3\n  jumpi\n  0x00\n  dup1\n  revert\ntag_3:\n  pop\n  jump(tag_4)\ntag_2:\n  dup3\n  dup1\n  sload\n  dup3\n  dup3\n  sstore\n  swap1\n  0x00\n  mstore\n  keccak256(0x00, 0x20)\n  swap1\n  dup2\n  add\n  swap3\n  dup3\n  iszero\n  tag_7\n  jumpi\n  swap2\n  0x20\n  mul\n  dup3\n  add\ntag_6:\n  dup3\n  dup2\n  gt\n  iszero\n  tag_7\n  jumpi\n  dup3\n  mload\n  dup3\n  swap1\n  0xff\n  and\n  swap1\n  sstore\n  swap2\n  0x20\n  add\n  swap2\n  swap1\n  0x01\n  add\n  swap1\n  jump(tag_6)\ntag_7:\n  pop\n  tag_8\n  swap3\n  swap2\n  pop\n  tag_9\n  jump\t// in\ntag_8:\n  pop\n  swap1\n  jump\t// out\ntag_9:\ntag_10:\n  dup1\n  dup3\n  gt\n  iszero\n  tag_8\n  jumpi\n  0x00\n  dup2\n  sstore\n  0x01\n  add\n  jump(tag_10)\ntag_4:\n  dataSize(sub_0)\n  dup1\n  dataOffset(sub_0)\n  0x00\n  codecopy\n  0x00\n  return\nstop\n\nsub_0: assembly {\n        /* \"contracts/case/Array.sol\":60:1229  contract Array {... */\n      mstore(0x40, 0x80)\n      callvalue\n      dup1\n      iszero\n      tag_1\n      jumpi\n      0x00\n      dup1\n      revert\n    tag_1:\n      pop\n      jumpi(tag_2, lt(calldatasize, 0x04))\n      shr(0xe0, calldataload(0x00))\n      dup1\n      0x61bb0230\n      gt\n      tag_13\n      jumpi\n      dup1\n      0x61bb0230\n      eq\n      tag_8\n      jumpi\n      dup1\n      0x9507d39a\n      eq\n      tag_9\n      jumpi\n      dup1\n      0x959ac484\n      eq\n      tag_10\n      jumpi\n      dup1\n      0xa4ece52c\n      eq\n      tag_11\n      jumpi\n      dup1\n      0xbe1c766b\n      eq\n      tag_12\n      jumpi\n      0x00\n      dup1\n      revert\n    tag_13:\n      dup1\n      0x17382a20\n      eq\n      tag_3\n      jumpi\n      dup1\n      0x38a067ce\n      eq\n      tag_4\n      jumpi\n      dup1\n      0x3e891ee3\n      eq\n      tag_5\n      jumpi\n      dup1\n      0x4cc82215\n      eq\n      tag_6\n      jumpi\n      dup1\n      0x54353f2f\n      eq\n      tag_7\n      jumpi\n    tag_2:\n      0x00\n      dup1\n      revert\n        /* \"contracts/case/Array.sol\":493:581  function getArrs() public view returns (uint256[] memory) {... */\n    tag_3:\n      tag_14\n      tag_15\n      jump\t// in\n    tag_14:\n      mload(0x40)\n      tag_16\n      swap2\n      swap1\n      tag_17\n      jump\t// in\n    tag_16:\n      mload(0x40)\n      dup1\n      swap2\n      sub\n      swap1\n      return\n        /* \"contracts/case/Array.sol\":209:242  uint256[10] public myFixedSizeArr */\n    tag_4:\n      tag_18\n      tag_19\n      calldatasize\n      0x04\n      tag_20\n      jump\t// in\n    tag_19:\n      tag_21\n      jump\t// in\n    tag_18:\n      mload(0x40)\n        /* \"#utility.yul\":982:1007   */\n      swap1\n      dup2\n      mstore\n        /* \"#utility.yul\":970:972   */\n      0x20\n        /* \"#utility.yul\":955:973   */\n      add\n        /* \"contracts/case/Array.sol\":209:242  uint256[10] public myFixedSizeArr */\n      tag_16\n        /* \"#utility.yul\":836:1013   */\n      jump\n        /* \"contracts/case/Array.sol\":112:146  uint256[] public arrs2 = [1, 2, 3] */\n    tag_5:\n      tag_18\n      tag_25\n      calldatasize\n      0x04\n      tag_20\n      jump\t// in\n    tag_25:\n      tag_26\n      jump\t// in\n        /* \"contracts/case/Array.sol\":915:1024  function remove(uint256 i) public {... */\n    tag_6:\n      tag_28\n      tag_29\n      calldatasize\n      0x04\n      tag_20\n      jump\t// in\n    tag_29:\n      tag_30\n      jump\t// in\n    tag_28:\n      stop\n        /* \"contracts/case/Array.sol\":1032:1226  function example() external pure {... */\n    tag_7:\n      tag_28\n      tag_32\n      jump\t// in\n        /* \"contracts/case/Array.sol\":84:105  uint256[] public arrs */\n    tag_8:\n      tag_18\n      tag_34\n      calldatasize\n      0x04\n      tag_20\n      jump\t// in\n    tag_34:\n      tag_35\n      jump\t// in\n        /* \"contracts/case/Array.sol\":251:338  function get(uint256 i) public view returns (uint256) {... */\n    tag_9:\n      tag_18\n      tag_38\n      calldatasize\n      0x04\n      tag_20\n      jump\t// in\n    tag_38:\n      tag_39\n      jump\t// in\n        /* \"contracts/case/Array.sol\":589:652  function push(uint256 i) public {... */\n    tag_10:\n      tag_28\n      tag_42\n      calldatasize\n      0x04\n      tag_20\n      jump\t// in\n    tag_42:\n        /* \"contracts/case/Array.sol\":632:636  arrs */\n      0x00\n        /* \"contracts/case/Array.sol\":632:644  arrs.push(i) */\n      dup1\n      sload\n      0x01\n      dup2\n      add\n      dup3\n      sstore\n      swap1\n      dup1\n      mstore\n      0x290decd9548b62a8d60345a988386fc84ba6bc95484008f6362f93160ef3e563\n      add\n      sstore\n        /* \"contracts/case/Array.sol\":589:652  function push(uint256 i) public {... */\n      jump\n        /* \"contracts/case/Array.sol\":660:811  function pop() public {... */\n    tag_11:\n      tag_28\n      tag_45\n      jump\t// in\n        /* \"contracts/case/Array.sol\":819:907  function getLength() public view returns (uint256) {... */\n    tag_12:\n        /* \"contracts/case/Array.sol\":861:868  uint256 */\n      0x00\n        /* \"contracts/case/Array.sol\":888:899  arrs.length */\n      sload\n        /* \"contracts/case/Array.sol\":819:907  function getLength() public view returns (uint256) {... */\n      jump(tag_18)\n        /* \"contracts/case/Array.sol\":493:581  function getArrs() public view returns (uint256[] memory) {... */\n    tag_15:\n        /* \"contracts/case/Array.sol\":533:549  uint256[] memory */\n      0x60\n        /* \"contracts/case/Array.sol\":569:573  arrs */\n      0x00\n        /* \"contracts/case/Array.sol\":562:573  return arrs */\n      dup1\n      sload\n      dup1\n      0x20\n      mul\n      0x20\n      add\n      mload(0x40)\n      swap1\n      dup2\n      add\n      0x40\n      mstore\n      dup1\n      swap3\n      swap2\n      swap1\n      dup2\n      dup2\n      mstore\n      0x20\n      add\n      dup3\n      dup1\n      sload\n      dup1\n      iszero\n      tag_50\n      jumpi\n      0x20\n      mul\n      dup3\n      add\n      swap2\n      swap1\n      0x00\n      mstore\n      keccak256(0x00, 0x20)\n      swap1\n    tag_51:\n      dup2\n      sload\n      dup2\n      mstore\n      0x20\n      add\n      swap1\n      0x01\n      add\n      swap1\n      dup1\n      dup4\n      gt\n      tag_51\n      jumpi\n    tag_50:\n      pop\n      pop\n      pop\n      pop\n      pop\n      swap1\n      pop\n        /* \"contracts/case/Array.sol\":493:581  function getArrs() public view returns (uint256[] memory) {... */\n      swap1\n      jump\t// out\n        /* \"contracts/case/Array.sol\":209:242  uint256[10] public myFixedSizeArr */\n    tag_21:\n      0x02\n      dup2\n      0x0a\n      dup2\n      lt\n      tag_52\n      jumpi\n      0x00\n      dup1\n      revert\n    tag_52:\n      add\n      sload\n      swap1\n      pop\n      dup2\n      jump\t// out\n        /* \"contracts/case/Array.sol\":112:146  uint256[] public arrs2 = [1, 2, 3] */\n    tag_26:\n      0x01\n      dup2\n      dup2\n      sload\n      dup2\n      lt\n      tag_54\n      jumpi\n      0x00\n      dup1\n      revert\n    tag_54:\n      0x00\n      swap2\n      dup3\n      mstore\n      0x20\n      swap1\n      swap2\n      keccak256\n      add\n      sload\n      swap1\n      pop\n      dup2\n      jump\t// out\n        /* \"contracts/case/Array.sol\":915:1024  function remove(uint256 i) public {... */\n    tag_30:\n        /* \"contracts/case/Array.sol\":1009:1013  arrs */\n      0x00\n        /* \"contracts/case/Array.sol\":1014:1015  i */\n      dup2\n        /* \"contracts/case/Array.sol\":1009:1016  arrs[i] */\n      dup2\n      sload\n      dup2\n      lt\n      tag_58\n      jumpi\n      tag_58\n      tag_59\n      jump\t// in\n    tag_58:\n      0x00\n      swap2\n      dup3\n      mstore\n      0x20\n      dup3\n      keccak256\n      add\n        /* \"contracts/case/Array.sol\":1002:1016  delete arrs[i] */\n      sstore\n      pop\n        /* \"contracts/case/Array.sol\":915:1024  function remove(uint256 i) public {... */\n      jump\t// out\n        /* \"contracts/case/Array.sol\":1032:1226  function example() external pure {... */\n    tag_32:\n        /* \"contracts/case/Array.sol\":1140:1156  new uint256[](3) */\n      0x40\n      dup1\n      mload\n        /* \"contracts/case/Array.sol\":1154:1155  3 */\n      0x03\n        /* \"contracts/case/Array.sol\":1140:1156  new uint256[](3) */\n      dup1\n      dup3\n      mstore\n      0x80\n      dup3\n      add\n      swap1\n      swap3\n      mstore\n        /* \"contracts/case/Array.sol\":1114:1137  uint256[] memory values */\n      0x00\n      swap2\n        /* \"contracts/case/Array.sol\":1140:1156  new uint256[](3) */\n      0x20\n      dup3\n      add\n      0x60\n      dup1\n      calldatasize\n      dup4\n      calldatacopy\n      add\n      swap1\n      pop\n      pop\n        /* \"contracts/case/Array.sol\":1114:1156  uint256[] memory values = new uint256[](3) */\n      swap1\n      pop\n        /* \"contracts/case/Array.sol\":1217:1218  1 */\n      0x01\n        /* \"contracts/case/Array.sol\":1205:1211  values */\n      dup2\n        /* \"contracts/case/Array.sol\":1212:1213  0 */\n      0x00\n        /* \"contracts/case/Array.sol\":1205:1214  values[0] */\n      dup2\n      mload\n      dup2\n      lt\n      tag_67\n      jumpi\n      tag_67\n      tag_59\n      jump\t// in\n    tag_67:\n      0x20\n      mul\n      0x20\n      add\n      add\n        /* \"contracts/case/Array.sol\":1205:1218  values[0] = 1 */\n      dup2\n      dup2\n      mstore\n      pop\n      pop\n        /* \"contracts/case/Array.sol\":1065:1226  {... */\n      pop\n        /* \"contracts/case/Array.sol\":1032:1226  function example() external pure {... */\n      jump\t// out\n        /* \"contracts/case/Array.sol\":84:105  uint256[] public arrs */\n    tag_35:\n      0x00\n      dup2\n      dup2\n      sload\n      dup2\n      lt\n      tag_54\n      jumpi\n      0x00\n      dup1\n      revert\n        /* \"contracts/case/Array.sol\":251:338  function get(uint256 i) public view returns (uint256) {... */\n    tag_39:\n        /* \"contracts/case/Array.sol\":296:303  uint256 */\n      0x00\n        /* \"contracts/case/Array.sol\":323:327  arrs */\n      dup1\n        /* \"contracts/case/Array.sol\":328:329  i */\n      dup3\n        /* \"contracts/case/Array.sol\":323:330  arrs[i] */\n      dup2\n      sload\n      dup2\n      lt\n      tag_72\n      jumpi\n      tag_72\n      tag_59\n      jump\t// in\n    tag_72:\n      swap1\n      0x00\n      mstore\n      keccak256(0x00, 0x20)\n      add\n      sload\n        /* \"contracts/case/Array.sol\":316:330  return arrs[i] */\n      swap1\n      pop\n        /* \"contracts/case/Array.sol\":251:338  function get(uint256 i) public view returns (uint256) {... */\n      swap2\n      swap1\n      pop\n      jump\t// out\n        /* \"contracts/case/Array.sol\":660:811  function pop() public {... */\n    tag_45:\n        /* \"contracts/case/Array.sol\":793:797  arrs */\n      0x00\n        /* \"contracts/case/Array.sol\":793:803  arrs.pop() */\n      dup1\n      sload\n      dup1\n      tag_78\n      jumpi\n      tag_78\n      tag_79\n      jump\t// in\n    tag_78:\n      0x01\n      swap1\n      sub\n      dup2\n      dup2\n      swap1\n      0x00\n      mstore\n      keccak256(0x00, 0x20)\n      add\n      0x00\n      swap1\n      sstore\n      swap1\n      sstore\n        /* \"contracts/case/Array.sol\":660:811  function pop() public {... */\n      jump\t// out\n        /* \"#utility.yul\":14:646   */\n    tag_17:\n        /* \"#utility.yul\":185:187   */\n      0x20\n        /* \"#utility.yul\":237:258   */\n      dup1\n      dup3\n      mstore\n        /* \"#utility.yul\":307:320   */\n      dup3\n      mload\n        /* \"#utility.yul\":210:228   */\n      dup3\n      dup3\n      add\n        /* \"#utility.yul\":329:351   */\n      dup2\n      swap1\n      mstore\n        /* \"#utility.yul\":156:160   */\n      0x00\n      swap2\n        /* \"#utility.yul\":185:187   */\n      swap1\n        /* \"#utility.yul\":408:423   */\n      dup5\n      dup3\n      add\n      swap1\n        /* \"#utility.yul\":382:384   */\n      0x40\n        /* \"#utility.yul\":367:385   */\n      dup6\n      add\n      swap1\n        /* \"#utility.yul\":156:160   */\n      dup5\n        /* \"#utility.yul\":451:620   */\n    tag_84:\n        /* \"#utility.yul\":465:471   */\n      dup2\n        /* \"#utility.yul\":462:463   */\n      dup2\n        /* \"#utility.yul\":459:472   */\n      lt\n        /* \"#utility.yul\":451:620   */\n      iszero\n      tag_86\n      jumpi\n        /* \"#utility.yul\":526:539   */\n      dup4\n      mload\n        /* \"#utility.yul\":514:540   */\n      dup4\n      mstore\n        /* \"#utility.yul\":595:610   */\n      swap3\n      dup5\n      add\n      swap3\n        /* \"#utility.yul\":560:572   */\n      swap2\n      dup5\n      add\n      swap2\n        /* \"#utility.yul\":487:488   */\n      0x01\n        /* \"#utility.yul\":480:489   */\n      add\n        /* \"#utility.yul\":451:620   */\n      jump(tag_84)\n    tag_86:\n      pop\n        /* \"#utility.yul\":637:640   */\n      swap1\n      swap7\n        /* \"#utility.yul\":14:646   */\n      swap6\n      pop\n      pop\n      pop\n      pop\n      pop\n      pop\n      jump\t// out\n        /* \"#utility.yul\":651:831   */\n    tag_20:\n        /* \"#utility.yul\":710:716   */\n      0x00\n        /* \"#utility.yul\":763:765   */\n      0x20\n        /* \"#utility.yul\":751:760   */\n      dup3\n        /* \"#utility.yul\":742:749   */\n      dup5\n        /* \"#utility.yul\":738:761   */\n      sub\n        /* \"#utility.yul\":734:766   */\n      slt\n        /* \"#utility.yul\":731:783   */\n      iszero\n      tag_88\n      jumpi\n        /* \"#utility.yul\":779:780   */\n      0x00\n        /* \"#utility.yul\":776:777   */\n      dup1\n        /* \"#utility.yul\":769:781   */\n      revert\n        /* \"#utility.yul\":731:783   */\n    tag_88:\n      pop\n        /* \"#utility.yul\":802:825   */\n      calldataload\n      swap2\n        /* \"#utility.yul\":651:831   */\n      swap1\n      pop\n      jump\t// out\n        /* \"#utility.yul\":1018:1145   */\n    tag_59:\n        /* \"#utility.yul\":1079:1089   */\n      0x4e487b71\n        /* \"#utility.yul\":1074:1077   */\n      0xe0\n        /* \"#utility.yul\":1070:1090   */\n      shl\n        /* \"#utility.yul\":1067:1068   */\n      0x00\n        /* \"#utility.yul\":1060:1091   */\n      mstore\n        /* \"#utility.yul\":1110:1114   */\n      0x32\n        /* \"#utility.yul\":1107:1108   */\n      0x04\n        /* \"#utility.yul\":1100:1115   */\n      mstore\n        /* \"#utility.yul\":1134:1138   */\n      0x24\n        /* \"#utility.yul\":1131:1132   */\n      0x00\n        /* \"#utility.yul\":1124:1139   */\n      revert\n        /* \"#utility.yul\":1282:1409   */\n    tag_79:\n        /* \"#utility.yul\":1343:1353   */\n      0x4e487b71\n        /* \"#utility.yul\":1338:1341   */\n      0xe0\n        /* \"#utility.yul\":1334:1354   */\n      shl\n        /* \"#utility.yul\":1331:1332   */\n      0x00\n        /* \"#utility.yul\":1324:1355   */\n      mstore\n        /* \"#utility.yul\":1374:1378   */\n      0x31\n        /* \"#utility.yul\":1371:1372   */\n      0x04\n        /* \"#utility.yul\":1364:1379   */\n      mstore\n        /* \"#utility.yul\":1398:1402   */\n      0x24\n        /* \"#utility.yul\":1395:1396   */\n      0x00\n        /* \"#utility.yul\":1388:1403   */\n      revert\n\n    auxdata: 0xa2646970667358221220d68557cc2102ae93689b4e86a3eb345a9c4da3727c88ca04846cc9373d54b79b64736f6c63430008130033\n}\n",
				"bytecode": {
					"linkReferences": {},
					"object": "60e060405260016080818152600260a052600360c0819052610022929190610035565b5034801561002f57600080fd5b5061009a565b828054828255906000526020600020908101928215610075579160200282015b82811115610075578251829060ff16905591602001919060010190610055565b50610081929150610085565b5090565b5b808211156100815760008155600101610086565b61039e806100a96000396000f3fe608060405234801561001057600080fd5b506004361061009e5760003560e01c806361bb02301161006657806361bb0230146101125780639507d39a14610125578063959ac48414610138578063a4ece52c14610178578063be1c766b1461018057600080fd5b806317382a20146100a357806338a067ce146100c15780633e891ee3146100e25780634cc82215146100f557806354353f2f1461010a575b600080fd5b6100ab610188565b6040516100b891906102df565b60405180910390f35b6100d46100cf366004610323565b6101e0565b6040519081526020016100b8565b6100d46100f0366004610323565b6101f7565b610108610103366004610323565b610218565b005b610108610239565b6100d4610120366004610323565b610280565b6100d4610133366004610323565b610290565b610108610146366004610323565b600080546001810182559080527f290decd9548b62a8d60345a988386fc84ba6bc95484008f6362f93160ef3e5630155565b6101086102b6565b6000546100d4565b606060008054806020026020016040519081016040528092919081815260200182805480156101d657602002820191906000526020600020905b8154815260200190600101908083116101c2575b5050505050905090565b600281600a81106101f057600080fd5b0154905081565b6001818154811061020757600080fd5b600091825260209091200154905081565b6000818154811061022b5761022b61033c565b600091825260208220015550565b60408051600380825260808201909252600091602082016060803683370190505090506001816000815181106102715761027161033c565b60200260200101818152505050565b6000818154811061020757600080fd5b60008082815481106102a4576102a461033c565b90600052602060002001549050919050565b60008054806102c7576102c7610352565b60019003818190600052602060002001600090559055565b6020808252825182820181905260009190848201906040850190845b81811015610317578351835292840192918401916001016102fb565b50909695505050505050565b60006020828403121561033557600080fd5b5035919050565b634e487b7160e01b600052603260045260246000fd5b634e487b7160e01b600052603160045260246000fdfea2646970667358221220d68557cc2102ae93689b4e86a3eb345a9c4da3727c88ca04846cc9373d54b79b64736f6c63430008130033",
					"opcodes": "PUSH1 0xE0 PUSH1 0x40 MSTORE PUSH1 0x1 PUSH1 0x80 DUP2 DUP2 MSTORE PUSH1 0x2 PUSH1 0xA0 MSTORE PUSH1 0x3 PUSH1 0xC0 DUP2 SWAP1 MSTORE PUSH2 0x22 SWAP3 SWAP2 SWAP1 PUSH2 0x35 JUMP JUMPDEST POP CALLVALUE DUP1 ISZERO PUSH2 0x2F JUMPI PUSH1 0x0 DUP1 REVERT JUMPDEST POP PUSH2 0x9A JUMP JUMPDEST DUP3 DUP1 SLOAD DUP3 DUP3 SSTORE SWAP1 PUSH1 0x0 MSTORE PUSH1 0x20 PUSH1 0x0 KECCAK256 SWAP1 DUP2 ADD SWAP3 DUP3 ISZERO PUSH2 0x75 JUMPI SWAP2 PUSH1 0x20 MUL DUP3 ADD JUMPDEST DUP3 DUP2 GT ISZERO PUSH2 0x75 JUMPI DUP3 MLOAD DUP3 SWAP1 PUSH1 0xFF AND SWAP1 SSTORE SWAP2 PUSH1 0x20 ADD SWAP2 SWAP1 PUSH1 0x1 ADD SWAP1 PUSH2 0x55 JUMP JUMPDEST POP PUSH2 0x81 SWAP3 SWAP2 POP PUSH2 0x85 JUMP JUMPDEST POP SWAP1 JUMP JUMPDEST JUMPDEST DUP1 DUP3 GT ISZERO PUSH2 0x81 JUMPI PUSH1 0x0 DUP2 SSTORE PUSH1 0x1 ADD PUSH2 0x86 JUMP JUMPDEST PUSH2 0x39E DUP1 PUSH2 0xA9 PUSH1 0x0 CODECOPY PUSH1 0x0 RETURN INVALID PUSH1 0x80 PUSH1 0x40 MSTORE CALLVALUE DUP1 ISZERO PUSH2 0x10 JUMPI PUSH1 0x0 DUP1 REVERT JUMPDEST POP PUSH1 0x4 CALLDATASIZE LT PUSH2 0x9E JUMPI PUSH1 0x0 CALLDATALOAD PUSH1 0xE0 SHR DUP1 PUSH4 0x61BB0230 GT PUSH2 0x66 JUMPI DUP1 PUSH4 0x61BB0230 EQ PUSH2 0x112 JUMPI DUP1 PUSH4 0x9507D39A EQ PUSH2 0x125 JUMPI DUP1 PUSH4 0x959AC484 EQ PUSH2 0x138 JUMPI DUP1 PUSH4 0xA4ECE52C EQ PUSH2 0x178 JUMPI DUP1 PUSH4 0xBE1C766B EQ PUSH2 0x180 JUMPI PUSH1 0x0 DUP1 REVERT JUMPDEST DUP1 PUSH4 0x17382A20 EQ PUSH2 0xA3 JUMPI DUP1 PUSH4 0x38A067CE EQ PUSH2 0xC1 JUMPI DUP1 PUSH4 0x3E891EE3 EQ PUSH2 0xE2 JUMPI DUP1 PUSH4 0x4CC82215 EQ PUSH2 0xF5 JUMPI DUP1 PUSH4 0x54353F2F EQ PUSH2 0x10A JUMPI JUMPDEST PUSH1 0x0 DUP1 REVERT JUMPDEST PUSH2 0xAB PUSH2 0x188 JUMP JUMPDEST PUSH1 0x40 MLOAD PUSH2 0xB8 SWAP2 SWAP1 PUSH2 0x2DF JUMP JUMPDEST PUSH1 0x40 MLOAD DUP1 SWAP2 SUB SWAP1 RETURN JUMPDEST PUSH2 0xD4 PUSH2 0xCF CALLDATASIZE PUSH1 0x4 PUSH2 0x323 JUMP JUMPDEST PUSH2 0x1E0 JUMP JUMPDEST PUSH1 0x40 MLOAD SWAP1 DUP2 MSTORE PUSH1 0x20 ADD PUSH2 0xB8 JUMP JUMPDEST PUSH2 0xD4 PUSH2 0xF0 CALLDATASIZE PUSH1 0x4 PUSH2 0x323 JUMP JUMPDEST PUSH2 0x1F7 JUMP JUMPDEST PUSH2 0x108 PUSH2 0x103 CALLDATASIZE PUSH1 0x4 PUSH2 0x323 JUMP JUMPDEST PUSH2 0x218 JUMP JUMPDEST STOP JUMPDEST PUSH2 0x108 PUSH2 0x239 JUMP JUMPDEST PUSH2 0xD4 PUSH2 0x120 CALLDATASIZE PUSH1 0x4 PUSH2 0x323 JUMP JUMPDEST PUSH2 0x280 JUMP JUMPDEST PUSH2 0xD4 PUSH2 0x133 CALLDATASIZE PUSH1 0x4 PUSH2 0x323 JUMP JUMPDEST PUSH2 0x290 JUMP JUMPDEST PUSH2 0x108 PUSH2 0x146 CALLDATASIZE PUSH1 0x4 PUSH2 0x323 JUMP JUMPDEST PUSH1 0x0 DUP1 SLOAD PUSH1 0x1 DUP2 ADD DUP3 SSTORE SWAP1 DUP1 MSTORE PUSH32 0x290DECD9548B62A8D60345A988386FC84BA6BC95484008F6362F93160EF3E563 ADD SSTORE JUMP JUMPDEST PUSH2 0x108 PUSH2 0x2B6 JUMP JUMPDEST PUSH1 0x0 SLOAD PUSH2 0xD4 JUMP JUMPDEST PUSH1 0x60 PUSH1 0x0 DUP1 SLOAD DUP1 PUSH1 0x20 MUL PUSH1 0x20 ADD PUSH1 0x40 MLOAD SWAP1 DUP2 ADD PUSH1 0x40 MSTORE DUP1 SWAP3 SWAP2 SWAP1 DUP2 DUP2 MSTORE PUSH1 0x20 ADD DUP3 DUP1 SLOAD DUP1 ISZERO PUSH2 0x1D6 JUMPI PUSH1 0x20 MUL DUP3 ADD SWAP2 SWAP1 PUSH1 0x0 MSTORE PUSH1 0x20 PUSH1 0x0 KECCAK256 SWAP1 JUMPDEST DUP2 SLOAD DUP2 MSTORE PUSH1 0x20 ADD SWAP1 PUSH1 0x1 ADD SWAP1 DUP1 DUP4 GT PUSH2 0x1C2 JUMPI JUMPDEST POP POP POP POP POP SWAP1 POP SWAP1 JUMP JUMPDEST PUSH1 0x2 DUP2 PUSH1 0xA DUP2 LT PUSH2 0x1F0 JUMPI PUSH1 0x0 DUP1 REVERT JUMPDEST ADD SLOAD SWAP1 POP DUP2 JUMP JUMPDEST PUSH1 0x1 DUP2 DUP2 SLOAD DUP2 LT PUSH2 0x207 JUMPI PUSH1 0x0 DUP1 REVERT JUMPDEST PUSH1 0x0 SWAP2 DUP3 MSTORE PUSH1 0x20 SWAP1 SWAP2 KECCAK256 ADD SLOAD SWAP1 POP DUP2 JUMP JUMPDEST PUSH1 0x0 DUP2 DUP2 SLOAD DUP2 LT PUSH2 0x22B JUMPI PUSH2 0x22B PUSH2 0x33C JUMP JUMPDEST PUSH1 0x0 SWAP2 DUP3 MSTORE PUSH1 0x20 DUP3 KECCAK256 ADD SSTORE POP JUMP JUMPDEST PUSH1 0x40 DUP1 MLOAD PUSH1 0x3 DUP1 DUP3 MSTORE PUSH1 0x80 DUP3 ADD SWAP1 SWAP3 MSTORE PUSH1 0x0 SWAP2 PUSH1 0x20 DUP3 ADD PUSH1 0x60 DUP1 CALLDATASIZE DUP4 CALLDATACOPY ADD SWAP1 POP POP SWAP1 POP PUSH1 0x1 DUP2 PUSH1 0x0 DUP2 MLOAD DUP2 LT PUSH2 0x271 JUMPI PUSH2 0x271 PUSH2 0x33C JUMP JUMPDEST PUSH1 0x20 MUL PUSH1 0x20 ADD ADD DUP2 DUP2 MSTORE POP POP POP JUMP JUMPDEST PUSH1 0x0 DUP2 DUP2 SLOAD DUP2 LT PUSH2 0x207 JUMPI PUSH1 0x0 DUP1 REVERT JUMPDEST PUSH1 0x0 DUP1 DUP3 DUP2 SLOAD DUP2 LT PUSH2 0x2A4 JUMPI PUSH2 0x2A4 PUSH2 0x33C JUMP JUMPDEST SWAP1 PUSH1 0x0 MSTORE PUSH1 0x20 PUSH1 0x0 KECCAK256 ADD SLOAD SWAP1 POP SWAP2 SWAP1 POP JUMP JUMPDEST PUSH1 0x0 DUP1 SLOAD DUP1 PUSH2 0x2C7 JUMPI PUSH2 0x2C7 PUSH2 0x352 JUMP JUMPDEST PUSH1 0x1 SWAP1 SUB DUP2 DUP2 SWAP1 PUSH1 0x0 MSTORE PUSH1 0x20 PUSH1 0x0 KECCAK256 ADD PUSH1 0x0 SWAP1 SSTORE SWAP1 SSTORE JUMP JUMPDEST PUSH1 0x20 DUP1 DUP3 MSTORE DUP3 MLOAD DUP3 DUP3 ADD DUP2 SWAP1 MSTORE PUSH1 0x0 SWAP2 SWAP1 DUP5 DUP3 ADD SWAP1 PUSH1 0x40 DUP6 ADD SWAP1 DUP5 JUMPDEST DUP2 DUP2 LT ISZERO PUSH2 0x317 JUMPI DUP4 MLOAD DUP4 MSTORE SWAP3 DUP5 ADD SWAP3 SWAP2 DUP5 ADD SWAP2 PUSH1 0x1 ADD PUSH2 0x2FB JUMP JUMPDEST POP SWAP1 SWAP7 SWAP6 POP POP POP POP POP POP JUMP JUMPDEST PUSH1 0x0 PUSH1 0x20 DUP3 DUP5 SUB SLT ISZERO PUSH2 0x335 JUMPI PUSH1 0x0 DUP1 REVERT JUMPDEST POP CALLDATALOAD SWAP2 SWAP1 POP JUMP JUMPDEST PUSH4 0x4E487B71 PUSH1 0xE0 SHL PUSH1 0x0 MSTORE PUSH1 0x32 PUSH1 0x4 MSTORE PUSH1 0x24 PUSH1 0x0 REVERT JUMPDEST PUSH4 0x4E487B71 PUSH1 0xE0 SHL PUSH1 0x0 MSTORE PUSH1 0x31 PUSH1 0x4 MSTORE PUSH1 0x24 PUSH1 0x0 REVERT INVALID LOG2 PUSH5 0x6970667358 0x22 SLT KECCAK256 0xD6 DUP6 JUMPI 0xCC 0x21 MUL 0xAE SWAP4 PUSH9 0x9B4E86A3EB345A9C4D LOG3 PUSH19 0x7C88CA04846CC9373D54B79B64736F6C634300 ADDMOD SGT STOP CALLER "
				},
				"gasEstimates": {
					"creation": {
						"codeDepositCost": "185200",
						"executionCost": "infinite",
						"totalCost": "infinite"
					},
					"external": {
						"arrs(uint256)": "4575",
						"arrs2(uint256)": "4620",
						"example()": "410",
						"get(uint256)": "4599",
						"getArrs()": "infinite",
						"getLength()": "2380",
						"myFixedSizeArr(uint256)": "2441",
						"pop()": "29511",
						"push(uint256)": "46586",
						"remove(uint256)": "7476"
					}
				},
				"methodIdentifiers": {
					"arrs(uint256)": "61bb0230",
					"arrs2(uint256)": "3e891ee3",
					"example()": "54353f2f",
					"get(uint256)": "9507d39a",
					"getArrs()": "17382a20",
					"getLength()": "be1c766b",
					"myFixedSizeArr(uint256)": "38a067ce",
					"pop()": "a4ece52c",
					"push(uint256)": "959ac484",
					"remove(uint256)": "4cc82215"
				}
			},
			"storageLayout": {
				"storage": [
					{
						"astId": 4,
						"contract": "contracts/case/Array.sol:Array",
						"label": "arrs",
						"offset": 0,
						"slot": "0",
						"type": "t_array(t_uint256)dyn_storage"
					},
					{
						"astId": 11,
						"contract": "contracts/case/Array.sol:Array",
						"label": "arrs2",
						"offset": 0,
						"slot": "1",
						"type": "t_array(t_uint256)dyn_storage"
					},
					{
						"astId": 15,
						"contract": "contracts/case/Array.sol:Array",
						"label": "myFixedSizeArr",
						"offset": 0,
						"slot": "2",
						"type": "t_array(t_uint256)10_storage"
					}
				],
				"types": {
					"t_array(t_uint256)10_storage": {
						"base": "t_uint256",
						"encoding": "inplace",
						"label": "uint256[10]",
						"numberOfBytes": "320"
					},
					"t_array(t_uint256)dyn_storage": {
						"base": "t_uint256",
						"encoding": "dynamic_array",
						"label": "uint256[]",
						"numberOfBytes": "32"
					},
					"t_uint256": {
						"encoding": "inplace",
						"label": "uint256",
						"numberOfBytes": "32"
					}
				}
			},
			"userdoc": {
				"kind": "user",
				"methods": {},
				"version": 1
			}
		}
	}
}