{
	"contracts/case/TransientStorage.sol": {
		"TestStorage": {
			"abi": [
				{
					"inputs": [],
					"name": "test",
					"outputs": [],
					"stateMutability": "nonpayable",
					"type": "function"
				},
				{
					"inputs": [],
					"name": "val",
					"outputs": [
						{
							"internalType": "uint256",
							"name": "",
							"type": "uint256"
						}
					],
					"stateMutability": "view",
					"type": "function"
				}
			],
			"devdoc": {
				"kind": "dev",
				"methods": {},
				"version": 1
			},
			"evm": {
				"assembly": "    /* \"contracts/case/TransientStorage.sol\":565:733  contract TestStorage {... */\n  mstore(0x40, 0x80)\n  callvalue\n  dup1\n  iszero\n  tag_1\n  jumpi\n  0x00\n  dup1\n  revert\ntag_1:\n  pop\n  dataSize(sub_0)\n  dup1\n  dataOffset(sub_0)\n  0x00\n  codecopy\n  0x00\n  return\nstop\n\nsub_0: assembly {\n        /* \"contracts/case/TransientStorage.sol\":565:733  contract TestStorage {... */\n      mstore(0x40, 0x80)\n      callvalue\n      dup1\n      iszero\n      tag_1\n      jumpi\n      0x00\n      dup1\n      revert\n    tag_1:\n      pop\n      jumpi(tag_2, lt(calldatasize, 0x04))\n      shr(0xe0, calldataload(0x00))\n      dup1\n      0x3c6bb436\n      eq\n      tag_3\n      jumpi\n      dup1\n      0xf8a8fd6d\n      eq\n      tag_4\n      jumpi\n    tag_2:\n      0x00\n      dup1\n      revert\n        /* \"contracts/case/TransientStorage.sol\":593:611  uint256 public val */\n    tag_3:\n      tag_5\n      sload(0x00)\n      dup2\n      jump\n    tag_5:\n      mload(0x40)\n        /* \"#utility.yul\":160:185   */\n      swap1\n      dup2\n      mstore\n        /* \"#utility.yul\":148:150   */\n      0x20\n        /* \"#utility.yul\":133:151   */\n      add\n        /* \"contracts/case/TransientStorage.sol\":593:611  uint256 public val */\n      mload(0x40)\n      dup1\n      swap2\n      sub\n      swap1\n      return\n        /* \"contracts/case/TransientStorage.sol\":620:730  function test() public {... */\n    tag_4:\n      tag_9\n      tag_10\n      jump\t// in\n    tag_9:\n      stop\n    tag_10:\n        /* \"contracts/case/TransientStorage.sol\":660:663  123 */\n      0x7b\n        /* \"contracts/case/TransientStorage.sol\":654:657  val */\n      0x00\n        /* \"contracts/case/TransientStorage.sol\":654:663  val = 123 */\n      swap1\n      dup2\n      sstore\n        /* \"contracts/case/TransientStorage.sol\":674:693  bytes memory b = \"\" */\n      0x40\n      dup1\n      mload\n      0x20\n      dup2\n      add\n      dup3\n      mstore\n      swap2\n      dup3\n      mstore\n        /* \"contracts/case/TransientStorage.sol\":704:722  msg.sender.call(b) */\n      mload\n        /* \"contracts/case/TransientStorage.sol\":704:714  msg.sender */\n      caller\n      swap1\n        /* \"contracts/case/TransientStorage.sol\":704:722  msg.sender.call(b) */\n      tag_12\n      swap1\n        /* \"contracts/case/TransientStorage.sol\":674:693  bytes memory b = \"\" */\n      dup4\n      swap1\n        /* \"contracts/case/TransientStorage.sol\":704:722  msg.sender.call(b) */\n      tag_13\n      jump\t// in\n    tag_12:\n      0x00\n      mload(0x40)\n      dup1\n      dup4\n      sub\n      dup2\n      0x00\n      dup7\n      gas\n      call\n      swap2\n      pop\n      pop\n      returndatasize\n      dup1\n      0x00\n      dup2\n      eq\n      tag_16\n      jumpi\n      mload(0x40)\n      swap2\n      pop\n      and(add(returndatasize, 0x3f), not(0x1f))\n      dup3\n      add\n      0x40\n      mstore\n      returndatasize\n      dup3\n      mstore\n      returndatasize\n      0x00\n      0x20\n      dup5\n      add\n      returndatacopy\n      jump(tag_15)\n    tag_16:\n      0x60\n      swap2\n      pop\n    tag_15:\n      pop\n      pop\n      pop\n        /* \"contracts/case/TransientStorage.sol\":643:730  {... */\n      pop\n        /* \"contracts/case/TransientStorage.sol\":620:730  function test() public {... */\n      jump\t// out\n        /* \"#utility.yul\":196:608   */\n    tag_13:\n        /* \"#utility.yul\":325:328   */\n      0x00\n        /* \"#utility.yul\":363:369   */\n      dup3\n        /* \"#utility.yul\":357:370   */\n      mload\n        /* \"#utility.yul\":388:389   */\n      0x00\n        /* \"#utility.yul\":398:527   */\n    tag_20:\n        /* \"#utility.yul\":412:418   */\n      dup2\n        /* \"#utility.yul\":409:410   */\n      dup2\n        /* \"#utility.yul\":406:419   */\n      lt\n        /* \"#utility.yul\":398:527   */\n      iszero\n      tag_22\n      jumpi\n        /* \"#utility.yul\":510:514   */\n      0x20\n        /* \"#utility.yul\":494:508   */\n      dup2\n      dup7\n      add\n        /* \"#utility.yul\":490:515   */\n      dup2\n      add\n        /* \"#utility.yul\":484:516   */\n      mload\n        /* \"#utility.yul\":471:482   */\n      dup6\n      dup4\n      add\n        /* \"#utility.yul\":464:517   */\n      mstore\n        /* \"#utility.yul\":427:439   */\n      add\n        /* \"#utility.yul\":398:527   */\n      jump(tag_20)\n    tag_22:\n      pop\n        /* \"#utility.yul\":582:583   */\n      0x00\n        /* \"#utility.yul\":546:562   */\n      swap3\n      add\n        /* \"#utility.yul\":571:584   */\n      swap2\n      dup3\n      mstore\n      pop\n        /* \"#utility.yul\":546:562   */\n      swap2\n        /* \"#utility.yul\":196:608   */\n      swap1\n      pop\n      jump\t// out\n\n    auxdata: 0xa26469706673582212208553efccea86b18d5b3cf49fe650db2889a55d109e1daba963f7e19f04652d8864736f6c63430008130033\n}\n",
				"bytecode": {
					"linkReferences": {},
					"object": "608060405234801561001057600080fd5b50610122806100206000396000f3fe6080604052348015600f57600080fd5b506004361060325760003560e01c80633c6bb436146037578063f8a8fd6d146051575b600080fd5b603f60005481565b60405190815260200160405180910390f35b60576059565b005b607b600090815560408051602081018252918252513390607990839060bf565b6000604051808303816000865af19150503d806000811460b4576040519150601f19603f3d011682016040523d82523d6000602084013e60b9565b606091505b50505050565b6000825160005b8181101560de576020818601810151858301520160c6565b50600092019182525091905056fea26469706673582212208553efccea86b18d5b3cf49fe650db2889a55d109e1daba963f7e19f04652d8864736f6c63430008130033",
					"opcodes": "PUSH1 0x80 PUSH1 0x40 MSTORE CALLVALUE DUP1 ISZERO PUSH2 0x10 JUMPI PUSH1 0x0 DUP1 REVERT JUMPDEST POP PUSH2 0x122 DUP1 PUSH2 0x20 PUSH1 0x0 CODECOPY PUSH1 0x0 RETURN INVALID PUSH1 0x80 PUSH1 0x40 MSTORE CALLVALUE DUP1 ISZERO PUSH1 0xF JUMPI PUSH1 0x0 DUP1 REVERT JUMPDEST POP PUSH1 0x4 CALLDATASIZE LT PUSH1 0x32 JUMPI PUSH1 0x0 CALLDATALOAD PUSH1 0xE0 SHR DUP1 PUSH4 0x3C6BB436 EQ PUSH1 0x37 JUMPI DUP1 PUSH4 0xF8A8FD6D EQ PUSH1 0x51 JUMPI JUMPDEST PUSH1 0x0 DUP1 REVERT JUMPDEST PUSH1 0x3F PUSH1 0x0 SLOAD DUP2 JUMP JUMPDEST PUSH1 0x40 MLOAD SWAP1 DUP2 MSTORE PUSH1 0x20 ADD PUSH1 0x40 MLOAD DUP1 SWAP2 SUB SWAP1 RETURN JUMPDEST PUSH1 0x57 PUSH1 0x59 JUMP JUMPDEST STOP JUMPDEST PUSH1 0x7B PUSH1 0x0 SWAP1 DUP2 SSTORE PUSH1 0x40 DUP1 MLOAD PUSH1 0x20 DUP2 ADD DUP3 MSTORE SWAP2 DUP3 MSTORE MLOAD CALLER SWAP1 PUSH1 0x79 SWAP1 DUP4 SWAP1 PUSH1 0xBF JUMP JUMPDEST PUSH1 0x0 PUSH1 0x40 MLOAD DUP1 DUP4 SUB DUP2 PUSH1 0x0 DUP7 GAS CALL SWAP2 POP POP RETURNDATASIZE DUP1 PUSH1 0x0 DUP2 EQ PUSH1 0xB4 JUMPI PUSH1 0x40 MLOAD SWAP2 POP PUSH1 0x1F NOT PUSH1 0x3F RETURNDATASIZE ADD AND DUP3 ADD PUSH1 0x40 MSTORE RETURNDATASIZE DUP3 MSTORE RETURNDATASIZE PUSH1 0x0 PUSH1 0x20 DUP5 ADD RETURNDATACOPY PUSH1 0xB9 JUMP JUMPDEST PUSH1 0x60 SWAP2 POP JUMPDEST POP POP POP POP JUMP JUMPDEST PUSH1 0x0 DUP3 MLOAD PUSH1 0x0 JUMPDEST DUP2 DUP2 LT ISZERO PUSH1 0xDE JUMPI PUSH1 0x20 DUP2 DUP7 ADD DUP2 ADD MLOAD DUP6 DUP4 ADD MSTORE ADD PUSH1 0xC6 JUMP JUMPDEST POP PUSH1 0x0 SWAP3 ADD SWAP2 DUP3 MSTORE POP SWAP2 SWAP1 POP JUMP INVALID LOG2 PUSH5 0x6970667358 0x22 SLT KECCAK256 DUP6 MSTORE8 0xEF 0xCC 0xEA DUP7 0xB1 DUP14 JUMPDEST EXTCODECOPY DELEGATECALL SWAP16 0xE6 POP 0xDB 0x28 DUP10 0xA5 0x5D LT SWAP15 SAR 0xAB 0xA9 PUSH4 0xF7E19F04 PUSH6 0x2D8864736F6C PUSH4 0x43000813 STOP CALLER "
				},
				"gasEstimates": {
					"creation": {
						"codeDepositCost": "58000",
						"executionCost": "111",
						"totalCost": "58111"
					},
					"external": {
						"test()": "infinite",
						"val()": "2261"
					}
				},
				"methodIdentifiers": {
					"test()": "f8a8fd6d",
					"val()": "3c6bb436"
				}
			},
			"storageLayout": {
				"storage": [
					{
						"astId": 40,
						"contract": "contracts/case/TransientStorage.sol:TestStorage",
						"label": "val",
						"offset": 0,
						"slot": "0",
						"type": "t_uint256"
					}
				],
				"types": {
					"t_uint256": {
						"encoding": "inplace",
						"label": "uint256",
						"numberOfBytes": "32"
					}
				}
			},
			"userdoc": {
				"kind": "user",
				"methods": {},
				"version": 1
			}
		}
	}
}