{
	"contracts/case/TransientStorage.sol": {
		"ReentrancyGuardTransient": {
			"abi": [
				{
					"inputs": [
						{
							"internalType": "uint256",
							"name": "x",
							"type": "uint256"
						}
					],
					"name": "set",
					"outputs": [],
					"stateMutability": "nonpayable",
					"type": "function"
				},
				{
					"inputs": [],
					"name": "test",
					"outputs": [],
					"stateMutability": "nonpayable",
					"type": "function"
				},
				{
					"inputs": [],
					"name": "val",
					"outputs": [
						{
							"internalType": "uint256",
							"name": "v",
							"type": "uint256"
						}
					],
					"stateMutability": "view",
					"type": "function"
				}
			],
			"devdoc": {
				"kind": "dev",
				"methods": {},
				"version": 1
			},
			"evm": {
				"assembly": "    /* \"contracts/case/TransientStorage.sol\":1728:2406  contract ReentrancyGuardTransient {... */\n  mstore(0x40, 0x80)\n  callvalue\n  dup1\n  iszero\n  tag_1\n  jumpi\n  0x00\n  dup1\n  revert\ntag_1:\n  pop\n  dataSize(sub_0)\n  dup1\n  dataOffset(sub_0)\n  0x00\n  codecopy\n  0x00\n  return\nstop\n\nsub_0: assembly {\n        /* \"contracts/case/TransientStorage.sol\":1728:2406  contract ReentrancyGuardTransient {... */\n      mstore(0x40, 0x80)\n      callvalue\n      dup1\n      iszero\n      tag_1\n      jumpi\n      0x00\n      dup1\n      revert\n    tag_1:\n      pop\n      jumpi(tag_2, lt(calldatasize, 0x04))\n      shr(0xe0, calldataload(0x00))\n      dup1\n      0x3c6bb436\n      eq\n      tag_3\n      jumpi\n      dup1\n      0x60fe47b1\n      eq\n      tag_4\n      jumpi\n      dup1\n      0xf8a8fd6d\n      eq\n      tag_5\n      jumpi\n    tag_2:\n      0x00\n      dup1\n      revert\n        /* \"contracts/case/TransientStorage.sol\":2135:2250  function val() public view returns (uint v) {... */\n    tag_3:\n        /* \"contracts/case/TransientStorage.sol\":2171:2177  uint v */\n      0x00\n        /* \"contracts/case/TransientStorage.sol\":2219:2232  sload(b.slot) */\n      sload\n        /* \"contracts/case/TransientStorage.sol\":2135:2250  function val() public view returns (uint v) {... */\n      mload(0x40)\n        /* \"#utility.yul\":160:185   */\n      swap1\n      dup2\n      mstore\n        /* \"#utility.yul\":148:150   */\n      0x20\n        /* \"#utility.yul\":133:151   */\n      add\n        /* \"contracts/case/TransientStorage.sol\":2135:2250  function val() public view returns (uint v) {... */\n      mload(0x40)\n      dup1\n      swap2\n      sub\n      swap1\n      return\n        /* \"contracts/case/TransientStorage.sol\":2029:2127  function set(uint x) public {... */\n    tag_4:\n      tag_10\n      tag_11\n      calldatasize\n      0x04\n      tag_12\n      jump\t// in\n    tag_11:\n        /* \"contracts/case/TransientStorage.sol\":2099:2105  b.slot */\n      0x00\n        /* \"contracts/case/TransientStorage.sol\":2092:2109  sstore(b.slot, x) */\n      sstore\n        /* \"contracts/case/TransientStorage.sol\":2029:2127  function set(uint x) public {... */\n      jump\n    tag_10:\n      stop\n        /* \"contracts/case/TransientStorage.sol\":2276:2403  function test() external lock {... */\n    tag_5:\n      tag_10\n        /* \"contracts/case/TransientStorage.sol\":1842:1848  b.slot */\n      0x00\n        /* \"contracts/case/TransientStorage.sol\":1836:1849  sload(b.slot) */\n      sload\n        /* \"contracts/case/TransientStorage.sol\":1833:1898  if sload(b.slot) { ... */\n      iszero\n      tag_19\n      jumpi\n        /* \"contracts/case/TransientStorage.sol\":1880:1881  0 */\n      0x00\n        /* \"contracts/case/TransientStorage.sol\":1877:1878  0 */\n      dup1\n        /* \"contracts/case/TransientStorage.sol\":1870:1882  revert(0, 0) */\n      revert\n        /* \"contracts/case/TransientStorage.sol\":1833:1898  if sload(b.slot) { ... */\n    tag_19:\n        /* \"contracts/case/TransientStorage.sol\":1927:1928  1 */\n      0x01\n        /* \"contracts/case/TransientStorage.sol\":1919:1925  b.slot */\n      0x00\n        /* \"contracts/case/TransientStorage.sol\":1912:1929  sstore(b.slot, 1) */\n      swap1\n      dup2\n      sstore\n        /* \"contracts/case/TransientStorage.sol\":2347:2366  bytes memory b = \"\" */\n      0x40\n      dup1\n      mload\n      0x20\n      dup2\n      add\n      dup3\n      mstore\n      swap2\n      dup3\n      mstore\n        /* \"contracts/case/TransientStorage.sol\":2377:2395  msg.sender.call(b) */\n      mload\n        /* \"contracts/case/TransientStorage.sol\":2377:2387  msg.sender */\n      caller\n      swap1\n        /* \"contracts/case/TransientStorage.sol\":2377:2395  msg.sender.call(b) */\n      tag_21\n      swap1\n        /* \"contracts/case/TransientStorage.sol\":2347:2366  bytes memory b = \"\" */\n      dup4\n      swap1\n        /* \"contracts/case/TransientStorage.sol\":2377:2395  msg.sender.call(b) */\n      tag_22\n      jump\t// in\n    tag_21:\n      0x00\n      mload(0x40)\n      dup1\n      dup4\n      sub\n      dup2\n      0x00\n      dup7\n      gas\n      call\n      swap2\n      pop\n      pop\n      returndatasize\n      dup1\n      0x00\n      dup2\n      eq\n      tag_25\n      jumpi\n      mload(0x40)\n      swap2\n      pop\n      and(add(returndatasize, 0x3f), not(0x1f))\n      dup3\n      add\n      0x40\n      mstore\n      returndatasize\n      dup3\n      mstore\n      returndatasize\n      0x00\n      0x20\n      dup5\n      add\n      returndatacopy\n      jump(tag_24)\n    tag_25:\n      0x60\n      swap2\n      pop\n    tag_24:\n      pop\n      pop\n      pop\n        /* \"contracts/case/TransientStorage.sol\":2306:2403  {... */\n      pop\n        /* \"contracts/case/TransientStorage.sol\":2001:2002  0 */\n      0x00\n        /* \"contracts/case/TransientStorage.sol\":1993:1999  b.slot */\n      dup1\n        /* \"contracts/case/TransientStorage.sol\":1986:2003  sstore(b.slot, 0) */\n      sstore\n        /* \"contracts/case/TransientStorage.sol\":2276:2403  function test() external lock {... */\n      jump\t// out\n        /* \"#utility.yul\":196:376   */\n    tag_12:\n        /* \"#utility.yul\":255:261   */\n      0x00\n        /* \"#utility.yul\":308:310   */\n      0x20\n        /* \"#utility.yul\":296:305   */\n      dup3\n        /* \"#utility.yul\":287:294   */\n      dup5\n        /* \"#utility.yul\":283:306   */\n      sub\n        /* \"#utility.yul\":279:311   */\n      slt\n        /* \"#utility.yul\":276:328   */\n      iszero\n      tag_29\n      jumpi\n        /* \"#utility.yul\":324:325   */\n      0x00\n        /* \"#utility.yul\":321:322   */\n      dup1\n        /* \"#utility.yul\":314:326   */\n      revert\n        /* \"#utility.yul\":276:328   */\n    tag_29:\n      pop\n        /* \"#utility.yul\":347:370   */\n      calldataload\n      swap2\n        /* \"#utility.yul\":196:376   */\n      swap1\n      pop\n      jump\t// out\n        /* \"#utility.yul\":381:793   */\n    tag_22:\n        /* \"#utility.yul\":510:513   */\n      0x00\n        /* \"#utility.yul\":548:554   */\n      dup3\n        /* \"#utility.yul\":542:555   */\n      mload\n        /* \"#utility.yul\":573:574   */\n      0x00\n        /* \"#utility.yul\":583:712   */\n    tag_31:\n        /* \"#utility.yul\":597:603   */\n      dup2\n        /* \"#utility.yul\":594:595   */\n      dup2\n        /* \"#utility.yul\":591:604   */\n      lt\n        /* \"#utility.yul\":583:712   */\n      iszero\n      tag_33\n      jumpi\n        /* \"#utility.yul\":695:699   */\n      0x20\n        /* \"#utility.yul\":679:693   */\n      dup2\n      dup7\n      add\n        /* \"#utility.yul\":675:700   */\n      dup2\n      add\n        /* \"#utility.yul\":669:701   */\n      mload\n        /* \"#utility.yul\":656:667   */\n      dup6\n      dup4\n      add\n        /* \"#utility.yul\":649:702   */\n      mstore\n        /* \"#utility.yul\":612:624   */\n      add\n        /* \"#utility.yul\":583:712   */\n      jump(tag_31)\n    tag_33:\n      pop\n        /* \"#utility.yul\":767:768   */\n      0x00\n        /* \"#utility.yul\":731:747   */\n      swap3\n      add\n        /* \"#utility.yul\":756:769   */\n      swap2\n      dup3\n      mstore\n      pop\n        /* \"#utility.yul\":731:747   */\n      swap2\n        /* \"#utility.yul\":381:793   */\n      swap1\n      pop\n      jump\t// out\n\n    auxdata: 0xa2646970667358221220aeab1be21b89195a989daab5c51240fd7c14f1b2fe9d3b6b2b5db9a8eaf0da7c64736f6c63430008130033\n}\n",
				"bytecode": {
					"linkReferences": {},
					"object": "608060405234801561001057600080fd5b5061016c806100206000396000f3fe608060405234801561001057600080fd5b50600436106100415760003560e01c80633c6bb4361461004657806360fe47b11461005b578063f8a8fd6d14610070575b600080fd5b60005460405190815260200160405180910390f35b61006e6100693660046100ee565b600055565b005b61006e6000541561008057600080fd5b60016000908155604080516020810182529182525133906100a2908390610107565b6000604051808303816000865af19150503d80600081146100df576040519150601f19603f3d011682016040523d82523d6000602084013e6100e4565b606091505b5050505060008055565b60006020828403121561010057600080fd5b5035919050565b6000825160005b81811015610128576020818601810151858301520161010e565b50600092019182525091905056fea2646970667358221220aeab1be21b89195a989daab5c51240fd7c14f1b2fe9d3b6b2b5db9a8eaf0da7c64736f6c63430008130033",
					"opcodes": "PUSH1 0x80 PUSH1 0x40 MSTORE CALLVALUE DUP1 ISZERO PUSH2 0x10 JUMPI PUSH1 0x0 DUP1 REVERT JUMPDEST POP PUSH2 0x16C DUP1 PUSH2 0x20 PUSH1 0x0 CODECOPY PUSH1 0x0 RETURN INVALID PUSH1 0x80 PUSH1 0x40 MSTORE CALLVALUE DUP1 ISZERO PUSH2 0x10 JUMPI PUSH1 0x0 DUP1 REVERT JUMPDEST POP PUSH1 0x4 CALLDATASIZE LT PUSH2 0x41 JUMPI PUSH1 0x0 CALLDATALOAD PUSH1 0xE0 SHR DUP1 PUSH4 0x3C6BB436 EQ PUSH2 0x46 JUMPI DUP1 PUSH4 0x60FE47B1 EQ PUSH2 0x5B JUMPI DUP1 PUSH4 0xF8A8FD6D EQ PUSH2 0x70 JUMPI JUMPDEST PUSH1 0x0 DUP1 REVERT JUMPDEST PUSH1 0x0 SLOAD PUSH1 0x40 MLOAD SWAP1 DUP2 MSTORE PUSH1 0x20 ADD PUSH1 0x40 MLOAD DUP1 SWAP2 SUB SWAP1 RETURN JUMPDEST PUSH2 0x6E PUSH2 0x69 CALLDATASIZE PUSH1 0x4 PUSH2 0xEE JUMP JUMPDEST PUSH1 0x0 SSTORE JUMP JUMPDEST STOP JUMPDEST PUSH2 0x6E PUSH1 0x0 SLOAD ISZERO PUSH2 0x80 JUMPI PUSH1 0x0 DUP1 REVERT JUMPDEST PUSH1 0x1 PUSH1 0x0 SWAP1 DUP2 SSTORE PUSH1 0x40 DUP1 MLOAD PUSH1 0x20 DUP2 ADD DUP3 MSTORE SWAP2 DUP3 MSTORE MLOAD CALLER SWAP1 PUSH2 0xA2 SWAP1 DUP4 SWAP1 PUSH2 0x107 JUMP JUMPDEST PUSH1 0x0 PUSH1 0x40 MLOAD DUP1 DUP4 SUB DUP2 PUSH1 0x0 DUP7 GAS CALL SWAP2 POP POP RETURNDATASIZE DUP1 PUSH1 0x0 DUP2 EQ PUSH2 0xDF JUMPI PUSH1 0x40 MLOAD SWAP2 POP PUSH1 0x1F NOT PUSH1 0x3F RETURNDATASIZE ADD AND DUP3 ADD PUSH1 0x40 MSTORE RETURNDATASIZE DUP3 MSTORE RETURNDATASIZE PUSH1 0x0 PUSH1 0x20 DUP5 ADD RETURNDATACOPY PUSH2 0xE4 JUMP JUMPDEST PUSH1 0x60 SWAP2 POP JUMPDEST POP POP POP POP PUSH1 0x0 DUP1 SSTORE JUMP JUMPDEST PUSH1 0x0 PUSH1 0x20 DUP3 DUP5 SUB SLT ISZERO PUSH2 0x100 JUMPI PUSH1 0x0 DUP1 REVERT JUMPDEST POP CALLDATALOAD SWAP2 SWAP1 POP JUMP JUMPDEST PUSH1 0x0 DUP3 MLOAD PUSH1 0x0 JUMPDEST DUP2 DUP2 LT ISZERO PUSH2 0x128 JUMPI PUSH1 0x20 DUP2 DUP7 ADD DUP2 ADD MLOAD DUP6 DUP4 ADD MSTORE ADD PUSH2 0x10E JUMP JUMPDEST POP PUSH1 0x0 SWAP3 ADD SWAP2 DUP3 MSTORE POP SWAP2 SWAP1 POP JUMP INVALID LOG2 PUSH5 0x6970667358 0x22 SLT KECCAK256 0xAE 0xAB SHL 0xE2 SHL DUP10 NOT GAS SWAP9 SWAP14 0xAA 0xB5 0xC5 SLT BLOCKHASH REVERT PUSH29 0x14F1B2FE9D3B6B2B5DB9A8EAF0DA7C64736F6C63430008130033000000 "
				},
				"gasEstimates": {
					"creation": {
						"codeDepositCost": "72800",
						"executionCost": "123",
						"totalCost": "72923"
					},
					"external": {
						"set(uint256)": "22312",
						"test()": "infinite",
						"val()": "2246"
					}
				},
				"methodIdentifiers": {
					"set(uint256)": "60fe47b1",
					"test()": "f8a8fd6d",
					"val()": "3c6bb436"
				}
			},
			"storageLayout": {
				"storage": [
					{
						"astId": 127,
						"contract": "contracts/case/TransientStorage.sol:ReentrancyGuardTransient",
						"label": "b",
						"offset": 0,
						"slot": "0",
						"type": "t_uint256"
					}
				],
				"types": {
					"t_uint256": {
						"encoding": "inplace",
						"label": "uint256",
						"numberOfBytes": "32"
					}
				}
			},
			"userdoc": {
				"kind": "user",
				"methods": {},
				"version": 1
			}
		}
	}
}