{
	"contracts/case/TransientStorage.sol": {
		"C": {
			"abi": [
				{
					"inputs": [
						{
							"internalType": "uint256",
							"name": "x",
							"type": "uint256"
						}
					],
					"name": "f",
					"outputs": [
						{
							"internalType": "uint256",
							"name": "r",
							"type": "uint256"
						}
					],
					"stateMutability": "view",
					"type": "function"
				},
				{
					"inputs": [
						{
							"internalType": "uint256",
							"name": "x",
							"type": "uint256"
						}
					],
					"name": "set",
					"outputs": [],
					"stateMutability": "nonpayable",
					"type": "function"
				},
				{
					"inputs": [],
					"name": "val",
					"outputs": [
						{
							"internalType": "uint256",
							"name": "v",
							"type": "uint256"
						}
					],
					"stateMutability": "view",
					"type": "function"
				}
			],
			"devdoc": {
				"kind": "dev",
				"methods": {},
				"version": 1
			},
			"evm": {
				"assembly": "    /* \"contracts/case/TransientStorage.sol\":735:1398  contract C {... */\n  mstore(0x40, 0x80)\n  callvalue\n  dup1\n  iszero\n  tag_1\n  jumpi\n  0x00\n  dup1\n  revert\ntag_1:\n  pop\n  dataSize(sub_0)\n  dup1\n  dataOffset(sub_0)\n  0x00\n  codecopy\n  0x00\n  return\nstop\n\nsub_0: assembly {\n        /* \"contracts/case/TransientStorage.sol\":735:1398  contract C {... */\n      mstore(0x40, 0x80)\n      callvalue\n      dup1\n      iszero\n      tag_1\n      jumpi\n      0x00\n      dup1\n      revert\n    tag_1:\n      pop\n      jumpi(tag_2, lt(calldatasize, 0x04))\n      shr(0xe0, calldataload(0x00))\n      dup1\n      0x3c6bb436\n      eq\n      tag_3\n      jumpi\n      dup1\n      0x60fe47b1\n      eq\n      tag_4\n      jumpi\n      dup1\n      0xb3de648b\n      eq\n      tag_5\n      jumpi\n    tag_2:\n      0x00\n      dup1\n      revert\n        /* \"contracts/case/TransientStorage.sol\":1280:1395  function val() public view returns (uint v) {... */\n    tag_3:\n        /* \"contracts/case/TransientStorage.sol\":1316:1322  uint v */\n      0x00\n        /* \"contracts/case/TransientStorage.sol\":1364:1377  sload(b.slot) */\n      sload\n        /* \"contracts/case/TransientStorage.sol\":1280:1395  function val() public view returns (uint v) {... */\n    tag_6:\n      mload(0x40)\n        /* \"#utility.yul\":160:185   */\n      swap1\n      dup2\n      mstore\n        /* \"#utility.yul\":148:150   */\n      0x20\n        /* \"#utility.yul\":133:151   */\n      add\n        /* \"contracts/case/TransientStorage.sol\":1280:1395  function val() public view returns (uint v) {... */\n      mload(0x40)\n      dup1\n      swap2\n      sub\n      swap1\n      return\n        /* \"contracts/case/TransientStorage.sol\":1176:1274  function set(uint x) public {... */\n    tag_4:\n      tag_10\n      tag_11\n      calldatasize\n      0x04\n      tag_12\n      jump\t// in\n    tag_11:\n        /* \"contracts/case/TransientStorage.sol\":1246:1252  b.slot */\n      0x00\n        /* \"contracts/case/TransientStorage.sol\":1239:1256  sstore(b.slot, x) */\n      sstore\n        /* \"contracts/case/TransientStorage.sol\":1176:1274  function set(uint x) public {... */\n      jump\n    tag_10:\n      stop\n        /* \"contracts/case/TransientStorage.sol\":766:1168  function f(uint x) public view returns (uint r) {... */\n    tag_5:\n      tag_6\n      tag_15\n      calldatasize\n      0x04\n      tag_12\n      jump\t// in\n    tag_15:\n        /* \"contracts/case/TransientStorage.sol\":806:812  uint r */\n      0x00\n        /* \"contracts/case/TransientStorage.sol\":1136:1149  sload(b.slot) */\n      sload\n        /* \"contracts/case/TransientStorage.sol\":1129:1150  mul(x, sload(b.slot)) */\n      mul\n      swap1\n        /* \"contracts/case/TransientStorage.sol\":766:1168  function f(uint x) public view returns (uint r) {... */\n      jump\n        /* \"#utility.yul\":196:376   */\n    tag_12:\n        /* \"#utility.yul\":255:261   */\n      0x00\n        /* \"#utility.yul\":308:310   */\n      0x20\n        /* \"#utility.yul\":296:305   */\n      dup3\n        /* \"#utility.yul\":287:294   */\n      dup5\n        /* \"#utility.yul\":283:306   */\n      sub\n        /* \"#utility.yul\":279:311   */\n      slt\n        /* \"#utility.yul\":276:328   */\n      iszero\n      tag_24\n      jumpi\n        /* \"#utility.yul\":324:325   */\n      0x00\n        /* \"#utility.yul\":321:322   */\n      dup1\n        /* \"#utility.yul\":314:326   */\n      revert\n        /* \"#utility.yul\":276:328   */\n    tag_24:\n      pop\n        /* \"#utility.yul\":347:370   */\n      calldataload\n      swap2\n        /* \"#utility.yul\":196:376   */\n      swap1\n      pop\n      jump\t// out\n\n    auxdata: 0xa26469706673582212208f70274ba978ff5dc3e3e015be5927e0a385ccbbba20038f8e5ba8e164d5dc4664736f6c63430008130033\n}\n",
				"bytecode": {
					"linkReferences": {},
					"object": "608060405234801561001057600080fd5b5060c98061001f6000396000f3fe6080604052348015600f57600080fd5b5060043610603c5760003560e01c80633c6bb43614604157806360fe47b1146057578063b3de648b146069575b600080fd5b6000545b60405190815260200160405180910390f35b60676062366004607b565b600055565b005b60456074366004607b565b6000540290565b600060208284031215608c57600080fd5b503591905056fea26469706673582212208f70274ba978ff5dc3e3e015be5927e0a385ccbbba20038f8e5ba8e164d5dc4664736f6c63430008130033",
					"opcodes": "PUSH1 0x80 PUSH1 0x40 MSTORE CALLVALUE DUP1 ISZERO PUSH2 0x10 JUMPI PUSH1 0x0 DUP1 REVERT JUMPDEST POP PUSH1 0xC9 DUP1 PUSH2 0x1F PUSH1 0x0 CODECOPY PUSH1 0x0 RETURN INVALID PUSH1 0x80 PUSH1 0x40 MSTORE CALLVALUE DUP1 ISZERO PUSH1 0xF JUMPI PUSH1 0x0 DUP1 REVERT JUMPDEST POP PUSH1 0x4 CALLDATASIZE LT PUSH1 0x3C JUMPI PUSH1 0x0 CALLDATALOAD PUSH1 0xE0 SHR DUP1 PUSH4 0x3C6BB436 EQ PUSH1 0x41 JUMPI DUP1 PUSH4 0x60FE47B1 EQ PUSH1 0x57 JUMPI DUP1 PUSH4 0xB3DE648B EQ PUSH1 0x69 JUMPI JUMPDEST PUSH1 0x0 DUP1 REVERT JUMPDEST PUSH1 0x0 SLOAD JUMPDEST PUSH1 0x40 MLOAD SWAP1 DUP2 MSTORE PUSH1 0x20 ADD PUSH1 0x40 MLOAD DUP1 SWAP2 SUB SWAP1 RETURN JUMPDEST PUSH1 0x67 PUSH1 0x62 CALLDATASIZE PUSH1 0x4 PUSH1 0x7B JUMP JUMPDEST PUSH1 0x0 SSTORE JUMP JUMPDEST STOP JUMPDEST PUSH1 0x45 PUSH1 0x74 CALLDATASIZE PUSH1 0x4 PUSH1 0x7B JUMP JUMPDEST PUSH1 0x0 SLOAD MUL SWAP1 JUMP JUMPDEST PUSH1 0x0 PUSH1 0x20 DUP3 DUP5 SUB SLT ISZERO PUSH1 0x8C JUMPI PUSH1 0x0 DUP1 REVERT JUMPDEST POP CALLDATALOAD SWAP2 SWAP1 POP JUMP INVALID LOG2 PUSH5 0x6970667358 0x22 SLT KECCAK256 DUP16 PUSH17 0x274BA978FF5DC3E3E015BE5927E0A385CC 0xBB 0xBA KECCAK256 SUB DUP16 DUP15 JUMPDEST 0xA8 0xE1 PUSH5 0xD5DC466473 PUSH16 0x6C634300081300330000000000000000 "
				},
				"gasEstimates": {
					"creation": {
						"codeDepositCost": "40200",
						"executionCost": "93",
						"totalCost": "40293"
					},
					"external": {
						"f(uint256)": "2387",
						"set(uint256)": "22312",
						"val()": "2247"
					}
				},
				"methodIdentifiers": {
					"f(uint256)": "b3de648b",
					"set(uint256)": "60fe47b1",
					"val()": "3c6bb436"
				}
			},
			"storageLayout": {
				"storage": [
					{
						"astId": 63,
						"contract": "contracts/case/TransientStorage.sol:C",
						"label": "b",
						"offset": 0,
						"slot": "0",
						"type": "t_uint256"
					}
				],
				"types": {
					"t_uint256": {
						"encoding": "inplace",
						"label": "uint256",
						"numberOfBytes": "32"
					}
				}
			},
			"userdoc": {
				"kind": "user",
				"methods": {},
				"version": 1
			}
		}
	}
}