{
	"contracts/case/Function.sol": {
		"ViewAndPure": {
			"abi": [
				{
					"inputs": [
						{
							"internalType": "uint256",
							"name": "_x",
							"type": "uint256"
						},
						{
							"internalType": "uint256",
							"name": "_y",
							"type": "uint256"
						}
					],
					"name": "add",
					"outputs": [
						{
							"internalType": "uint256",
							"name": "",
							"type": "uint256"
						}
					],
					"stateMutability": "pure",
					"type": "function"
				},
				{
					"inputs": [
						{
							"internalType": "uint256",
							"name": "_y",
							"type": "uint256"
						}
					],
					"name": "addToX",
					"outputs": [
						{
							"internalType": "uint256",
							"name": "",
							"type": "uint256"
						}
					],
					"stateMutability": "view",
					"type": "function"
				}
			],
			"devdoc": {
				"kind": "dev",
				"methods": {},
				"version": 1
			},
			"evm": {
				"assembly": "    /* \"contracts/case/Function.sol\":714:1063  contract ViewAndPure {... */\n  mstore(0x40, 0x80)\n    /* \"contracts/case/Function.sol\":762:763  1 */\n  0x01\n    /* \"contracts/case/Function.sol\":742:763  uint256 private x = 1 */\n  0x00\n  sstore\n    /* \"contracts/case/Function.sol\":714:1063  contract ViewAndPure {... */\n  callvalue\n  dup1\n  iszero\n  tag_1\n  jumpi\n  0x00\n  dup1\n  revert\ntag_1:\n  pop\n  dataSize(sub_0)\n  dup1\n  dataOffset(sub_0)\n  0x00\n  codecopy\n  0x00\n  return\nstop\n\nsub_0: assembly {\n        /* \"contracts/case/Function.sol\":714:1063  contract ViewAndPure {... */\n      mstore(0x40, 0x80)\n      callvalue\n      dup1\n      iszero\n      tag_1\n      jumpi\n      0x00\n      dup1\n      revert\n    tag_1:\n      pop\n      jumpi(tag_2, lt(calldatasize, 0x04))\n      shr(0xe0, calldataload(0x00))\n      dup1\n      0x5965da77\n      eq\n      tag_3\n      jumpi\n      dup1\n      0x771602f7\n      eq\n      tag_4\n      jumpi\n    tag_2:\n      0x00\n      dup1\n      revert\n        /* \"contracts/case/Function.sol\":813:903  function addToX(uint256 _y) public view returns (uint256) {... */\n    tag_3:\n      tag_5\n      tag_6\n      calldatasize\n      0x04\n      tag_7\n      jump\t// in\n    tag_6:\n      tag_8\n      jump\t// in\n    tag_5:\n      mload(0x40)\n        /* \"#utility.yul\":345:370   */\n      swap1\n      dup2\n      mstore\n        /* \"#utility.yul\":333:335   */\n      0x20\n        /* \"#utility.yul\":318:336   */\n      add\n        /* \"contracts/case/Function.sol\":813:903  function addToX(uint256 _y) public view returns (uint256) {... */\n      mload(0x40)\n      dup1\n      swap2\n      sub\n      swap1\n      return\n        /* \"contracts/case/Function.sol\":960:1060  function add(uint256 _x, uint256 _y) public pure returns (uint256) {... */\n    tag_4:\n      tag_5\n      tag_12\n      calldatasize\n      0x04\n      tag_13\n      jump\t// in\n    tag_12:\n      tag_14\n      jump\t// in\n        /* \"contracts/case/Function.sol\":813:903  function addToX(uint256 _y) public view returns (uint256) {... */\n    tag_8:\n        /* \"contracts/case/Function.sol\":862:869  uint256 */\n      0x00\n        /* \"contracts/case/Function.sol\":893:895  _y */\n      dup2\n        /* \"contracts/case/Function.sol\":889:890  x */\n      sload(0x00)\n        /* \"contracts/case/Function.sol\":889:895  x + _y */\n      tag_17\n      swap2\n      swap1\n      tag_18\n      jump\t// in\n    tag_17:\n        /* \"contracts/case/Function.sol\":882:895  return x + _y */\n      swap3\n        /* \"contracts/case/Function.sol\":813:903  function addToX(uint256 _y) public view returns (uint256) {... */\n      swap2\n      pop\n      pop\n      jump\t// out\n        /* \"contracts/case/Function.sol\":960:1060  function add(uint256 _x, uint256 _y) public pure returns (uint256) {... */\n    tag_14:\n        /* \"contracts/case/Function.sol\":1018:1025  uint256 */\n      0x00\n        /* \"contracts/case/Function.sol\":1045:1052  _x + _y */\n      tag_20\n        /* \"contracts/case/Function.sol\":1050:1052  _y */\n      dup3\n        /* \"contracts/case/Function.sol\":1045:1047  _x */\n      dup5\n        /* \"contracts/case/Function.sol\":1045:1052  _x + _y */\n      tag_18\n      jump\t// in\n    tag_20:\n        /* \"contracts/case/Function.sol\":1038:1052  return _x + _y */\n      swap4\n        /* \"contracts/case/Function.sol\":960:1060  function add(uint256 _x, uint256 _y) public pure returns (uint256) {... */\n      swap3\n      pop\n      pop\n      pop\n      jump\t// out\n        /* \"#utility.yul\":14:194   */\n    tag_7:\n        /* \"#utility.yul\":73:79   */\n      0x00\n        /* \"#utility.yul\":126:128   */\n      0x20\n        /* \"#utility.yul\":114:123   */\n      dup3\n        /* \"#utility.yul\":105:112   */\n      dup5\n        /* \"#utility.yul\":101:124   */\n      sub\n        /* \"#utility.yul\":97:129   */\n      slt\n        /* \"#utility.yul\":94:146   */\n      iszero\n      tag_23\n      jumpi\n        /* \"#utility.yul\":142:143   */\n      0x00\n        /* \"#utility.yul\":139:140   */\n      dup1\n        /* \"#utility.yul\":132:144   */\n      revert\n        /* \"#utility.yul\":94:146   */\n    tag_23:\n      pop\n        /* \"#utility.yul\":165:188   */\n      calldataload\n      swap2\n        /* \"#utility.yul\":14:194   */\n      swap1\n      pop\n      jump\t// out\n        /* \"#utility.yul\":381:629   */\n    tag_13:\n        /* \"#utility.yul\":449:455   */\n      0x00\n        /* \"#utility.yul\":457:463   */\n      dup1\n        /* \"#utility.yul\":510:512   */\n      0x40\n        /* \"#utility.yul\":498:507   */\n      dup4\n        /* \"#utility.yul\":489:496   */\n      dup6\n        /* \"#utility.yul\":485:508   */\n      sub\n        /* \"#utility.yul\":481:513   */\n      slt\n        /* \"#utility.yul\":478:530   */\n      iszero\n      tag_26\n      jumpi\n        /* \"#utility.yul\":526:527   */\n      0x00\n        /* \"#utility.yul\":523:524   */\n      dup1\n        /* \"#utility.yul\":516:528   */\n      revert\n        /* \"#utility.yul\":478:530   */\n    tag_26:\n      pop\n      pop\n        /* \"#utility.yul\":549:572   */\n      dup1\n      calldataload\n      swap3\n        /* \"#utility.yul\":619:621   */\n      0x20\n        /* \"#utility.yul\":604:622   */\n      swap1\n      swap2\n      add\n        /* \"#utility.yul\":591:623   */\n      calldataload\n      swap2\n      pop\n        /* \"#utility.yul\":381:629   */\n      jump\t// out\n        /* \"#utility.yul\":634:856   */\n    tag_18:\n        /* \"#utility.yul\":699:708   */\n      dup1\n      dup3\n      add\n        /* \"#utility.yul\":720:730   */\n      dup1\n      dup3\n      gt\n        /* \"#utility.yul\":717:850   */\n      iszero\n      tag_17\n      jumpi\n        /* \"#utility.yul\":772:782   */\n      0x4e487b71\n        /* \"#utility.yul\":767:770   */\n      0xe0\n        /* \"#utility.yul\":763:783   */\n      shl\n        /* \"#utility.yul\":760:761   */\n      0x00\n        /* \"#utility.yul\":753:784   */\n      mstore\n        /* \"#utility.yul\":807:811   */\n      0x11\n        /* \"#utility.yul\":804:805   */\n      0x04\n        /* \"#utility.yul\":797:812   */\n      mstore\n        /* \"#utility.yul\":835:839   */\n      0x24\n        /* \"#utility.yul\":832:833   */\n      0x00\n        /* \"#utility.yul\":825:840   */\n      revert\n\n    auxdata: 0xa26469706673582212206762cb85fc2d1557bae63e0b902470c113953e845d34df1967d3fd6f801b6e2864736f6c63430008130033\n}\n",
				"bytecode": {
					"linkReferences": {},
					"object": "6080604052600160005534801561001557600080fd5b5061011b806100256000396000f3fe6080604052348015600f57600080fd5b506004361060325760003560e01c80635965da77146037578063771602f7146058575b600080fd5b60466042366004608c565b6067565b60405190815260200160405180910390f35b6046606336600460a4565b607b565b6000816000546075919060c5565b92915050565b60006085828460c5565b9392505050565b600060208284031215609d57600080fd5b5035919050565b6000806040838503121560b657600080fd5b50508035926020909101359150565b80820180821115607557634e487b7160e01b600052601160045260246000fdfea26469706673582212206762cb85fc2d1557bae63e0b902470c113953e845d34df1967d3fd6f801b6e2864736f6c63430008130033",
					"opcodes": "PUSH1 0x80 PUSH1 0x40 MSTORE PUSH1 0x1 PUSH1 0x0 SSTORE CALLVALUE DUP1 ISZERO PUSH2 0x15 JUMPI PUSH1 0x0 DUP1 REVERT JUMPDEST POP PUSH2 0x11B DUP1 PUSH2 0x25 PUSH1 0x0 CODECOPY PUSH1 0x0 RETURN INVALID PUSH1 0x80 PUSH1 0x40 MSTORE CALLVALUE DUP1 ISZERO PUSH1 0xF JUMPI PUSH1 0x0 DUP1 REVERT JUMPDEST POP PUSH1 0x4 CALLDATASIZE LT PUSH1 0x32 JUMPI PUSH1 0x0 CALLDATALOAD PUSH1 0xE0 SHR DUP1 PUSH4 0x5965DA77 EQ PUSH1 0x37 JUMPI DUP1 PUSH4 0x771602F7 EQ PUSH1 0x58 JUMPI JUMPDEST PUSH1 0x0 DUP1 REVERT JUMPDEST PUSH1 0x46 PUSH1 0x42 CALLDATASIZE PUSH1 0x4 PUSH1 0x8C JUMP JUMPDEST PUSH1 0x67 JUMP JUMPDEST PUSH1 0x40 MLOAD SWAP1 DUP2 MSTORE PUSH1 0x20 ADD PUSH1 0x40 MLOAD DUP1 SWAP2 SUB SWAP1 RETURN JUMPDEST PUSH1 0x46 PUSH1 0x63 CALLDATASIZE PUSH1 0x4 PUSH1 0xA4 JUMP JUMPDEST PUSH1 0x7B JUMP JUMPDEST PUSH1 0x0 DUP2 PUSH1 0x0 SLOAD PUSH1 0x75 SWAP2 SWAP1 PUSH1 0xC5 JUMP JUMPDEST SWAP3 SWAP2 POP POP JUMP JUMPDEST PUSH1 0x0 PUSH1 0x85 DUP3 DUP5 PUSH1 0xC5 JUMP JUMPDEST SWAP4 SWAP3 POP POP POP JUMP JUMPDEST PUSH1 0x0 PUSH1 0x20 DUP3 DUP5 SUB SLT ISZERO PUSH1 0x9D JUMPI PUSH1 0x0 DUP1 REVERT JUMPDEST POP CALLDATALOAD SWAP2 SWAP1 POP JUMP JUMPDEST PUSH1 0x0 DUP1 PUSH1 0x40 DUP4 DUP6 SUB SLT ISZERO PUSH1 0xB6 JUMPI PUSH1 0x0 DUP1 REVERT JUMPDEST POP POP DUP1 CALLDATALOAD SWAP3 PUSH1 0x20 SWAP1 SWAP2 ADD CALLDATALOAD SWAP2 POP JUMP JUMPDEST DUP1 DUP3 ADD DUP1 DUP3 GT ISZERO PUSH1 0x75 JUMPI PUSH4 0x4E487B71 PUSH1 0xE0 SHL PUSH1 0x0 MSTORE PUSH1 0x11 PUSH1 0x4 MSTORE PUSH1 0x24 PUSH1 0x0 REVERT INVALID LOG2 PUSH5 0x6970667358 0x22 SLT KECCAK256 PUSH8 0x62CB85FC2D1557BA 0xE6 RETURNDATACOPY SIGNEXTEND SWAP1 0x24 PUSH17 0xC113953E845D34DF1967D3FD6F801B6E28 PUSH5 0x736F6C6343 STOP ADDMOD SGT STOP CALLER "
				},
				"gasEstimates": {
					"creation": {
						"codeDepositCost": "56600",
						"executionCost": "22211",
						"totalCost": "78811"
					},
					"external": {
						"add(uint256,uint256)": "379",
						"addToX(uint256)": "infinite"
					}
				},
				"methodIdentifiers": {
					"add(uint256,uint256)": "771602f7",
					"addToX(uint256)": "5965da77"
				}
			},
			"storageLayout": {
				"storage": [
					{
						"astId": 61,
						"contract": "contracts/case/Function.sol:ViewAndPure",
						"label": "x",
						"offset": 0,
						"slot": "0",
						"type": "t_uint256"
					}
				],
				"types": {
					"t_uint256": {
						"encoding": "inplace",
						"label": "uint256",
						"numberOfBytes": "32"
					}
				}
			},
			"userdoc": {
				"kind": "user",
				"methods": {},
				"version": 1
			}
		}
	}
}