{
	"contracts/case/Constructor.sol": {
		"Y": {
			"abi": [
				{
					"inputs": [
						{
							"internalType": "string",
							"name": "_text",
							"type": "string"
						}
					],
					"stateMutability": "nonpayable",
					"type": "constructor"
				},
				{
					"inputs": [],
					"name": "text",
					"outputs": [
						{
							"internalType": "string",
							"name": "",
							"type": "string"
						}
					],
					"stateMutability": "view",
					"type": "function"
				}
			],
			"devdoc": {
				"kind": "dev",
				"methods": {},
				"version": 1
			},
			"evm": {
				"assembly": "    /* \"contracts/case/Constructor.sol\":176:286  contract Y {... */\n  mstore(0x40, 0x80)\n    /* \"contracts/case/Constructor.sol\":219:283  constructor(string memory _text) {... */\n  callvalue\n  dup1\n  iszero\n  tag_1\n  jumpi\n  0x00\n  dup1\n  revert\ntag_1:\n  pop\n  mload(0x40)\n  sub(codesize, bytecodeSize)\n  dup1\n  bytecodeSize\n  dup4\n  codecopy\n  dup2\n  add\n  0x40\n  dup2\n  swap1\n  mstore\n  tag_2\n  swap2\n  tag_3\n  jump\t// in\ntag_2:\n    /* \"contracts/case/Constructor.sol\":263:267  text */\n  0x00\n    /* \"contracts/case/Constructor.sol\":263:275  text = _text */\n  tag_6\n    /* \"contracts/case/Constructor.sol\":270:275  _text */\n  dup3\n    /* \"contracts/case/Constructor.sol\":263:267  text */\n  dup3\n    /* \"contracts/case/Constructor.sol\":263:275  text = _text */\n  tag_7\n  jump\t// in\ntag_6:\n  pop\n    /* \"contracts/case/Constructor.sol\":219:283  constructor(string memory _text) {... */\n  pop\n    /* \"contracts/case/Constructor.sol\":176:286  contract Y {... */\n  jump(tag_14)\n    /* \"#utility.yul\":14:141   */\ntag_9:\n    /* \"#utility.yul\":75:85   */\n  0x4e487b71\n    /* \"#utility.yul\":70:73   */\n  0xe0\n    /* \"#utility.yul\":66:86   */\n  shl\n    /* \"#utility.yul\":63:64   */\n  0x00\n    /* \"#utility.yul\":56:87   */\n  mstore\n    /* \"#utility.yul\":106:110   */\n  0x41\n    /* \"#utility.yul\":103:104   */\n  0x04\n    /* \"#utility.yul\":96:111   */\n  mstore\n    /* \"#utility.yul\":130:134   */\n  0x24\n    /* \"#utility.yul\":127:128   */\n  0x00\n    /* \"#utility.yul\":120:135   */\n  revert\n    /* \"#utility.yul\":146:1188   */\ntag_3:\n    /* \"#utility.yul\":226:232   */\n  0x00\n    /* \"#utility.yul\":257:259   */\n  0x20\n    /* \"#utility.yul\":300:302   */\n  dup1\n    /* \"#utility.yul\":288:297   */\n  dup4\n    /* \"#utility.yul\":279:286   */\n  dup6\n    /* \"#utility.yul\":275:298   */\n  sub\n    /* \"#utility.yul\":271:303   */\n  slt\n    /* \"#utility.yul\":268:320   */\n  iszero\n  tag_17\n  jumpi\n    /* \"#utility.yul\":316:317   */\n  0x00\n    /* \"#utility.yul\":313:314   */\n  dup1\n    /* \"#utility.yul\":306:318   */\n  revert\n    /* \"#utility.yul\":268:320   */\ntag_17:\n    /* \"#utility.yul\":343:359   */\n  dup3\n  mload\n  sub(shl(0x40, 0x01), 0x01)\n    /* \"#utility.yul\":408:422   */\n  dup1\n  dup3\n  gt\n    /* \"#utility.yul\":405:439   */\n  iszero\n  tag_18\n  jumpi\n    /* \"#utility.yul\":435:436   */\n  0x00\n    /* \"#utility.yul\":432:433   */\n  dup1\n    /* \"#utility.yul\":425:437   */\n  revert\n    /* \"#utility.yul\":405:439   */\ntag_18:\n    /* \"#utility.yul\":473:479   */\n  dup2\n    /* \"#utility.yul\":462:471   */\n  dup6\n    /* \"#utility.yul\":458:480   */\n  add\n    /* \"#utility.yul\":448:480   */\n  swap2\n  pop\n    /* \"#utility.yul\":518:525   */\n  dup6\n    /* \"#utility.yul\":511:515   */\n  0x1f\n    /* \"#utility.yul\":507:509   */\n  dup4\n    /* \"#utility.yul\":503:516   */\n  add\n    /* \"#utility.yul\":499:526   */\n  slt\n    /* \"#utility.yul\":489:544   */\n  tag_19\n  jumpi\n    /* \"#utility.yul\":540:541   */\n  0x00\n    /* \"#utility.yul\":537:538   */\n  dup1\n    /* \"#utility.yul\":530:542   */\n  revert\n    /* \"#utility.yul\":489:544   */\ntag_19:\n    /* \"#utility.yul\":569:571   */\n  dup2\n    /* \"#utility.yul\":563:572   */\n  mload\n    /* \"#utility.yul\":591:593   */\n  dup2\n    /* \"#utility.yul\":587:589   */\n  dup2\n    /* \"#utility.yul\":584:594   */\n  gt\n    /* \"#utility.yul\":581:617   */\n  iszero\n  tag_21\n  jumpi\n    /* \"#utility.yul\":597:615   */\n  tag_21\n  tag_9\n  jump\t// in\ntag_21:\n    /* \"#utility.yul\":672:674   */\n  0x40\n    /* \"#utility.yul\":666:675   */\n  mload\n    /* \"#utility.yul\":640:642   */\n  0x1f\n    /* \"#utility.yul\":726:739   */\n  dup3\n  add\n  not(0x1f)\n    /* \"#utility.yul\":722:744   */\n  swap1\n  dup2\n  and\n    /* \"#utility.yul\":746:748   */\n  0x3f\n    /* \"#utility.yul\":718:749   */\n  add\n    /* \"#utility.yul\":714:754   */\n  and\n    /* \"#utility.yul\":702:755   */\n  dup2\n  add\n  swap1\n    /* \"#utility.yul\":770:788   */\n  dup4\n  dup3\n  gt\n    /* \"#utility.yul\":790:812   */\n  dup2\n  dup4\n  lt\n    /* \"#utility.yul\":767:813   */\n  or\n    /* \"#utility.yul\":764:836   */\n  iszero\n  tag_23\n  jumpi\n    /* \"#utility.yul\":816:834   */\n  tag_23\n  tag_9\n  jump\t// in\ntag_23:\n    /* \"#utility.yul\":856:866   */\n  dup2\n    /* \"#utility.yul\":852:854   */\n  0x40\n    /* \"#utility.yul\":845:867   */\n  mstore\n    /* \"#utility.yul\":891:893   */\n  dup3\n    /* \"#utility.yul\":883:889   */\n  dup2\n    /* \"#utility.yul\":876:894   */\n  mstore\n    /* \"#utility.yul\":931:938   */\n  dup9\n    /* \"#utility.yul\":926:928   */\n  dup7\n    /* \"#utility.yul\":921:923   */\n  dup5\n    /* \"#utility.yul\":917:919   */\n  dup8\n    /* \"#utility.yul\":913:924   */\n  add\n    /* \"#utility.yul\":909:929   */\n  add\n    /* \"#utility.yul\":906:939   */\n  gt\n    /* \"#utility.yul\":903:956   */\n  iszero\n  tag_24\n  jumpi\n    /* \"#utility.yul\":952:953   */\n  0x00\n    /* \"#utility.yul\":949:950   */\n  dup1\n    /* \"#utility.yul\":942:954   */\n  revert\n    /* \"#utility.yul\":903:956   */\ntag_24:\n    /* \"#utility.yul\":974:975   */\n  0x00\n    /* \"#utility.yul\":965:975   */\n  swap4\n  pop\n    /* \"#utility.yul\":984:1113   */\ntag_25:\n    /* \"#utility.yul\":998:1000   */\n  dup3\n    /* \"#utility.yul\":995:996   */\n  dup5\n    /* \"#utility.yul\":992:1001   */\n  lt\n    /* \"#utility.yul\":984:1113   */\n  iszero\n  tag_27\n  jumpi\n    /* \"#utility.yul\":1086:1096   */\n  dup5\n  dup5\n  add\n    /* \"#utility.yul\":1082:1101   */\n  dup7\n  add\n    /* \"#utility.yul\":1076:1102   */\n  mload\n    /* \"#utility.yul\":1055:1069   */\n  dup2\n  dup6\n  add\n    /* \"#utility.yul\":1051:1074   */\n  dup8\n  add\n    /* \"#utility.yul\":1044:1103   */\n  mstore\n    /* \"#utility.yul\":1009:1019   */\n  swap3\n  dup6\n  add\n  swap3\n    /* \"#utility.yul\":984:1113   */\n  jump(tag_25)\ntag_27:\n    /* \"#utility.yul\":1155:1156   */\n  0x00\n    /* \"#utility.yul\":1150:1152   */\n  dup7\n    /* \"#utility.yul\":1145:1147   */\n  dup5\n    /* \"#utility.yul\":1137:1143   */\n  dup4\n    /* \"#utility.yul\":1133:1148   */\n  add\n    /* \"#utility.yul\":1129:1153   */\n  add\n    /* \"#utility.yul\":1122:1157   */\n  mstore\n    /* \"#utility.yul\":1176:1182   */\n  dup1\n    /* \"#utility.yul\":1166:1182   */\n  swap7\n  pop\n  pop\n  pop\n  pop\n  pop\n  pop\n  pop\n    /* \"#utility.yul\":146:1188   */\n  swap3\n  swap2\n  pop\n  pop\n  jump\t// out\n    /* \"#utility.yul\":1193:1573   */\ntag_10:\n    /* \"#utility.yul\":1272:1273   */\n  0x01\n    /* \"#utility.yul\":1268:1280   */\n  dup2\n  dup2\n  shr\n  swap1\n    /* \"#utility.yul\":1315:1327   */\n  dup3\n  and\n  dup1\n    /* \"#utility.yul\":1336:1397   */\n  tag_29\n  jumpi\n    /* \"#utility.yul\":1390:1394   */\n  0x7f\n    /* \"#utility.yul\":1382:1388   */\n  dup3\n    /* \"#utility.yul\":1378:1395   */\n  and\n    /* \"#utility.yul\":1368:1395   */\n  swap2\n  pop\n    /* \"#utility.yul\":1336:1397   */\ntag_29:\n    /* \"#utility.yul\":1443:1445   */\n  0x20\n    /* \"#utility.yul\":1435:1441   */\n  dup3\n    /* \"#utility.yul\":1432:1446   */\n  lt\n    /* \"#utility.yul\":1412:1430   */\n  dup2\n    /* \"#utility.yul\":1409:1447   */\n  sub\n    /* \"#utility.yul\":1406:1567   */\n  tag_30\n  jumpi\n    /* \"#utility.yul\":1489:1499   */\n  0x4e487b71\n    /* \"#utility.yul\":1484:1487   */\n  0xe0\n    /* \"#utility.yul\":1480:1500   */\n  shl\n    /* \"#utility.yul\":1477:1478   */\n  0x00\n    /* \"#utility.yul\":1470:1501   */\n  mstore\n    /* \"#utility.yul\":1524:1528   */\n  0x22\n    /* \"#utility.yul\":1521:1522   */\n  0x04\n    /* \"#utility.yul\":1514:1529   */\n  mstore\n    /* \"#utility.yul\":1552:1556   */\n  0x24\n    /* \"#utility.yul\":1549:1550   */\n  0x00\n    /* \"#utility.yul\":1542:1557   */\n  revert\n    /* \"#utility.yul\":1406:1567   */\ntag_30:\n  pop\n    /* \"#utility.yul\":1193:1573   */\n  swap2\n  swap1\n  pop\n  jump\t// out\n    /* \"#utility.yul\":1704:2249   */\ntag_12:\n    /* \"#utility.yul\":1806:1808   */\n  0x1f\n    /* \"#utility.yul\":1801:1804   */\n  dup3\n    /* \"#utility.yul\":1798:1809   */\n  gt\n    /* \"#utility.yul\":1795:2243   */\n  iszero\n  tag_33\n  jumpi\n    /* \"#utility.yul\":1842:1843   */\n  0x00\n    /* \"#utility.yul\":1867:1872   */\n  dup2\n    /* \"#utility.yul\":1863:1865   */\n  dup2\n    /* \"#utility.yul\":1856:1873   */\n  mstore\n    /* \"#utility.yul\":1912:1916   */\n  0x20\n    /* \"#utility.yul\":1908:1910   */\n  dup2\n    /* \"#utility.yul\":1898:1917   */\n  keccak256\n    /* \"#utility.yul\":1982:1984   */\n  0x1f\n    /* \"#utility.yul\":1970:1980   */\n  dup6\n    /* \"#utility.yul\":1966:1985   */\n  add\n    /* \"#utility.yul\":1963:1964   */\n  0x05\n    /* \"#utility.yul\":1959:1986   */\n  shr\n    /* \"#utility.yul\":1953:1957   */\n  dup2\n    /* \"#utility.yul\":1949:1987   */\n  add\n    /* \"#utility.yul\":2018:2022   */\n  0x20\n    /* \"#utility.yul\":2006:2016   */\n  dup7\n    /* \"#utility.yul\":2003:2023   */\n  lt\n    /* \"#utility.yul\":2000:2047   */\n  iszero\n  tag_34\n  jumpi\n  pop\n    /* \"#utility.yul\":2041:2045   */\n  dup1\n    /* \"#utility.yul\":2000:2047   */\ntag_34:\n    /* \"#utility.yul\":2096:2098   */\n  0x1f\n    /* \"#utility.yul\":2091:2094   */\n  dup6\n    /* \"#utility.yul\":2087:2099   */\n  add\n    /* \"#utility.yul\":2084:2085   */\n  0x05\n    /* \"#utility.yul\":2080:2100   */\n  shr\n    /* \"#utility.yul\":2074:2078   */\n  dup3\n    /* \"#utility.yul\":2070:2101   */\n  add\n    /* \"#utility.yul\":2060:2101   */\n  swap2\n  pop\n    /* \"#utility.yul\":2151:2233   */\ntag_35:\n    /* \"#utility.yul\":2169:2171   */\n  dup2\n    /* \"#utility.yul\":2162:2167   */\n  dup2\n    /* \"#utility.yul\":2159:2172   */\n  lt\n    /* \"#utility.yul\":2151:2233   */\n  iszero\n  tag_37\n  jumpi\n    /* \"#utility.yul\":2214:2231   */\n  dup3\n  dup2\n  sstore\n    /* \"#utility.yul\":2195:2196   */\n  0x01\n    /* \"#utility.yul\":2184:2197   */\n  add\n    /* \"#utility.yul\":2151:2233   */\n  jump(tag_35)\ntag_37:\n    /* \"#utility.yul\":2155:2158   */\n  pop\n  pop\n  pop\n    /* \"#utility.yul\":1795:2243   */\ntag_33:\n    /* \"#utility.yul\":1704:2249   */\n  pop\n  pop\n  pop\n  jump\t// out\n    /* \"#utility.yul\":2425:3777   */\ntag_7:\n    /* \"#utility.yul\":2545:2555   */\n  dup2\n  mload\n  sub(shl(0x40, 0x01), 0x01)\n    /* \"#utility.yul\":2567:2597   */\n  dup2\n  gt\n    /* \"#utility.yul\":2564:2620   */\n  iszero\n  tag_41\n  jumpi\n    /* \"#utility.yul\":2600:2618   */\n  tag_41\n  tag_9\n  jump\t// in\ntag_41:\n    /* \"#utility.yul\":2629:2726   */\n  tag_42\n    /* \"#utility.yul\":2719:2725   */\n  dup2\n    /* \"#utility.yul\":2679:2717   */\n  tag_43\n    /* \"#utility.yul\":2711:2715   */\n  dup5\n    /* \"#utility.yul\":2705:2716   */\n  sload\n    /* \"#utility.yul\":2679:2717   */\n  tag_10\n  jump\t// in\ntag_43:\n    /* \"#utility.yul\":2673:2677   */\n  dup5\n    /* \"#utility.yul\":2629:2726   */\n  tag_12\n  jump\t// in\ntag_42:\n    /* \"#utility.yul\":2781:2785   */\n  0x20\n  dup1\n    /* \"#utility.yul\":2845:2847   */\n  0x1f\n    /* \"#utility.yul\":2834:2848   */\n  dup4\n  gt\n    /* \"#utility.yul\":2862:2863   */\n  0x01\n    /* \"#utility.yul\":2857:3520   */\n  dup2\n  eq\n  tag_45\n  jumpi\n    /* \"#utility.yul\":3564:3565   */\n  0x00\n    /* \"#utility.yul\":3581:3587   */\n  dup5\n    /* \"#utility.yul\":3578:3667   */\n  iszero\n  tag_46\n  jumpi\n  pop\n    /* \"#utility.yul\":3633:3652   */\n  dup6\n  dup4\n  add\n    /* \"#utility.yul\":3627:3653   */\n  mload\n    /* \"#utility.yul\":3578:3667   */\ntag_46:\n  not(0x00)\n    /* \"#utility.yul\":2382:2383   */\n  0x03\n    /* \"#utility.yul\":2378:2389   */\n  dup7\n  swap1\n  shl\n    /* \"#utility.yul\":2374:2398   */\n  shr\n    /* \"#utility.yul\":2370:2399   */\n  not\n    /* \"#utility.yul\":2360:2400   */\n  and\n    /* \"#utility.yul\":2406:2407   */\n  0x01\n    /* \"#utility.yul\":2402:2413   */\n  dup6\n  swap1\n  shl\n    /* \"#utility.yul\":2357:2414   */\n  or\n    /* \"#utility.yul\":3680:3761   */\n  dup6\n  sstore\n    /* \"#utility.yul\":2827:3771   */\n  jump(tag_37)\n    /* \"#utility.yul\":2857:3520   */\ntag_45:\n    /* \"#utility.yul\":1651:1652   */\n  0x00\n    /* \"#utility.yul\":1644:1658   */\n  dup6\n  dup2\n  mstore\n    /* \"#utility.yul\":1688:1692   */\n  0x20\n    /* \"#utility.yul\":1675:1693   */\n  dup2\n  keccak256\n  not(0x1f)\n    /* \"#utility.yul\":2893:2913   */\n  dup7\n  and\n  swap2\n    /* \"#utility.yul\":3011:3247   */\ntag_49:\n    /* \"#utility.yul\":3025:3032   */\n  dup3\n    /* \"#utility.yul\":3022:3023   */\n  dup2\n    /* \"#utility.yul\":3019:3033   */\n  lt\n    /* \"#utility.yul\":3011:3247   */\n  iszero\n  tag_51\n  jumpi\n    /* \"#utility.yul\":3114:3133   */\n  dup9\n  dup7\n  add\n    /* \"#utility.yul\":3108:3134   */\n  mload\n    /* \"#utility.yul\":3093:3135   */\n  dup3\n  sstore\n    /* \"#utility.yul\":3206:3233   */\n  swap5\n  dup5\n  add\n  swap5\n    /* \"#utility.yul\":3174:3175   */\n  0x01\n    /* \"#utility.yul\":3162:3176   */\n  swap1\n  swap2\n  add\n  swap1\n    /* \"#utility.yul\":3041:3060   */\n  dup5\n  add\n    /* \"#utility.yul\":3011:3247   */\n  jump(tag_49)\ntag_51:\n    /* \"#utility.yul\":3015:3018   */\n  pop\n    /* \"#utility.yul\":3275:3281   */\n  dup6\n    /* \"#utility.yul\":3266:3273   */\n  dup3\n    /* \"#utility.yul\":3263:3282   */\n  lt\n    /* \"#utility.yul\":3260:3461   */\n  iszero\n  tag_52\n  jumpi\n    /* \"#utility.yul\":3336:3355   */\n  dup8\n  dup6\n  add\n    /* \"#utility.yul\":3330:3356   */\n  mload\n  not(0x00)\n    /* \"#utility.yul\":3419:3420   */\n  0x03\n    /* \"#utility.yul\":3415:3429   */\n  dup9\n  swap1\n  shl\n    /* \"#utility.yul\":3431:3434   */\n  0xf8\n    /* \"#utility.yul\":3411:3435   */\n  and\n    /* \"#utility.yul\":3407:3444   */\n  shr\n    /* \"#utility.yul\":3403:3445   */\n  not\n    /* \"#utility.yul\":3388:3446   */\n  and\n    /* \"#utility.yul\":3373:3447   */\n  dup2\n  sstore\n    /* \"#utility.yul\":3260:3461   */\ntag_52:\n  pop\n  pop\n  pop\n  pop\n  pop\n    /* \"#utility.yul\":3507:3508   */\n  0x01\n    /* \"#utility.yul\":3491:3505   */\n  swap1\n  dup2\n  shl\n    /* \"#utility.yul\":3487:3509   */\n  add\n    /* \"#utility.yul\":3474:3510   */\n  swap1\n  sstore\n  pop\n    /* \"#utility.yul\":2425:3777   */\n  jump\t// out\ntag_14:\n    /* \"contracts/case/Constructor.sol\":176:286  contract Y {... */\n  dataSize(sub_0)\n  dup1\n  dataOffset(sub_0)\n  0x00\n  codecopy\n  0x00\n  return\nstop\n\nsub_0: assembly {\n        /* \"contracts/case/Constructor.sol\":176:286  contract Y {... */\n      mstore(0x40, 0x80)\n      callvalue\n      dup1\n      iszero\n      tag_1\n      jumpi\n      0x00\n      dup1\n      revert\n    tag_1:\n      pop\n      jumpi(tag_2, lt(calldatasize, 0x04))\n      shr(0xe0, calldataload(0x00))\n      dup1\n      0x1f1bd692\n      eq\n      tag_3\n      jumpi\n    tag_2:\n      0x00\n      dup1\n      revert\n        /* \"contracts/case/Constructor.sol\":194:212  string public text */\n    tag_3:\n      tag_4\n      tag_5\n      jump\t// in\n    tag_4:\n      mload(0x40)\n      tag_6\n      swap2\n      swap1\n      tag_7\n      jump\t// in\n    tag_6:\n      mload(0x40)\n      dup1\n      swap2\n      sub\n      swap1\n      return\n    tag_5:\n      0x00\n      dup1\n      sload\n      tag_8\n      swap1\n      tag_9\n      jump\t// in\n    tag_8:\n      dup1\n      0x1f\n      add\n      0x20\n      dup1\n      swap2\n      div\n      mul\n      0x20\n      add\n      mload(0x40)\n      swap1\n      dup2\n      add\n      0x40\n      mstore\n      dup1\n      swap3\n      swap2\n      swap1\n      dup2\n      dup2\n      mstore\n      0x20\n      add\n      dup3\n      dup1\n      sload\n      tag_10\n      swap1\n      tag_9\n      jump\t// in\n    tag_10:\n      dup1\n      iszero\n      tag_11\n      jumpi\n      dup1\n      0x1f\n      lt\n      tag_12\n      jumpi\n      0x0100\n      dup1\n      dup4\n      sload\n      div\n      mul\n      dup4\n      mstore\n      swap2\n      0x20\n      add\n      swap2\n      jump(tag_11)\n    tag_12:\n      dup3\n      add\n      swap2\n      swap1\n      0x00\n      mstore\n      keccak256(0x00, 0x20)\n      swap1\n    tag_13:\n      dup2\n      sload\n      dup2\n      mstore\n      swap1\n      0x01\n      add\n      swap1\n      0x20\n      add\n      dup1\n      dup4\n      gt\n      tag_13\n      jumpi\n      dup3\n      swap1\n      sub\n      0x1f\n      and\n      dup3\n      add\n      swap2\n    tag_11:\n      pop\n      pop\n      pop\n      pop\n      pop\n      dup2\n      jump\t// out\n        /* \"#utility.yul\":14:562   */\n    tag_7:\n        /* \"#utility.yul\":126:130   */\n      0x00\n        /* \"#utility.yul\":155:157   */\n      0x20\n        /* \"#utility.yul\":184:186   */\n      dup1\n        /* \"#utility.yul\":173:182   */\n      dup4\n        /* \"#utility.yul\":166:187   */\n      mstore\n        /* \"#utility.yul\":216:222   */\n      dup4\n        /* \"#utility.yul\":210:223   */\n      mload\n        /* \"#utility.yul\":259:265   */\n      dup1\n        /* \"#utility.yul\":254:256   */\n      dup3\n        /* \"#utility.yul\":243:252   */\n      dup6\n        /* \"#utility.yul\":239:257   */\n      add\n        /* \"#utility.yul\":232:266   */\n      mstore\n        /* \"#utility.yul\":284:285   */\n      0x00\n        /* \"#utility.yul\":294:434   */\n    tag_16:\n        /* \"#utility.yul\":308:314   */\n      dup2\n        /* \"#utility.yul\":305:306   */\n      dup2\n        /* \"#utility.yul\":302:315   */\n      lt\n        /* \"#utility.yul\":294:434   */\n      iszero\n      tag_18\n      jumpi\n        /* \"#utility.yul\":403:417   */\n      dup6\n      dup2\n      add\n        /* \"#utility.yul\":399:422   */\n      dup4\n      add\n        /* \"#utility.yul\":393:423   */\n      mload\n        /* \"#utility.yul\":369:386   */\n      dup6\n      dup3\n      add\n        /* \"#utility.yul\":388:390   */\n      0x40\n        /* \"#utility.yul\":365:391   */\n      add\n        /* \"#utility.yul\":358:424   */\n      mstore\n        /* \"#utility.yul\":323:333   */\n      dup3\n      add\n        /* \"#utility.yul\":294:434   */\n      jump(tag_16)\n    tag_18:\n        /* \"#utility.yul\":298:301   */\n      pop\n        /* \"#utility.yul\":483:484   */\n      0x00\n        /* \"#utility.yul\":478:480   */\n      0x40\n        /* \"#utility.yul\":469:475   */\n      dup3\n        /* \"#utility.yul\":458:467   */\n      dup7\n        /* \"#utility.yul\":454:476   */\n      add\n        /* \"#utility.yul\":450:481   */\n      add\n        /* \"#utility.yul\":443:485   */\n      mstore\n        /* \"#utility.yul\":553:555   */\n      0x40\n        /* \"#utility.yul\":546:548   */\n      0x1f\n        /* \"#utility.yul\":542:549   */\n      not\n        /* \"#utility.yul\":537:539   */\n      0x1f\n        /* \"#utility.yul\":529:535   */\n      dup4\n        /* \"#utility.yul\":525:540   */\n      add\n        /* \"#utility.yul\":521:550   */\n      and\n        /* \"#utility.yul\":510:519   */\n      dup6\n        /* \"#utility.yul\":506:551   */\n      add\n        /* \"#utility.yul\":502:556   */\n      add\n        /* \"#utility.yul\":494:556   */\n      swap3\n      pop\n      pop\n      pop\n        /* \"#utility.yul\":14:562   */\n      swap3\n      swap2\n      pop\n      pop\n      jump\t// out\n        /* \"#utility.yul\":567:947   */\n    tag_9:\n        /* \"#utility.yul\":646:647   */\n      0x01\n        /* \"#utility.yul\":642:654   */\n      dup2\n      dup2\n      shr\n      swap1\n        /* \"#utility.yul\":689:701   */\n      dup3\n      and\n      dup1\n        /* \"#utility.yul\":710:771   */\n      tag_20\n      jumpi\n        /* \"#utility.yul\":764:768   */\n      0x7f\n        /* \"#utility.yul\":756:762   */\n      dup3\n        /* \"#utility.yul\":752:769   */\n      and\n        /* \"#utility.yul\":742:769   */\n      swap2\n      pop\n        /* \"#utility.yul\":710:771   */\n    tag_20:\n        /* \"#utility.yul\":817:819   */\n      0x20\n        /* \"#utility.yul\":809:815   */\n      dup3\n        /* \"#utility.yul\":806:820   */\n      lt\n        /* \"#utility.yul\":786:804   */\n      dup2\n        /* \"#utility.yul\":783:821   */\n      sub\n        /* \"#utility.yul\":780:941   */\n      tag_21\n      jumpi\n        /* \"#utility.yul\":863:873   */\n      0x4e487b71\n        /* \"#utility.yul\":858:861   */\n      0xe0\n        /* \"#utility.yul\":854:874   */\n      shl\n        /* \"#utility.yul\":851:852   */\n      0x00\n        /* \"#utility.yul\":844:875   */\n      mstore\n        /* \"#utility.yul\":898:902   */\n      0x22\n        /* \"#utility.yul\":895:896   */\n      0x04\n        /* \"#utility.yul\":888:903   */\n      mstore\n        /* \"#utility.yul\":926:930   */\n      0x24\n        /* \"#utility.yul\":923:924   */\n      0x00\n        /* \"#utility.yul\":916:931   */\n      revert\n        /* \"#utility.yul\":780:941   */\n    tag_21:\n      pop\n        /* \"#utility.yul\":567:947   */\n      swap2\n      swap1\n      pop\n      jump\t// out\n\n    auxdata: 0xa2646970667358221220dabfd9b12ff4ef502840f0c80a0e315b3e22e2d560b02690f0973a4f9055aac564736f6c63430008130033\n}\n",
				"bytecode": {
					"linkReferences": {},
					"object": "608060405234801561001057600080fd5b5060405161041238038061041283398101604081905261002f91610058565b600061003b82826101aa565b5050610269565b634e487b7160e01b600052604160045260246000fd5b6000602080838503121561006b57600080fd5b82516001600160401b038082111561008257600080fd5b818501915085601f83011261009657600080fd5b8151818111156100a8576100a8610042565b604051601f8201601f19908116603f011681019083821181831017156100d0576100d0610042565b8160405282815288868487010111156100e857600080fd5b600093505b8284101561010a57848401860151818501870152928501926100ed565b600086848301015280965050505050505092915050565b600181811c9082168061013557607f821691505b60208210810361015557634e487b7160e01b600052602260045260246000fd5b50919050565b601f8211156101a557600081815260208120601f850160051c810160208610156101825750805b601f850160051c820191505b818110156101a15782815560010161018e565b5050505b505050565b81516001600160401b038111156101c3576101c3610042565b6101d7816101d18454610121565b8461015b565b602080601f83116001811461020c57600084156101f45750858301515b600019600386901b1c1916600185901b1785556101a1565b600085815260208120601f198616915b8281101561023b5788860151825594840194600190910190840161021c565b50858210156102595787850151600019600388901b60f8161c191681555b5050505050600190811b01905550565b61019a806102786000396000f3fe608060405234801561001057600080fd5b506004361061002b5760003560e01c80631f1bd69214610030575b600080fd5b61003861004e565b60405161004591906100dc565b60405180910390f35b6000805461005b9061012a565b80601f01602080910402602001604051908101604052809291908181526020018280546100879061012a565b80156100d45780601f106100a9576101008083540402835291602001916100d4565b820191906000526020600020905b8154815290600101906020018083116100b757829003601f168201915b505050505081565b600060208083528351808285015260005b81811015610109578581018301518582016040015282016100ed565b506000604082860101526040601f19601f8301168501019250505092915050565b600181811c9082168061013e57607f821691505b60208210810361015e57634e487b7160e01b600052602260045260246000fd5b5091905056fea2646970667358221220dabfd9b12ff4ef502840f0c80a0e315b3e22e2d560b02690f0973a4f9055aac564736f6c63430008130033",
					"opcodes": "PUSH1 0x80 PUSH1 0x40 MSTORE CALLVALUE DUP1 ISZERO PUSH2 0x10 JUMPI PUSH1 0x0 DUP1 REVERT JUMPDEST POP PUSH1 0x40 MLOAD PUSH2 0x412 CODESIZE SUB DUP1 PUSH2 0x412 DUP4 CODECOPY DUP2 ADD PUSH1 0x40 DUP2 SWAP1 MSTORE PUSH2 0x2F SWAP2 PUSH2 0x58 JUMP JUMPDEST PUSH1 0x0 PUSH2 0x3B DUP3 DUP3 PUSH2 0x1AA JUMP JUMPDEST POP POP PUSH2 0x269 JUMP JUMPDEST PUSH4 0x4E487B71 PUSH1 0xE0 SHL PUSH1 0x0 MSTORE PUSH1 0x41 PUSH1 0x4 MSTORE PUSH1 0x24 PUSH1 0x0 REVERT JUMPDEST PUSH1 0x0 PUSH1 0x20 DUP1 DUP4 DUP6 SUB SLT ISZERO PUSH2 0x6B JUMPI PUSH1 0x0 DUP1 REVERT JUMPDEST DUP3 MLOAD PUSH1 0x1 PUSH1 0x1 PUSH1 0x40 SHL SUB DUP1 DUP3 GT ISZERO PUSH2 0x82 JUMPI PUSH1 0x0 DUP1 REVERT JUMPDEST DUP2 DUP6 ADD SWAP2 POP DUP6 PUSH1 0x1F DUP4 ADD SLT PUSH2 0x96 JUMPI PUSH1 0x0 DUP1 REVERT JUMPDEST DUP2 MLOAD DUP2 DUP2 GT ISZERO PUSH2 0xA8 JUMPI PUSH2 0xA8 PUSH2 0x42 JUMP JUMPDEST PUSH1 0x40 MLOAD PUSH1 0x1F DUP3 ADD PUSH1 0x1F NOT SWAP1 DUP2 AND PUSH1 0x3F ADD AND DUP2 ADD SWAP1 DUP4 DUP3 GT DUP2 DUP4 LT OR ISZERO PUSH2 0xD0 JUMPI PUSH2 0xD0 PUSH2 0x42 JUMP JUMPDEST DUP2 PUSH1 0x40 MSTORE DUP3 DUP2 MSTORE DUP9 DUP7 DUP5 DUP8 ADD ADD GT ISZERO PUSH2 0xE8 JUMPI PUSH1 0x0 DUP1 REVERT JUMPDEST PUSH1 0x0 SWAP4 POP JUMPDEST DUP3 DUP5 LT ISZERO PUSH2 0x10A JUMPI DUP5 DUP5 ADD DUP7 ADD MLOAD DUP2 DUP6 ADD DUP8 ADD MSTORE SWAP3 DUP6 ADD SWAP3 PUSH2 0xED JUMP JUMPDEST PUSH1 0x0 DUP7 DUP5 DUP4 ADD ADD MSTORE DUP1 SWAP7 POP POP POP POP POP POP POP SWAP3 SWAP2 POP POP JUMP JUMPDEST PUSH1 0x1 DUP2 DUP2 SHR SWAP1 DUP3 AND DUP1 PUSH2 0x135 JUMPI PUSH1 0x7F DUP3 AND SWAP2 POP JUMPDEST PUSH1 0x20 DUP3 LT DUP2 SUB PUSH2 0x155 JUMPI PUSH4 0x4E487B71 PUSH1 0xE0 SHL PUSH1 0x0 MSTORE PUSH1 0x22 PUSH1 0x4 MSTORE PUSH1 0x24 PUSH1 0x0 REVERT JUMPDEST POP SWAP2 SWAP1 POP JUMP JUMPDEST PUSH1 0x1F DUP3 GT ISZERO PUSH2 0x1A5 JUMPI PUSH1 0x0 DUP2 DUP2 MSTORE PUSH1 0x20 DUP2 KECCAK256 PUSH1 0x1F DUP6 ADD PUSH1 0x5 SHR DUP2 ADD PUSH1 0x20 DUP7 LT ISZERO PUSH2 0x182 JUMPI POP DUP1 JUMPDEST PUSH1 0x1F DUP6 ADD PUSH1 0x5 SHR DUP3 ADD SWAP2 POP JUMPDEST DUP2 DUP2 LT ISZERO PUSH2 0x1A1 JUMPI DUP3 DUP2 SSTORE PUSH1 0x1 ADD PUSH2 0x18E JUMP JUMPDEST POP POP POP JUMPDEST POP POP POP JUMP JUMPDEST DUP2 MLOAD PUSH1 0x1 PUSH1 0x1 PUSH1 0x40 SHL SUB DUP2 GT ISZERO PUSH2 0x1C3 JUMPI PUSH2 0x1C3 PUSH2 0x42 JUMP JUMPDEST PUSH2 0x1D7 DUP2 PUSH2 0x1D1 DUP5 SLOAD PUSH2 0x121 JUMP JUMPDEST DUP5 PUSH2 0x15B JUMP JUMPDEST PUSH1 0x20 DUP1 PUSH1 0x1F DUP4 GT PUSH1 0x1 DUP2 EQ PUSH2 0x20C JUMPI PUSH1 0x0 DUP5 ISZERO PUSH2 0x1F4 JUMPI POP DUP6 DUP4 ADD MLOAD JUMPDEST PUSH1 0x0 NOT PUSH1 0x3 DUP7 SWAP1 SHL SHR NOT AND PUSH1 0x1 DUP6 SWAP1 SHL OR DUP6 SSTORE PUSH2 0x1A1 JUMP JUMPDEST PUSH1 0x0 DUP6 DUP2 MSTORE PUSH1 0x20 DUP2 KECCAK256 PUSH1 0x1F NOT DUP7 AND SWAP2 JUMPDEST DUP3 DUP2 LT ISZERO PUSH2 0x23B JUMPI DUP9 DUP7 ADD MLOAD DUP3 SSTORE SWAP5 DUP5 ADD SWAP5 PUSH1 0x1 SWAP1 SWAP2 ADD SWAP1 DUP5 ADD PUSH2 0x21C JUMP JUMPDEST POP DUP6 DUP3 LT ISZERO PUSH2 0x259 JUMPI DUP8 DUP6 ADD MLOAD PUSH1 0x0 NOT PUSH1 0x3 DUP9 SWAP1 SHL PUSH1 0xF8 AND SHR NOT AND DUP2 SSTORE JUMPDEST POP POP POP POP POP PUSH1 0x1 SWAP1 DUP2 SHL ADD SWAP1 SSTORE POP JUMP JUMPDEST PUSH2 0x19A DUP1 PUSH2 0x278 PUSH1 0x0 CODECOPY PUSH1 0x0 RETURN INVALID PUSH1 0x80 PUSH1 0x40 MSTORE CALLVALUE DUP1 ISZERO PUSH2 0x10 JUMPI PUSH1 0x0 DUP1 REVERT JUMPDEST POP PUSH1 0x4 CALLDATASIZE LT PUSH2 0x2B JUMPI PUSH1 0x0 CALLDATALOAD PUSH1 0xE0 SHR DUP1 PUSH4 0x1F1BD692 EQ PUSH2 0x30 JUMPI JUMPDEST PUSH1 0x0 DUP1 REVERT JUMPDEST PUSH2 0x38 PUSH2 0x4E JUMP JUMPDEST PUSH1 0x40 MLOAD PUSH2 0x45 SWAP2 SWAP1 PUSH2 0xDC JUMP JUMPDEST PUSH1 0x40 MLOAD DUP1 SWAP2 SUB SWAP1 RETURN JUMPDEST PUSH1 0x0 DUP1 SLOAD PUSH2 0x5B SWAP1 PUSH2 0x12A JUMP JUMPDEST DUP1 PUSH1 0x1F ADD PUSH1 0x20 DUP1 SWAP2 DIV MUL PUSH1 0x20 ADD PUSH1 0x40 MLOAD SWAP1 DUP2 ADD PUSH1 0x40 MSTORE DUP1 SWAP3 SWAP2 SWAP1 DUP2 DUP2 MSTORE PUSH1 0x20 ADD DUP3 DUP1 SLOAD PUSH2 0x87 SWAP1 PUSH2 0x12A JUMP JUMPDEST DUP1 ISZERO PUSH2 0xD4 JUMPI DUP1 PUSH1 0x1F LT PUSH2 0xA9 JUMPI PUSH2 0x100 DUP1 DUP4 SLOAD DIV MUL DUP4 MSTORE SWAP2 PUSH1 0x20 ADD SWAP2 PUSH2 0xD4 JUMP JUMPDEST DUP3 ADD SWAP2 SWAP1 PUSH1 0x0 MSTORE PUSH1 0x20 PUSH1 0x0 KECCAK256 SWAP1 JUMPDEST DUP2 SLOAD DUP2 MSTORE SWAP1 PUSH1 0x1 ADD SWAP1 PUSH1 0x20 ADD DUP1 DUP4 GT PUSH2 0xB7 JUMPI DUP3 SWAP1 SUB PUSH1 0x1F AND DUP3 ADD SWAP2 JUMPDEST POP POP POP POP POP DUP2 JUMP JUMPDEST PUSH1 0x0 PUSH1 0x20 DUP1 DUP4 MSTORE DUP4 MLOAD DUP1 DUP3 DUP6 ADD MSTORE PUSH1 0x0 JUMPDEST DUP2 DUP2 LT ISZERO PUSH2 0x109 JUMPI DUP6 DUP2 ADD DUP4 ADD MLOAD DUP6 DUP3 ADD PUSH1 0x40 ADD MSTORE DUP3 ADD PUSH2 0xED JUMP JUMPDEST POP PUSH1 0x0 PUSH1 0x40 DUP3 DUP7 ADD ADD MSTORE PUSH1 0x40 PUSH1 0x1F NOT PUSH1 0x1F DUP4 ADD AND DUP6 ADD ADD SWAP3 POP POP POP SWAP3 SWAP2 POP POP JUMP JUMPDEST PUSH1 0x1 DUP2 DUP2 SHR SWAP1 DUP3 AND DUP1 PUSH2 0x13E JUMPI PUSH1 0x7F DUP3 AND SWAP2 POP JUMPDEST PUSH1 0x20 DUP3 LT DUP2 SUB PUSH2 0x15E JUMPI PUSH4 0x4E487B71 PUSH1 0xE0 SHL PUSH1 0x0 MSTORE PUSH1 0x22 PUSH1 0x4 MSTORE PUSH1 0x24 PUSH1 0x0 REVERT JUMPDEST POP SWAP2 SWAP1 POP JUMP INVALID LOG2 PUSH5 0x6970667358 0x22 SLT KECCAK256 0xDA 0xBF 0xD9 0xB1 0x2F DELEGATECALL 0xEF POP 0x28 BLOCKHASH CREATE 0xC8 EXP 0xE BALANCE JUMPDEST RETURNDATACOPY 0x22 0xE2 0xD5 PUSH1 0xB0 0x26 SWAP1 CREATE SWAP8 GASPRICE 0x4F SWAP1 SSTORE 0xAA 0xC5 PUSH5 0x736F6C6343 STOP ADDMOD SGT STOP CALLER "
				},
				"gasEstimates": {
					"creation": {
						"codeDepositCost": "82000",
						"executionCost": "infinite",
						"totalCost": "infinite"
					},
					"external": {
						"text()": "infinite"
					}
				},
				"methodIdentifiers": {
					"text()": "1f1bd692"
				}
			},
			"storageLayout": {
				"storage": [
					{
						"astId": 16,
						"contract": "contracts/case/Constructor.sol:Y",
						"label": "text",
						"offset": 0,
						"slot": "0",
						"type": "t_string_storage"
					}
				],
				"types": {
					"t_string_storage": {
						"encoding": "bytes",
						"label": "string",
						"numberOfBytes": "32"
					}
				}
			},
			"userdoc": {
				"kind": "user",
				"methods": {},
				"version": 1
			}
		}
	}
}