{
	"contracts/case/FunctionModifier.sol": {
		"FunctionModifier": {
			"abi": [
				{
					"inputs": [],
					"stateMutability": "nonpayable",
					"type": "constructor"
				},
				{
					"inputs": [
						{
							"internalType": "address",
							"name": "_newOwner",
							"type": "address"
						}
					],
					"name": "changeOwner",
					"outputs": [],
					"stateMutability": "nonpayable",
					"type": "function"
				},
				{
					"inputs": [
						{
							"internalType": "uint256",
							"name": "i",
							"type": "uint256"
						}
					],
					"name": "decrement",
					"outputs": [],
					"stateMutability": "nonpayable",
					"type": "function"
				},
				{
					"inputs": [],
					"name": "locked",
					"outputs": [
						{
							"internalType": "bool",
							"name": "",
							"type": "bool"
						}
					],
					"stateMutability": "view",
					"type": "function"
				},
				{
					"inputs": [],
					"name": "owner",
					"outputs": [
						{
							"internalType": "address",
							"name": "",
							"type": "address"
						}
					],
					"stateMutability": "view",
					"type": "function"
				},
				{
					"inputs": [],
					"name": "x",
					"outputs": [
						{
							"internalType": "uint256",
							"name": "",
							"type": "uint256"
						}
					],
					"stateMutability": "view",
					"type": "function"
				}
			],
			"devdoc": {
				"kind": "dev",
				"methods": {},
				"version": 1
			},
			"evm": {
				"assembly": "    /* \"contracts/case/FunctionModifier.sol\":60:876  contract FunctionModifier {... */\n  mstore(0x40, 0x80)\n    /* \"contracts/case/FunctionModifier.sol\":139:141  10 */\n  0x0a\n    /* \"contracts/case/FunctionModifier.sol\":120:141  uint256 public x = 10 */\n  0x01\n  sstore\n    /* \"contracts/case/FunctionModifier.sol\":175:226  constructor() {... */\n  callvalue\n  dup1\n  iszero\n  tag_1\n  jumpi\n  0x00\n  dup1\n  revert\ntag_1:\n  pop\n    /* \"contracts/case/FunctionModifier.sol\":200:205  owner */\n  0x00\n    /* \"contracts/case/FunctionModifier.sol\":200:218  owner = msg.sender */\n  dup1\n  sload\n  not(sub(shl(0xa0, 0x01), 0x01))\n  and\n    /* \"contracts/case/FunctionModifier.sol\":208:218  msg.sender */\n  caller\n    /* \"contracts/case/FunctionModifier.sol\":200:218  owner = msg.sender */\n  or\n  swap1\n  sstore\n    /* \"contracts/case/FunctionModifier.sol\":60:876  contract FunctionModifier {... */\n  dataSize(sub_0)\n  dup1\n  dataOffset(sub_0)\n  0x00\n  codecopy\n  0x00\n  return\nstop\n\nsub_0: assembly {\n        /* \"contracts/case/FunctionModifier.sol\":60:876  contract FunctionModifier {... */\n      mstore(0x40, 0x80)\n      callvalue\n      dup1\n      iszero\n      tag_1\n      jumpi\n      0x00\n      dup1\n      revert\n    tag_1:\n      pop\n      jumpi(tag_2, lt(calldatasize, 0x04))\n      shr(0xe0, calldataload(0x00))\n      dup1\n      0x0c55699c\n      eq\n      tag_3\n      jumpi\n      dup1\n      0x3a9ebefd\n      eq\n      tag_4\n      jumpi\n      dup1\n      0x8da5cb5b\n      eq\n      tag_5\n      jumpi\n      dup1\n      0xa6f9dae1\n      eq\n      tag_6\n      jumpi\n      dup1\n      0xcf309012\n      eq\n      tag_7\n      jumpi\n    tag_2:\n      0x00\n      dup1\n      revert\n        /* \"contracts/case/FunctionModifier.sol\":120:141  uint256 public x = 10 */\n    tag_3:\n      tag_8\n      sload(0x01)\n      dup2\n      jump\n    tag_8:\n      mload(0x40)\n        /* \"#utility.yul\":160:185   */\n      swap1\n      dup2\n      mstore\n        /* \"#utility.yul\":148:150   */\n      0x20\n        /* \"#utility.yul\":133:151   */\n      add\n        /* \"contracts/case/FunctionModifier.sol\":120:141  uint256 public x = 10 */\n    tag_10:\n      mload(0x40)\n      dup1\n      swap2\n      sub\n      swap1\n      return\n        /* \"contracts/case/FunctionModifier.sol\":734:873  function decrement(uint256 i) public noReentrancy {... */\n    tag_4:\n      tag_12\n      tag_13\n      calldatasize\n      0x04\n      tag_14\n      jump\t// in\n    tag_13:\n      tag_15\n      jump\t// in\n    tag_12:\n      stop\n        /* \"contracts/case/FunctionModifier.sol\":93:113  address public owner */\n    tag_5:\n      sload(0x00)\n      tag_16\n      swap1\n      sub(shl(0xa0, 0x01), 0x01)\n      and\n      dup2\n      jump\n    tag_16:\n      mload(0x40)\n      sub(shl(0xa0, 0x01), 0x01)\n        /* \"#utility.yul\":545:577   */\n      swap1\n      swap2\n      and\n        /* \"#utility.yul\":527:578   */\n      dup2\n      mstore\n        /* \"#utility.yul\":515:517   */\n      0x20\n        /* \"#utility.yul\":500:518   */\n      add\n        /* \"contracts/case/FunctionModifier.sol\":93:113  address public owner */\n      tag_10\n        /* \"#utility.yul\":381:584   */\n      jump\n        /* \"contracts/case/FunctionModifier.sol\":460:577  function changeOwner(address _newOwner) public onlyOwner validAddress(_newOwner) {... */\n    tag_6:\n      tag_12\n      tag_21\n      calldatasize\n      0x04\n      tag_22\n      jump\t// in\n    tag_21:\n      tag_23\n      jump\t// in\n        /* \"contracts/case/FunctionModifier.sol\":148:166  bool public locked */\n    tag_7:\n      sload(0x02)\n      tag_24\n      swap1\n      0xff\n      and\n      dup2\n      jump\n    tag_24:\n      mload(0x40)\n        /* \"#utility.yul\":1045:1059   */\n      swap1\n      iszero\n        /* \"#utility.yul\":1038:1060   */\n      iszero\n        /* \"#utility.yul\":1020:1061   */\n      dup2\n      mstore\n        /* \"#utility.yul\":1008:1010   */\n      0x20\n        /* \"#utility.yul\":993:1011   */\n      add\n        /* \"contracts/case/FunctionModifier.sol\":148:166  bool public locked */\n      tag_10\n        /* \"#utility.yul\":880:1067   */\n      jump\n        /* \"contracts/case/FunctionModifier.sol\":734:873  function decrement(uint256 i) public noReentrancy {... */\n    tag_15:\n        /* \"contracts/case/FunctionModifier.sol\":633:639  locked */\n      and(0xff, sload(0x02))\n        /* \"contracts/case/FunctionModifier.sol\":632:639  !locked */\n      iszero\n        /* \"contracts/case/FunctionModifier.sol\":624:657  require(!locked, \"No reentrancy\") */\n      tag_29\n      jumpi\n      mload(0x40)\n      shl(0xe5, 0x461bcd)\n      dup2\n      mstore\n        /* \"#utility.yul\":1274:1276   */\n      0x20\n        /* \"contracts/case/FunctionModifier.sol\":624:657  require(!locked, \"No reentrancy\") */\n      0x04\n      dup3\n      add\n        /* \"#utility.yul\":1256:1277   */\n      mstore\n        /* \"#utility.yul\":1313:1315   */\n      0x0d\n        /* \"#utility.yul\":1293:1311   */\n      0x24\n      dup3\n      add\n        /* \"#utility.yul\":1286:1316   */\n      mstore\n      shl(0x98, 0x4e6f207265656e7472616e6379)\n        /* \"#utility.yul\":1332:1350   */\n      0x44\n      dup3\n      add\n        /* \"#utility.yul\":1325:1368   */\n      mstore\n        /* \"#utility.yul\":1385:1403   */\n      0x64\n      add\n        /* \"contracts/case/FunctionModifier.sol\":624:657  require(!locked, \"No reentrancy\") */\n    tag_30:\n      mload(0x40)\n      dup1\n      swap2\n      sub\n      swap1\n      revert\n    tag_29:\n        /* \"contracts/case/FunctionModifier.sol\":668:674  locked */\n      0x02\n        /* \"contracts/case/FunctionModifier.sol\":668:681  locked = true */\n      dup1\n      sload\n      not(0xff)\n      and\n        /* \"contracts/case/FunctionModifier.sol\":677:681  true */\n      0x01\n        /* \"contracts/case/FunctionModifier.sol\":668:681  locked = true */\n      swap1\n      dup2\n      or\n      swap1\n      swap2\n      sstore\n        /* \"contracts/case/FunctionModifier.sol\":795:801  x -= i */\n      dup1\n      sload\n        /* \"contracts/case/FunctionModifier.sol\":800:801  i */\n      dup3\n      swap2\n        /* \"contracts/case/FunctionModifier.sol\":677:681  true */\n      swap1\n        /* \"contracts/case/FunctionModifier.sol\":668:674  locked */\n      0x00\n      swap1\n        /* \"contracts/case/FunctionModifier.sol\":795:801  x -= i */\n      tag_33\n      swap1\n        /* \"contracts/case/FunctionModifier.sol\":800:801  i */\n      dup5\n      swap1\n        /* \"contracts/case/FunctionModifier.sol\":795:801  x -= i */\n      tag_34\n      jump\t// in\n    tag_33:\n      swap1\n      swap2\n      sstore\n      pop\n      pop\n        /* \"contracts/case/FunctionModifier.sol\":820:821  1 */\n      0x01\n        /* \"contracts/case/FunctionModifier.sol\":816:821  i > 1 */\n      dup2\n      gt\n        /* \"contracts/case/FunctionModifier.sol\":812:866  if (i > 1) {... */\n      iszero\n      tag_36\n      jumpi\n        /* \"contracts/case/FunctionModifier.sol\":838:854  decrement(i - 1) */\n      tag_36\n        /* \"contracts/case/FunctionModifier.sol\":848:853  i - 1 */\n      tag_13\n        /* \"contracts/case/FunctionModifier.sol\":852:853  1 */\n      0x01\n        /* \"contracts/case/FunctionModifier.sol\":848:849  i */\n      dup4\n        /* \"contracts/case/FunctionModifier.sol\":848:853  i - 1 */\n      tag_34\n      jump\t// in\n        /* \"contracts/case/FunctionModifier.sol\":838:854  decrement(i - 1) */\n    tag_36:\n      pop\n        /* \"contracts/case/FunctionModifier.sol\":704:710  locked */\n      0x02\n        /* \"contracts/case/FunctionModifier.sol\":704:718  locked = false */\n      dup1\n      sload\n      not(0xff)\n      and\n      swap1\n      sstore\n        /* \"contracts/case/FunctionModifier.sol\":734:873  function decrement(uint256 i) public noReentrancy {... */\n      jump\t// out\n        /* \"contracts/case/FunctionModifier.sol\":460:577  function changeOwner(address _newOwner) public onlyOwner validAddress(_newOwner) {... */\n    tag_23:\n        /* \"contracts/case/FunctionModifier.sol\":288:293  owner */\n      and(sub(shl(0xa0, 0x01), 0x01), sload(0x00))\n        /* \"contracts/case/FunctionModifier.sol\":274:284  msg.sender */\n      caller\n        /* \"contracts/case/FunctionModifier.sol\":274:293  msg.sender == owner */\n      eq\n        /* \"contracts/case/FunctionModifier.sol\":266:307  require(msg.sender == owner, \"Not owner\") */\n      tag_39\n      jumpi\n      mload(0x40)\n      shl(0xe5, 0x461bcd)\n      dup2\n      mstore\n        /* \"#utility.yul\":1846:1848   */\n      0x20\n        /* \"contracts/case/FunctionModifier.sol\":266:307  require(msg.sender == owner, \"Not owner\") */\n      0x04\n      dup3\n      add\n        /* \"#utility.yul\":1828:1849   */\n      mstore\n        /* \"#utility.yul\":1885:1886   */\n      0x09\n        /* \"#utility.yul\":1865:1883   */\n      0x24\n      dup3\n      add\n        /* \"#utility.yul\":1858:1887   */\n      mstore\n      shl(0xb9, 0x2737ba1037bbb732b9)\n        /* \"#utility.yul\":1903:1921   */\n      0x44\n      dup3\n      add\n        /* \"#utility.yul\":1896:1935   */\n      mstore\n        /* \"#utility.yul\":1952:1970   */\n      0x64\n      add\n        /* \"contracts/case/FunctionModifier.sol\":266:307  require(msg.sender == owner, \"Not owner\") */\n      tag_30\n        /* \"#utility.yul\":1644:1976   */\n      jump\n        /* \"contracts/case/FunctionModifier.sol\":266:307  require(msg.sender == owner, \"Not owner\") */\n    tag_39:\n        /* \"contracts/case/FunctionModifier.sol\":530:539  _newOwner */\n      dup1\n      sub(shl(0xa0, 0x01), 0x01)\n        /* \"contracts/case/FunctionModifier.sol\":391:410  _addr != address(0) */\n      dup2\n      and\n        /* \"contracts/case/FunctionModifier.sol\":383:432  require(_addr != address(0), \"Not valid address\") */\n      tag_43\n      jumpi\n      mload(0x40)\n      shl(0xe5, 0x461bcd)\n      dup2\n      mstore\n        /* \"#utility.yul\":2183:2185   */\n      0x20\n        /* \"contracts/case/FunctionModifier.sol\":383:432  require(_addr != address(0), \"Not valid address\") */\n      0x04\n      dup3\n      add\n        /* \"#utility.yul\":2165:2186   */\n      mstore\n        /* \"#utility.yul\":2222:2224   */\n      0x11\n        /* \"#utility.yul\":2202:2220   */\n      0x24\n      dup3\n      add\n        /* \"#utility.yul\":2195:2225   */\n      mstore\n      shl(0x78, 0x4e6f742076616c69642061646472657373)\n        /* \"#utility.yul\":2241:2259   */\n      0x44\n      dup3\n      add\n        /* \"#utility.yul\":2234:2281   */\n      mstore\n        /* \"#utility.yul\":2298:2316   */\n      0x64\n      add\n        /* \"contracts/case/FunctionModifier.sol\":383:432  require(_addr != address(0), \"Not valid address\") */\n      tag_30\n        /* \"#utility.yul\":1981:2322   */\n      jump\n        /* \"contracts/case/FunctionModifier.sol\":383:432  require(_addr != address(0), \"Not valid address\") */\n    tag_43:\n      pop\n        /* \"contracts/case/FunctionModifier.sol\":552:557  owner */\n      0x00\n        /* \"contracts/case/FunctionModifier.sol\":552:569  owner = _newOwner */\n      dup1\n      sload\n      not(sub(shl(0xa0, 0x01), 0x01))\n      and\n      sub(shl(0xa0, 0x01), 0x01)\n      swap3\n      swap1\n      swap3\n      and\n      swap2\n      swap1\n      swap2\n      or\n      swap1\n      sstore\n        /* \"contracts/case/FunctionModifier.sol\":460:577  function changeOwner(address _newOwner) public onlyOwner validAddress(_newOwner) {... */\n      jump\t// out\n        /* \"#utility.yul\":196:376   */\n    tag_14:\n        /* \"#utility.yul\":255:261   */\n      0x00\n        /* \"#utility.yul\":308:310   */\n      0x20\n        /* \"#utility.yul\":296:305   */\n      dup3\n        /* \"#utility.yul\":287:294   */\n      dup5\n        /* \"#utility.yul\":283:306   */\n      sub\n        /* \"#utility.yul\":279:311   */\n      slt\n        /* \"#utility.yul\":276:328   */\n      iszero\n      tag_50\n      jumpi\n        /* \"#utility.yul\":324:325   */\n      0x00\n        /* \"#utility.yul\":321:322   */\n      dup1\n        /* \"#utility.yul\":314:326   */\n      revert\n        /* \"#utility.yul\":276:328   */\n    tag_50:\n      pop\n        /* \"#utility.yul\":347:370   */\n      calldataload\n      swap2\n        /* \"#utility.yul\":196:376   */\n      swap1\n      pop\n      jump\t// out\n        /* \"#utility.yul\":589:875   */\n    tag_22:\n        /* \"#utility.yul\":648:654   */\n      0x00\n        /* \"#utility.yul\":701:703   */\n      0x20\n        /* \"#utility.yul\":689:698   */\n      dup3\n        /* \"#utility.yul\":680:687   */\n      dup5\n        /* \"#utility.yul\":676:699   */\n      sub\n        /* \"#utility.yul\":672:704   */\n      slt\n        /* \"#utility.yul\":669:721   */\n      iszero\n      tag_53\n      jumpi\n        /* \"#utility.yul\":717:718   */\n      0x00\n        /* \"#utility.yul\":714:715   */\n      dup1\n        /* \"#utility.yul\":707:719   */\n      revert\n        /* \"#utility.yul\":669:721   */\n    tag_53:\n        /* \"#utility.yul\":743:766   */\n      dup2\n      calldataload\n      sub(shl(0xa0, 0x01), 0x01)\n        /* \"#utility.yul\":795:826   */\n      dup2\n      and\n        /* \"#utility.yul\":785:827   */\n      dup2\n      eq\n        /* \"#utility.yul\":775:845   */\n      tag_54\n      jumpi\n        /* \"#utility.yul\":841:842   */\n      0x00\n        /* \"#utility.yul\":838:839   */\n      dup1\n        /* \"#utility.yul\":831:843   */\n      revert\n        /* \"#utility.yul\":775:845   */\n    tag_54:\n        /* \"#utility.yul\":864:869   */\n      swap4\n        /* \"#utility.yul\":589:875   */\n      swap3\n      pop\n      pop\n      pop\n      jump\t// out\n        /* \"#utility.yul\":1414:1639   */\n    tag_34:\n        /* \"#utility.yul\":1481:1490   */\n      dup2\n      dup2\n      sub\n        /* \"#utility.yul\":1502:1513   */\n      dup2\n      dup2\n      gt\n        /* \"#utility.yul\":1499:1633   */\n      iszero\n      tag_58\n      jumpi\n        /* \"#utility.yul\":1555:1565   */\n      0x4e487b71\n        /* \"#utility.yul\":1550:1553   */\n      0xe0\n        /* \"#utility.yul\":1546:1566   */\n      shl\n        /* \"#utility.yul\":1543:1544   */\n      0x00\n        /* \"#utility.yul\":1536:1567   */\n      mstore\n        /* \"#utility.yul\":1590:1594   */\n      0x11\n        /* \"#utility.yul\":1587:1588   */\n      0x04\n        /* \"#utility.yul\":1580:1595   */\n      mstore\n        /* \"#utility.yul\":1618:1622   */\n      0x24\n        /* \"#utility.yul\":1615:1616   */\n      0x00\n        /* \"#utility.yul\":1608:1623   */\n      revert\n        /* \"#utility.yul\":1499:1633   */\n    tag_58:\n        /* \"#utility.yul\":1414:1639   */\n      swap3\n      swap2\n      pop\n      pop\n      jump\t// out\n\n    auxdata: 0xa2646970667358221220c82f8fe821f3798c43a8b1019123104036b9eb39204cfdbb9a33707e196df3cd64736f6c63430008130033\n}\n",
				"bytecode": {
					"linkReferences": {},
					"object": "6080604052600a60015534801561001557600080fd5b50600080546001600160a01b031916331790556102d6806100376000396000f3fe608060405234801561001057600080fd5b50600436106100575760003560e01c80630c55699c1461005c5780633a9ebefd146100785780638da5cb5b1461008d578063a6f9dae1146100b8578063cf309012146100cb575b600080fd5b61006560015481565b6040519081526020015b60405180910390f35b61008b610086366004610230565b6100e8565b005b6000546100a0906001600160a01b031681565b6040516001600160a01b03909116815260200161006f565b61008b6100c6366004610249565b61017c565b6002546100d89060ff1681565b604051901515815260200161006f565b60025460ff16156101305760405162461bcd60e51b815260206004820152600d60248201526c4e6f207265656e7472616e637960981b60448201526064015b60405180910390fd5b6002805460ff191660019081179091558054829190600090610153908490610279565b9091555050600181111561016f5761016f610086600183610279565b506002805460ff19169055565b6000546001600160a01b031633146101c25760405162461bcd60e51b81526020600482015260096024820152682737ba1037bbb732b960b91b6044820152606401610127565b806001600160a01b03811661020d5760405162461bcd60e51b81526020600482015260116024820152704e6f742076616c6964206164647265737360781b6044820152606401610127565b50600080546001600160a01b0319166001600160a01b0392909216919091179055565b60006020828403121561024257600080fd5b5035919050565b60006020828403121561025b57600080fd5b81356001600160a01b038116811461027257600080fd5b9392505050565b8181038181111561029a57634e487b7160e01b600052601160045260246000fd5b9291505056fea2646970667358221220c82f8fe821f3798c43a8b1019123104036b9eb39204cfdbb9a33707e196df3cd64736f6c63430008130033",
					"opcodes": "PUSH1 0x80 PUSH1 0x40 MSTORE PUSH1 0xA PUSH1 0x1 SSTORE CALLVALUE DUP1 ISZERO PUSH2 0x15 JUMPI PUSH1 0x0 DUP1 REVERT JUMPDEST POP PUSH1 0x0 DUP1 SLOAD PUSH1 0x1 PUSH1 0x1 PUSH1 0xA0 SHL SUB NOT AND CALLER OR SWAP1 SSTORE PUSH2 0x2D6 DUP1 PUSH2 0x37 PUSH1 0x0 CODECOPY PUSH1 0x0 RETURN INVALID PUSH1 0x80 PUSH1 0x40 MSTORE CALLVALUE DUP1 ISZERO PUSH2 0x10 JUMPI PUSH1 0x0 DUP1 REVERT JUMPDEST POP PUSH1 0x4 CALLDATASIZE LT PUSH2 0x57 JUMPI PUSH1 0x0 CALLDATALOAD PUSH1 0xE0 SHR DUP1 PUSH4 0xC55699C EQ PUSH2 0x5C JUMPI DUP1 PUSH4 0x3A9EBEFD EQ PUSH2 0x78 JUMPI DUP1 PUSH4 0x8DA5CB5B EQ PUSH2 0x8D JUMPI DUP1 PUSH4 0xA6F9DAE1 EQ PUSH2 0xB8 JUMPI DUP1 PUSH4 0xCF309012 EQ PUSH2 0xCB JUMPI JUMPDEST PUSH1 0x0 DUP1 REVERT JUMPDEST PUSH2 0x65 PUSH1 0x1 SLOAD DUP2 JUMP JUMPDEST PUSH1 0x40 MLOAD SWAP1 DUP2 MSTORE PUSH1 0x20 ADD JUMPDEST PUSH1 0x40 MLOAD DUP1 SWAP2 SUB SWAP1 RETURN JUMPDEST PUSH2 0x8B PUSH2 0x86 CALLDATASIZE PUSH1 0x4 PUSH2 0x230 JUMP JUMPDEST PUSH2 0xE8 JUMP JUMPDEST STOP JUMPDEST PUSH1 0x0 SLOAD PUSH2 0xA0 SWAP1 PUSH1 0x1 PUSH1 0x1 PUSH1 0xA0 SHL SUB AND DUP2 JUMP JUMPDEST PUSH1 0x40 MLOAD PUSH1 0x1 PUSH1 0x1 PUSH1 0xA0 SHL SUB SWAP1 SWAP2 AND DUP2 MSTORE PUSH1 0x20 ADD PUSH2 0x6F JUMP JUMPDEST PUSH2 0x8B PUSH2 0xC6 CALLDATASIZE PUSH1 0x4 PUSH2 0x249 JUMP JUMPDEST PUSH2 0x17C JUMP JUMPDEST PUSH1 0x2 SLOAD PUSH2 0xD8 SWAP1 PUSH1 0xFF AND DUP2 JUMP JUMPDEST PUSH1 0x40 MLOAD SWAP1 ISZERO ISZERO DUP2 MSTORE PUSH1 0x20 ADD PUSH2 0x6F JUMP JUMPDEST PUSH1 0x2 SLOAD PUSH1 0xFF AND ISZERO PUSH2 0x130 JUMPI PUSH1 0x40 MLOAD PUSH3 0x461BCD PUSH1 0xE5 SHL DUP2 MSTORE PUSH1 0x20 PUSH1 0x4 DUP3 ADD MSTORE PUSH1 0xD PUSH1 0x24 DUP3 ADD MSTORE PUSH13 0x4E6F207265656E7472616E6379 PUSH1 0x98 SHL PUSH1 0x44 DUP3 ADD MSTORE PUSH1 0x64 ADD JUMPDEST PUSH1 0x40 MLOAD DUP1 SWAP2 SUB SWAP1 REVERT JUMPDEST PUSH1 0x2 DUP1 SLOAD PUSH1 0xFF NOT AND PUSH1 0x1 SWAP1 DUP2 OR SWAP1 SWAP2 SSTORE DUP1 SLOAD DUP3 SWAP2 SWAP1 PUSH1 0x0 SWAP1 PUSH2 0x153 SWAP1 DUP5 SWAP1 PUSH2 0x279 JUMP JUMPDEST SWAP1 SWAP2 SSTORE POP POP PUSH1 0x1 DUP2 GT ISZERO PUSH2 0x16F JUMPI PUSH2 0x16F PUSH2 0x86 PUSH1 0x1 DUP4 PUSH2 0x279 JUMP JUMPDEST POP PUSH1 0x2 DUP1 SLOAD PUSH1 0xFF NOT AND SWAP1 SSTORE JUMP JUMPDEST PUSH1 0x0 SLOAD PUSH1 0x1 PUSH1 0x1 PUSH1 0xA0 SHL SUB AND CALLER EQ PUSH2 0x1C2 JUMPI PUSH1 0x40 MLOAD PUSH3 0x461BCD PUSH1 0xE5 SHL DUP2 MSTORE PUSH1 0x20 PUSH1 0x4 DUP3 ADD MSTORE PUSH1 0x9 PUSH1 0x24 DUP3 ADD MSTORE PUSH9 0x2737BA1037BBB732B9 PUSH1 0xB9 SHL PUSH1 0x44 DUP3 ADD MSTORE PUSH1 0x64 ADD PUSH2 0x127 JUMP JUMPDEST DUP1 PUSH1 0x1 PUSH1 0x1 PUSH1 0xA0 SHL SUB DUP2 AND PUSH2 0x20D JUMPI PUSH1 0x40 MLOAD PUSH3 0x461BCD PUSH1 0xE5 SHL DUP2 MSTORE PUSH1 0x20 PUSH1 0x4 DUP3 ADD MSTORE PUSH1 0x11 PUSH1 0x24 DUP3 ADD MSTORE PUSH17 0x4E6F742076616C69642061646472657373 PUSH1 0x78 SHL PUSH1 0x44 DUP3 ADD MSTORE PUSH1 0x64 ADD PUSH2 0x127 JUMP JUMPDEST POP PUSH1 0x0 DUP1 SLOAD PUSH1 0x1 PUSH1 0x1 PUSH1 0xA0 SHL SUB NOT AND PUSH1 0x1 PUSH1 0x1 PUSH1 0xA0 SHL SUB SWAP3 SWAP1 SWAP3 AND SWAP2 SWAP1 SWAP2 OR SWAP1 SSTORE JUMP JUMPDEST PUSH1 0x0 PUSH1 0x20 DUP3 DUP5 SUB SLT ISZERO PUSH2 0x242 JUMPI PUSH1 0x0 DUP1 REVERT JUMPDEST POP CALLDATALOAD SWAP2 SWAP1 POP JUMP JUMPDEST PUSH1 0x0 PUSH1 0x20 DUP3 DUP5 SUB SLT ISZERO PUSH2 0x25B JUMPI PUSH1 0x0 DUP1 REVERT JUMPDEST DUP2 CALLDATALOAD PUSH1 0x1 PUSH1 0x1 PUSH1 0xA0 SHL SUB DUP2 AND DUP2 EQ PUSH2 0x272 JUMPI PUSH1 0x0 DUP1 REVERT JUMPDEST SWAP4 SWAP3 POP POP POP JUMP JUMPDEST DUP2 DUP2 SUB DUP2 DUP2 GT ISZERO PUSH2 0x29A JUMPI PUSH4 0x4E487B71 PUSH1 0xE0 SHL PUSH1 0x0 MSTORE PUSH1 0x11 PUSH1 0x4 MSTORE PUSH1 0x24 PUSH1 0x0 REVERT JUMPDEST SWAP3 SWAP2 POP POP JUMP INVALID LOG2 PUSH5 0x6970667358 0x22 SLT KECCAK256 0xC8 0x2F DUP16 0xE8 0x21 RETURN PUSH26 0x8C43A8B1019123104036B9EB39204CFDBB9A33707E196DF3CD64 PUSH20 0x6F6C634300081300330000000000000000000000 "
				},
				"gasEstimates": {
					"creation": {
						"codeDepositCost": "145200",
						"executionCost": "46531",
						"totalCost": "191731"
					},
					"external": {
						"changeOwner(address)": "26760",
						"decrement(uint256)": "infinite",
						"locked()": "2376",
						"owner()": "2359",
						"x()": "2262"
					}
				},
				"methodIdentifiers": {
					"changeOwner(address)": "a6f9dae1",
					"decrement(uint256)": "3a9ebefd",
					"locked()": "cf309012",
					"owner()": "8da5cb5b",
					"x()": "0c55699c"
				}
			},
			"storageLayout": {
				"storage": [
					{
						"astId": 3,
						"contract": "contracts/case/FunctionModifier.sol:FunctionModifier",
						"label": "owner",
						"offset": 0,
						"slot": "0",
						"type": "t_address"
					},
					{
						"astId": 6,
						"contract": "contracts/case/FunctionModifier.sol:FunctionModifier",
						"label": "x",
						"offset": 0,
						"slot": "1",
						"type": "t_uint256"
					},
					{
						"astId": 8,
						"contract": "contracts/case/FunctionModifier.sol:FunctionModifier",
						"label": "locked",
						"offset": 0,
						"slot": "2",
						"type": "t_bool"
					}
				],
				"types": {
					"t_address": {
						"encoding": "inplace",
						"label": "address",
						"numberOfBytes": "20"
					},
					"t_bool": {
						"encoding": "inplace",
						"label": "bool",
						"numberOfBytes": "1"
					},
					"t_uint256": {
						"encoding": "inplace",
						"label": "uint256",
						"numberOfBytes": "32"
					}
				}
			},
			"userdoc": {
				"kind": "user",
				"methods": {},
				"version": 1
			}
		}
	}
}