{
	"contracts/case/Events.sol": {
		"Events": {
			"abi": [
				{
					"anonymous": false,
					"inputs": [],
					"name": "AnotherLog",
					"type": "event"
				},
				{
					"anonymous": false,
					"inputs": [
						{
							"indexed": true,
							"internalType": "address",
							"name": "sender",
							"type": "address"
						},
						{
							"indexed": false,
							"internalType": "string",
							"name": "message",
							"type": "string"
						}
					],
					"name": "Log",
					"type": "event"
				},
				{
					"inputs": [],
					"name": "log",
					"outputs": [],
					"stateMutability": "nonpayable",
					"type": "function"
				}
			],
			"devdoc": {
				"kind": "dev",
				"methods": {},
				"version": 1
			},
			"evm": {
				"assembly": "    /* \"contracts/case/Events.sol\":60:465  contract Events {... */\n  mstore(0x40, 0x80)\n  callvalue\n  dup1\n  iszero\n  tag_1\n  jumpi\n  0x00\n  dup1\n  revert\ntag_1:\n  pop\n  dataSize(sub_0)\n  dup1\n  dataOffset(sub_0)\n  0x00\n  codecopy\n  0x00\n  return\nstop\n\nsub_0: assembly {\n        /* \"contracts/case/Events.sol\":60:465  contract Events {... */\n      mstore(0x40, 0x80)\n      callvalue\n      dup1\n      iszero\n      tag_1\n      jumpi\n      0x00\n      dup1\n      revert\n    tag_1:\n      pop\n      jumpi(tag_2, lt(calldatasize, 0x04))\n      shr(0xe0, calldataload(0x00))\n      dup1\n      0x51973ec9\n      eq\n      tag_3\n      jumpi\n    tag_2:\n      0x00\n      dup1\n      revert\n        /* \"contracts/case/Events.sol\":312:462  function log() public {... */\n    tag_3:\n      tag_4\n      tag_5\n      jump\t// in\n    tag_4:\n      stop\n    tag_5:\n        /* \"contracts/case/Events.sol\":354:364  msg.sender */\n      caller\n      sub(shl(0xa0, 0x01), 0x01)\n        /* \"contracts/case/Events.sol\":350:381  Log(msg.sender, \"Hello World!\") */\n      and\n      0x0738f4da267a110d810e6e89fc59e46be6de0c37b1d5cd559b267dc3688e74e0\n      mload(0x40)\n      tag_7\n      swap1\n        /* \"#utility.yul\":216:218   */\n      0x20\n        /* \"#utility.yul\":198:219   */\n      dup1\n      dup3\n      mstore\n        /* \"#utility.yul\":255:257   */\n      0x0c\n        /* \"#utility.yul\":235:253   */\n      swap1\n      dup3\n      add\n        /* \"#utility.yul\":228:258   */\n      mstore\n      shl(0xa0, 0x48656c6c6f20576f726c6421)\n        /* \"#utility.yul\":289:291   */\n      0x40\n        /* \"#utility.yul\":274:292   */\n      dup3\n      add\n        /* \"#utility.yul\":267:309   */\n      mstore\n        /* \"#utility.yul\":341:343   */\n      0x60\n        /* \"#utility.yul\":326:344   */\n      add\n      swap1\n        /* \"#utility.yul\":14:350   */\n      jump\n        /* \"contracts/case/Events.sol\":350:381  Log(msg.sender, \"Hello World!\") */\n    tag_7:\n      mload(0x40)\n      dup1\n      swap2\n      sub\n      swap1\n      log2\n        /* \"contracts/case/Events.sol\":401:411  msg.sender */\n      caller\n      sub(shl(0xa0, 0x01), 0x01)\n        /* \"contracts/case/Events.sol\":397:426  Log(msg.sender, \"Hello EVM!\") */\n      and\n      0x0738f4da267a110d810e6e89fc59e46be6de0c37b1d5cd559b267dc3688e74e0\n      mload(0x40)\n      tag_9\n      swap1\n        /* \"#utility.yul\":557:559   */\n      0x20\n        /* \"#utility.yul\":539:560   */\n      dup1\n      dup3\n      mstore\n        /* \"#utility.yul\":596:598   */\n      0x0a\n        /* \"#utility.yul\":576:594   */\n      swap1\n      dup3\n      add\n        /* \"#utility.yul\":569:599   */\n      mstore\n      shl(0xb0, 0x48656c6c6f2045564d21)\n        /* \"#utility.yul\":630:632   */\n      0x40\n        /* \"#utility.yul\":615:633   */\n      dup3\n      add\n        /* \"#utility.yul\":608:648   */\n      mstore\n        /* \"#utility.yul\":680:682   */\n      0x60\n        /* \"#utility.yul\":665:683   */\n      add\n      swap1\n        /* \"#utility.yul\":355:689   */\n      jump\n        /* \"contracts/case/Events.sol\":397:426  Log(msg.sender, \"Hello EVM!\") */\n    tag_9:\n      mload(0x40)\n      dup1\n      swap2\n      sub\n      swap1\n      log2\n        /* \"contracts/case/Events.sol\":442:454  AnotherLog() */\n      mload(0x40)\n      0xfe1a3ad11e425db4b8e6af35d11c50118826a496df73006fc724cb27f2b99946\n      swap1\n      0x00\n      swap1\n      log1\n        /* \"contracts/case/Events.sol\":312:462  function log() public {... */\n      jump\t// out\n\n    auxdata: 0xa264697066735822122044851a77a3a7ca0378fc355bd2743f1973c8152c13990df6c7684e451528049364736f6c63430008130033\n}\n",
				"bytecode": {
					"linkReferences": {},
					"object": "608060405234801561001057600080fd5b50610159806100206000396000f3fe608060405234801561001057600080fd5b506004361061002b5760003560e01c806351973ec914610030575b600080fd5b61003861003a565b005b336001600160a01b03167f0738f4da267a110d810e6e89fc59e46be6de0c37b1d5cd559b267dc3688e74e0604051610092906020808252600c908201526b48656c6c6f20576f726c642160a01b604082015260600190565b60405180910390a2336001600160a01b03167f0738f4da267a110d810e6e89fc59e46be6de0c37b1d5cd559b267dc3688e74e06040516100f0906020808252600a908201526948656c6c6f2045564d2160b01b604082015260600190565b60405180910390a26040517ffe1a3ad11e425db4b8e6af35d11c50118826a496df73006fc724cb27f2b9994690600090a156fea264697066735822122044851a77a3a7ca0378fc355bd2743f1973c8152c13990df6c7684e451528049364736f6c63430008130033",
					"opcodes": "PUSH1 0x80 PUSH1 0x40 MSTORE CALLVALUE DUP1 ISZERO PUSH2 0x10 JUMPI PUSH1 0x0 DUP1 REVERT JUMPDEST POP PUSH2 0x159 DUP1 PUSH2 0x20 PUSH1 0x0 CODECOPY PUSH1 0x0 RETURN INVALID PUSH1 0x80 PUSH1 0x40 MSTORE CALLVALUE DUP1 ISZERO PUSH2 0x10 JUMPI PUSH1 0x0 DUP1 REVERT JUMPDEST POP PUSH1 0x4 CALLDATASIZE LT PUSH2 0x2B JUMPI PUSH1 0x0 CALLDATALOAD PUSH1 0xE0 SHR DUP1 PUSH4 0x51973EC9 EQ PUSH2 0x30 JUMPI JUMPDEST PUSH1 0x0 DUP1 REVERT JUMPDEST PUSH2 0x38 PUSH2 0x3A JUMP JUMPDEST STOP JUMPDEST CALLER PUSH1 0x1 PUSH1 0x1 PUSH1 0xA0 SHL SUB AND PUSH32 0x738F4DA267A110D810E6E89FC59E46BE6DE0C37B1D5CD559B267DC3688E74E0 PUSH1 0x40 MLOAD PUSH2 0x92 SWAP1 PUSH1 0x20 DUP1 DUP3 MSTORE PUSH1 0xC SWAP1 DUP3 ADD MSTORE PUSH12 0x48656C6C6F20576F726C6421 PUSH1 0xA0 SHL PUSH1 0x40 DUP3 ADD MSTORE PUSH1 0x60 ADD SWAP1 JUMP JUMPDEST PUSH1 0x40 MLOAD DUP1 SWAP2 SUB SWAP1 LOG2 CALLER PUSH1 0x1 PUSH1 0x1 PUSH1 0xA0 SHL SUB AND PUSH32 0x738F4DA267A110D810E6E89FC59E46BE6DE0C37B1D5CD559B267DC3688E74E0 PUSH1 0x40 MLOAD PUSH2 0xF0 SWAP1 PUSH1 0x20 DUP1 DUP3 MSTORE PUSH1 0xA SWAP1 DUP3 ADD MSTORE PUSH10 0x48656C6C6F2045564D21 PUSH1 0xB0 SHL PUSH1 0x40 DUP3 ADD MSTORE PUSH1 0x60 ADD SWAP1 JUMP JUMPDEST PUSH1 0x40 MLOAD DUP1 SWAP2 SUB SWAP1 LOG2 PUSH1 0x40 MLOAD PUSH32 0xFE1A3AD11E425DB4B8E6AF35D11C50118826A496DF73006FC724CB27F2B99946 SWAP1 PUSH1 0x0 SWAP1 LOG1 JUMP INVALID LOG2 PUSH5 0x6970667358 0x22 SLT KECCAK256 PREVRANDAO DUP6 BYTE PUSH24 0xA3A7CA0378FC355BD2743F1973C8152C13990DF6C7684E45 ISZERO 0x28 DIV SWAP4 PUSH5 0x736F6C6343 STOP ADDMOD SGT STOP CALLER "
				},
				"gasEstimates": {
					"creation": {
						"codeDepositCost": "69000",
						"executionCost": "117",
						"totalCost": "69117"
					},
					"external": {
						"log()": "4926"
					}
				},
				"methodIdentifiers": {
					"log()": "51973ec9"
				}
			},
			"storageLayout": {
				"storage": [],
				"types": null
			},
			"userdoc": {
				"kind": "user",
				"methods": {},
				"version": 1
			}
		}
	}
}