{
	"contracts/case/Error.sol": {
		"Error": {
			"abi": [
				{
					"inputs": [
						{
							"internalType": "uint256",
							"name": "balance",
							"type": "uint256"
						},
						{
							"internalType": "uint256",
							"name": "withdrawAmount",
							"type": "uint256"
						}
					],
					"name": "InsufficientBalance",
					"type": "error"
				},
				{
					"inputs": [
						{
							"internalType": "uint256",
							"name": "_num",
							"type": "uint256"
						}
					],
					"name": "testAssert",
					"outputs": [],
					"stateMutability": "pure",
					"type": "function"
				},
				{
					"inputs": [
						{
							"internalType": "uint256",
							"name": "_withdrawAmount",
							"type": "uint256"
						}
					],
					"name": "testCustomError",
					"outputs": [],
					"stateMutability": "view",
					"type": "function"
				},
				{
					"inputs": [
						{
							"internalType": "uint256",
							"name": "_i",
							"type": "uint256"
						}
					],
					"name": "testRequire",
					"outputs": [],
					"stateMutability": "pure",
					"type": "function"
				},
				{
					"inputs": [
						{
							"internalType": "uint256",
							"name": "_i",
							"type": "uint256"
						}
					],
					"name": "testRevert",
					"outputs": [],
					"stateMutability": "pure",
					"type": "function"
				}
			],
			"devdoc": {
				"kind": "dev",
				"methods": {},
				"version": 1
			},
			"evm": {
				"assembly": "    /* \"contracts/case/Error.sol\":60:775  contract Error {... */\n  mstore(0x40, 0x80)\n  callvalue\n  dup1\n  iszero\n  tag_1\n  jumpi\n  0x00\n  dup1\n  revert\ntag_1:\n  pop\n  dataSize(sub_0)\n  dup1\n  dataOffset(sub_0)\n  0x00\n  codecopy\n  0x00\n  return\nstop\n\nsub_0: assembly {\n        /* \"contracts/case/Error.sol\":60:775  contract Error {... */\n      mstore(0x40, 0x80)\n      callvalue\n      dup1\n      iszero\n      tag_1\n      jumpi\n      0x00\n      dup1\n      revert\n    tag_1:\n      pop\n      jumpi(tag_2, lt(calldatasize, 0x04))\n      shr(0xe0, calldataload(0x00))\n      dup1\n      0x20987767\n      eq\n      tag_3\n      jumpi\n      dup1\n      0x246ce3f9\n      eq\n      tag_4\n      jumpi\n      dup1\n      0x75f7286c\n      eq\n      tag_5\n      jumpi\n      dup1\n      0xb8bd717f\n      eq\n      tag_3\n      jumpi\n    tag_2:\n      0x00\n      dup1\n      revert\n        /* \"contracts/case/Error.sol\":202:341  function testRevert(uint _i) public pure {... */\n    tag_3:\n      tag_7\n      tag_8\n      calldatasize\n      0x04\n      tag_9\n      jump\t// in\n    tag_8:\n      tag_10\n      jump\t// in\n    tag_7:\n      stop\n        /* \"contracts/case/Error.sol\":379:461  function testAssert(uint256 _num) public pure {... */\n    tag_4:\n      tag_7\n      tag_12\n      calldatasize\n      0x04\n      tag_9\n      jump\t// in\n    tag_12:\n      tag_13\n      jump\t// in\n        /* \"contracts/case/Error.sol\":544:772  function testCustomError(uint256 _withdrawAmount) public view {... */\n    tag_5:\n      tag_7\n      tag_15\n      calldatasize\n      0x04\n      tag_9\n      jump\t// in\n    tag_15:\n      tag_16\n      jump\t// in\n        /* \"contracts/case/Error.sol\":202:341  function testRevert(uint _i) public pure {... */\n    tag_10:\n        /* \"contracts/case/Error.sol\":264:266  10 */\n      0x0a\n        /* \"contracts/case/Error.sol\":258:260  _i */\n      dup2\n        /* \"contracts/case/Error.sol\":258:266  _i <= 10 */\n      gt\n        /* \"contracts/case/Error.sol\":254:334  if (_i <= 10) {... */\n      tag_21\n      jumpi\n        /* \"contracts/case/Error.sol\":283:322  revert(\"Input must be greater than 10\") */\n      mload(0x40)\n      shl(0xe5, 0x461bcd)\n      dup2\n      mstore\n        /* \"#utility.yul\":401:403   */\n      0x20\n        /* \"contracts/case/Error.sol\":283:322  revert(\"Input must be greater than 10\") */\n      0x04\n      dup3\n      add\n        /* \"#utility.yul\":383:404   */\n      mstore\n        /* \"#utility.yul\":440:442   */\n      0x1d\n        /* \"#utility.yul\":420:438   */\n      0x24\n      dup3\n      add\n        /* \"#utility.yul\":413:443   */\n      mstore\n        /* \"#utility.yul\":479:510   */\n      0x496e707574206d7573742062652067726561746572207468616e203130000000\n        /* \"#utility.yul\":459:477   */\n      0x44\n      dup3\n      add\n        /* \"#utility.yul\":452:511   */\n      mstore\n        /* \"#utility.yul\":528:546   */\n      0x64\n      add\n        /* \"contracts/case/Error.sol\":283:322  revert(\"Input must be greater than 10\") */\n    tag_22:\n      mload(0x40)\n      dup1\n      swap2\n      sub\n      swap1\n      revert\n        /* \"contracts/case/Error.sol\":254:334  if (_i <= 10) {... */\n    tag_21:\n        /* \"contracts/case/Error.sol\":202:341  function testRevert(uint _i) public pure {... */\n      pop\n      jump\t// out\n        /* \"contracts/case/Error.sol\":379:461  function testAssert(uint256 _num) public pure {... */\n    tag_13:\n        /* \"contracts/case/Error.sol\":443:452  _num == 0 */\n      dup1\n      iszero\n        /* \"contracts/case/Error.sol\":436:453  assert(_num == 0) */\n      tag_21\n      jumpi\n      tag_21\n      tag_27\n      jump\t// in\n        /* \"contracts/case/Error.sol\":544:772  function testCustomError(uint256 _withdrawAmount) public view {... */\n    tag_16:\n        /* \"contracts/case/Error.sol\":631:652  address(this).balance */\n      selfbalance\n        /* \"contracts/case/Error.sol\":667:688  bal < _withdrawAmount */\n      dup2\n      dup2\n      lt\n        /* \"contracts/case/Error.sol\":663:765  if (bal < _withdrawAmount) {... */\n      iszero\n      tag_29\n      jumpi\n        /* \"contracts/case/Error.sol\":712:753  InsufficientBalance(bal, _withdrawAmount) */\n      mload(0x40)\n      shl(0xe0, 0xcf479181)\n      dup2\n      mstore\n      0x04\n      dup2\n      add\n        /* \"#utility.yul\":863:888   */\n      dup3\n      swap1\n      mstore\n        /* \"#utility.yul\":904:922   */\n      0x24\n      dup2\n      add\n        /* \"#utility.yul\":897:931   */\n      dup4\n      swap1\n      mstore\n        /* \"#utility.yul\":836:854   */\n      0x44\n      add\n        /* \"contracts/case/Error.sol\":712:753  InsufficientBalance(bal, _withdrawAmount) */\n      tag_22\n        /* \"#utility.yul\":689:937   */\n      jump\n        /* \"contracts/case/Error.sol\":663:765  if (bal < _withdrawAmount) {... */\n    tag_29:\n        /* \"contracts/case/Error.sol\":606:772  {... */\n      pop\n        /* \"contracts/case/Error.sol\":544:772  function testCustomError(uint256 _withdrawAmount) public view {... */\n      pop\n      jump\t// out\n        /* \"#utility.yul\":14:194   */\n    tag_9:\n        /* \"#utility.yul\":73:79   */\n      0x00\n        /* \"#utility.yul\":126:128   */\n      0x20\n        /* \"#utility.yul\":114:123   */\n      dup3\n        /* \"#utility.yul\":105:112   */\n      dup5\n        /* \"#utility.yul\":101:124   */\n      sub\n        /* \"#utility.yul\":97:129   */\n      slt\n        /* \"#utility.yul\":94:146   */\n      iszero\n      tag_37\n      jumpi\n        /* \"#utility.yul\":142:143   */\n      0x00\n        /* \"#utility.yul\":139:140   */\n      dup1\n        /* \"#utility.yul\":132:144   */\n      revert\n        /* \"#utility.yul\":94:146   */\n    tag_37:\n      pop\n        /* \"#utility.yul\":165:188   */\n      calldataload\n      swap2\n        /* \"#utility.yul\":14:194   */\n      swap1\n      pop\n      jump\t// out\n        /* \"#utility.yul\":557:684   */\n    tag_27:\n        /* \"#utility.yul\":618:628   */\n      0x4e487b71\n        /* \"#utility.yul\":613:616   */\n      0xe0\n        /* \"#utility.yul\":609:629   */\n      shl\n        /* \"#utility.yul\":606:607   */\n      0x00\n        /* \"#utility.yul\":599:630   */\n      mstore\n        /* \"#utility.yul\":649:653   */\n      0x01\n        /* \"#utility.yul\":646:647   */\n      0x04\n        /* \"#utility.yul\":639:654   */\n      mstore\n        /* \"#utility.yul\":673:677   */\n      0x24\n        /* \"#utility.yul\":670:671   */\n      0x00\n        /* \"#utility.yul\":663:678   */\n      revert\n\n    auxdata: 0xa2646970667358221220ec07dee29929f35deac5da8806b5b16b6275d4a539ce9c14bbbb491cafbb5ded64736f6c63430008130033\n}\n",
				"bytecode": {
					"linkReferences": {},
					"object": "608060405234801561001057600080fd5b50610187806100206000396000f3fe608060405234801561001057600080fd5b506004361061004c5760003560e01c80632098776714610051578063246ce3f91461006657806375f7286c14610079578063b8bd717f14610051575b600080fd5b61006461005f366004610122565b61008c565b005b610064610074366004610122565b6100e4565b610064610087366004610122565b6100f2565b600a81116100e15760405162461bcd60e51b815260206004820152601d60248201527f496e707574206d7573742062652067726561746572207468616e20313000000060448201526064015b60405180910390fd5b50565b80156100e1576100e161013b565b478181101561011e5760405163cf47918160e01b815260048101829052602481018390526044016100d8565b5050565b60006020828403121561013457600080fd5b5035919050565b634e487b7160e01b600052600160045260246000fdfea2646970667358221220ec07dee29929f35deac5da8806b5b16b6275d4a539ce9c14bbbb491cafbb5ded64736f6c63430008130033",
					"opcodes": "PUSH1 0x80 PUSH1 0x40 MSTORE CALLVALUE DUP1 ISZERO PUSH2 0x10 JUMPI PUSH1 0x0 DUP1 REVERT JUMPDEST POP PUSH2 0x187 DUP1 PUSH2 0x20 PUSH1 0x0 CODECOPY PUSH1 0x0 RETURN INVALID PUSH1 0x80 PUSH1 0x40 MSTORE CALLVALUE DUP1 ISZERO PUSH2 0x10 JUMPI PUSH1 0x0 DUP1 REVERT JUMPDEST POP PUSH1 0x4 CALLDATASIZE LT PUSH2 0x4C JUMPI PUSH1 0x0 CALLDATALOAD PUSH1 0xE0 SHR DUP1 PUSH4 0x20987767 EQ PUSH2 0x51 JUMPI DUP1 PUSH4 0x246CE3F9 EQ PUSH2 0x66 JUMPI DUP1 PUSH4 0x75F7286C EQ PUSH2 0x79 JUMPI DUP1 PUSH4 0xB8BD717F EQ PUSH2 0x51 JUMPI JUMPDEST PUSH1 0x0 DUP1 REVERT JUMPDEST PUSH2 0x64 PUSH2 0x5F CALLDATASIZE PUSH1 0x4 PUSH2 0x122 JUMP JUMPDEST PUSH2 0x8C JUMP JUMPDEST STOP JUMPDEST PUSH2 0x64 PUSH2 0x74 CALLDATASIZE PUSH1 0x4 PUSH2 0x122 JUMP JUMPDEST PUSH2 0xE4 JUMP JUMPDEST PUSH2 0x64 PUSH2 0x87 CALLDATASIZE PUSH1 0x4 PUSH2 0x122 JUMP JUMPDEST PUSH2 0xF2 JUMP JUMPDEST PUSH1 0xA DUP2 GT PUSH2 0xE1 JUMPI PUSH1 0x40 MLOAD PUSH3 0x461BCD PUSH1 0xE5 SHL DUP2 MSTORE PUSH1 0x20 PUSH1 0x4 DUP3 ADD MSTORE PUSH1 0x1D PUSH1 0x24 DUP3 ADD MSTORE PUSH32 0x496E707574206D7573742062652067726561746572207468616E203130000000 PUSH1 0x44 DUP3 ADD MSTORE PUSH1 0x64 ADD JUMPDEST PUSH1 0x40 MLOAD DUP1 SWAP2 SUB SWAP1 REVERT JUMPDEST POP JUMP JUMPDEST DUP1 ISZERO PUSH2 0xE1 JUMPI PUSH2 0xE1 PUSH2 0x13B JUMP JUMPDEST SELFBALANCE DUP2 DUP2 LT ISZERO PUSH2 0x11E JUMPI PUSH1 0x40 MLOAD PUSH4 0xCF479181 PUSH1 0xE0 SHL DUP2 MSTORE PUSH1 0x4 DUP2 ADD DUP3 SWAP1 MSTORE PUSH1 0x24 DUP2 ADD DUP4 SWAP1 MSTORE PUSH1 0x44 ADD PUSH2 0xD8 JUMP JUMPDEST POP POP JUMP JUMPDEST PUSH1 0x0 PUSH1 0x20 DUP3 DUP5 SUB SLT ISZERO PUSH2 0x134 JUMPI PUSH1 0x0 DUP1 REVERT JUMPDEST POP CALLDATALOAD SWAP2 SWAP1 POP JUMP JUMPDEST PUSH4 0x4E487B71 PUSH1 0xE0 SHL PUSH1 0x0 MSTORE PUSH1 0x1 PUSH1 0x4 MSTORE PUSH1 0x24 PUSH1 0x0 REVERT INVALID LOG2 PUSH5 0x6970667358 0x22 SLT KECCAK256 0xEC SMOD 0xDE 0xE2 SWAP10 0x29 RETURN 0x5D 0xEA 0xC5 0xDA DUP9 MOD 0xB5 0xB1 PUSH12 0x6275D4A539CE9C14BBBB491C 0xAF 0xBB 0x5D 0xED PUSH5 0x736F6C6343 STOP ADDMOD SGT STOP CALLER "
				},
				"gasEstimates": {
					"creation": {
						"codeDepositCost": "78200",
						"executionCost": "129",
						"totalCost": "78329"
					},
					"external": {
						"testAssert(uint256)": "276",
						"testCustomError(uint256)": "369",
						"testRequire(uint256)": "384",
						"testRevert(uint256)": "318"
					}
				},
				"methodIdentifiers": {
					"testAssert(uint256)": "246ce3f9",
					"testCustomError(uint256)": "75f7286c",
					"testRequire(uint256)": "b8bd717f",
					"testRevert(uint256)": "20987767"
				}
			},
			"storageLayout": {
				"storage": [],
				"types": null
			},
			"userdoc": {
				"kind": "user",
				"methods": {},
				"version": 1
			}
		}
	}
}