{
	"contracts/case/Error.sol": {
		"Account": {
			"abi": [
				{
					"inputs": [],
					"name": "MAX_UINT",
					"outputs": [
						{
							"internalType": "uint256",
							"name": "",
							"type": "uint256"
						}
					],
					"stateMutability": "view",
					"type": "function"
				},
				{
					"inputs": [],
					"name": "balance",
					"outputs": [
						{
							"internalType": "uint256",
							"name": "",
							"type": "uint256"
						}
					],
					"stateMutability": "view",
					"type": "function"
				},
				{
					"inputs": [
						{
							"internalType": "uint256",
							"name": "_amount",
							"type": "uint256"
						}
					],
					"name": "deposit",
					"outputs": [],
					"stateMutability": "nonpayable",
					"type": "function"
				},
				{
					"inputs": [
						{
							"internalType": "uint256",
							"name": "_amount",
							"type": "uint256"
						}
					],
					"name": "withdraw",
					"outputs": [],
					"stateMutability": "nonpayable",
					"type": "function"
				}
			],
			"devdoc": {
				"kind": "dev",
				"methods": {},
				"version": 1
			},
			"evm": {
				"assembly": "    /* \"contracts/case/Error.sol\":779:1616  contract Account {... */\n  mstore(0x40, 0x80)\n  callvalue\n  dup1\n  iszero\n  tag_1\n  jumpi\n  0x00\n  dup1\n  revert\ntag_1:\n  pop\n  dataSize(sub_0)\n  dup1\n  dataOffset(sub_0)\n  0x00\n  codecopy\n  0x00\n  return\nstop\n\nsub_0: assembly {\n        /* \"contracts/case/Error.sol\":779:1616  contract Account {... */\n      mstore(0x40, 0x80)\n      callvalue\n      dup1\n      iszero\n      tag_1\n      jumpi\n      0x00\n      dup1\n      revert\n    tag_1:\n      pop\n      jumpi(tag_2, lt(calldatasize, 0x04))\n      shr(0xe0, calldataload(0x00))\n      dup1\n      0x2e1a7d4d\n      eq\n      tag_3\n      jumpi\n      dup1\n      0xb69ef8a8\n      eq\n      tag_4\n      jumpi\n      dup1\n      0xb6b55f25\n      eq\n      tag_5\n      jumpi\n      dup1\n      0xe5b5019a\n      eq\n      tag_6\n      jumpi\n    tag_2:\n      0x00\n      dup1\n      revert\n        /* \"contracts/case/Error.sol\":1246:1613  function withdraw(uint256 _amount) public {... */\n    tag_3:\n      tag_7\n      tag_8\n      calldatasize\n      0x04\n      tag_9\n      jump\t// in\n    tag_8:\n      tag_10\n      jump\t// in\n    tag_7:\n      stop\n        /* \"contracts/case/Error.sol\":803:825  uint256 public balance */\n    tag_4:\n      tag_11\n      sload(0x00)\n      dup2\n      jump\n    tag_11:\n      mload(0x40)\n        /* \"#utility.yul\":345:370   */\n      swap1\n      dup2\n      mstore\n        /* \"#utility.yul\":333:335   */\n      0x20\n        /* \"#utility.yul\":318:336   */\n      add\n        /* \"contracts/case/Error.sol\":803:825  uint256 public balance */\n      mload(0x40)\n      dup1\n      swap2\n      sub\n      swap1\n      return\n        /* \"contracts/case/Error.sol\":888:1238  function deposit(uint256 _amount) public {... */\n    tag_5:\n      tag_7\n      tag_16\n      calldatasize\n      0x04\n      tag_9\n      jump\t// in\n    tag_16:\n      tag_17\n      jump\t// in\n        /* \"contracts/case/Error.sol\":832:879  uint256 public constant MAX_UINT = 2 ** 256 - 1 */\n    tag_6:\n      tag_11\n      not(0x00)\n      dup2\n      jump\n        /* \"contracts/case/Error.sol\":1246:1613  function withdraw(uint256 _amount) public {... */\n    tag_10:\n        /* \"contracts/case/Error.sol\":1299:1317  uint256 oldBalance */\n      0x00\n        /* \"contracts/case/Error.sol\":1320:1327  balance */\n      sload\n        /* \"contracts/case/Error.sol\":1419:1437  balance >= _amount */\n      dup2\n      dup2\n      lt\n      iszero\n        /* \"contracts/case/Error.sol\":1411:1451  require(balance >= _amount, \"Underflow\") */\n      tag_22\n      jumpi\n      mload(0x40)\n      shl(0xe5, 0x461bcd)\n      dup2\n      mstore\n        /* \"#utility.yul\":583:585   */\n      0x20\n        /* \"contracts/case/Error.sol\":1411:1451  require(balance >= _amount, \"Underflow\") */\n      0x04\n      dup3\n      add\n        /* \"#utility.yul\":565:586   */\n      mstore\n        /* \"#utility.yul\":622:623   */\n      0x09\n        /* \"#utility.yul\":602:620   */\n      0x24\n      dup3\n      add\n        /* \"#utility.yul\":595:624   */\n      mstore\n      shl(0xb8, 0x556e646572666c6f77)\n        /* \"#utility.yul\":640:658   */\n      0x44\n      dup3\n      add\n        /* \"#utility.yul\":633:672   */\n      mstore\n        /* \"#utility.yul\":689:707   */\n      0x64\n      add\n        /* \"contracts/case/Error.sol\":1411:1451  require(balance >= _amount, \"Underflow\") */\n    tag_23:\n      mload(0x40)\n      dup1\n      swap2\n      sub\n      swap1\n      revert\n    tag_22:\n        /* \"contracts/case/Error.sol\":1478:1485  _amount */\n      dup2\n        /* \"contracts/case/Error.sol\":1468:1475  balance */\n      sload(0x00)\n        /* \"contracts/case/Error.sol\":1468:1485  balance < _amount */\n      lt\n        /* \"contracts/case/Error.sol\":1464:1533  if (balance < _amount) {... */\n      iszero\n      tag_25\n      jumpi\n        /* \"contracts/case/Error.sol\":1502:1521  revert(\"Underflow\") */\n      mload(0x40)\n      shl(0xe5, 0x461bcd)\n      dup2\n      mstore\n        /* \"#utility.yul\":583:585   */\n      0x20\n        /* \"contracts/case/Error.sol\":1502:1521  revert(\"Underflow\") */\n      0x04\n      dup3\n      add\n        /* \"#utility.yul\":565:586   */\n      mstore\n        /* \"#utility.yul\":622:623   */\n      0x09\n        /* \"#utility.yul\":602:620   */\n      0x24\n      dup3\n      add\n        /* \"#utility.yul\":595:624   */\n      mstore\n      shl(0xb8, 0x556e646572666c6f77)\n        /* \"#utility.yul\":640:658   */\n      0x44\n      dup3\n      add\n        /* \"#utility.yul\":633:672   */\n      mstore\n        /* \"#utility.yul\":689:707   */\n      0x64\n      add\n        /* \"contracts/case/Error.sol\":1502:1521  revert(\"Underflow\") */\n      tag_23\n        /* \"#utility.yul\":381:713   */\n      jump\n        /* \"contracts/case/Error.sol\":1464:1533  if (balance < _amount) {... */\n    tag_25:\n        /* \"contracts/case/Error.sol\":1556:1563  _amount */\n      dup2\n        /* \"contracts/case/Error.sol\":1545:1552  balance */\n      0x00\n      dup1\n        /* \"contracts/case/Error.sol\":1545:1563  balance -= _amount */\n      dup3\n      dup3\n      sload\n      tag_27\n      swap2\n      swap1\n      tag_28\n      jump\t// in\n    tag_27:\n      swap1\n      swap2\n      sstore\n      pop\n      pop\n        /* \"contracts/case/Error.sol\":1583:1590  balance */\n      sload(0x00)\n        /* \"contracts/case/Error.sol\":1583:1604  balance <= oldBalance */\n      dup2\n      lt\n      iszero\n        /* \"contracts/case/Error.sol\":1576:1605  assert(balance <= oldBalance) */\n      tag_30\n      jumpi\n      tag_30\n      tag_31\n      jump\t// in\n    tag_30:\n        /* \"contracts/case/Error.sol\":1288:1613  {... */\n      pop\n        /* \"contracts/case/Error.sol\":1246:1613  function withdraw(uint256 _amount) public {... */\n      pop\n      jump\t// out\n        /* \"contracts/case/Error.sol\":888:1238  function deposit(uint256 _amount) public {... */\n    tag_17:\n        /* \"contracts/case/Error.sol\":940:958  uint256 oldBalance */\n      0x00\n        /* \"contracts/case/Error.sol\":961:968  balance */\n      dup1\n      sload\n      swap1\n        /* \"contracts/case/Error.sol\":1000:1017  balance + _amount */\n      tag_33\n        /* \"contracts/case/Error.sol\":1010:1017  _amount */\n      dup4\n        /* \"contracts/case/Error.sol\":961:968  balance */\n      dup4\n        /* \"contracts/case/Error.sol\":1000:1017  balance + _amount */\n      tag_34\n      jump\t// in\n    tag_33:\n        /* \"contracts/case/Error.sol\":979:1017  uint256 newBalance = balance + _amount */\n      swap1\n      pop\n        /* \"contracts/case/Error.sol\":1132:1142  oldBalance */\n      dup2\n        /* \"contracts/case/Error.sol\":1118:1128  newBalance */\n      dup2\n        /* \"contracts/case/Error.sol\":1118:1142  newBalance >= oldBalance */\n      lt\n      iszero\n        /* \"contracts/case/Error.sol\":1110:1155  require(newBalance >= oldBalance, \"Overflow\") */\n      tag_35\n      jumpi\n      mload(0x40)\n      shl(0xe5, 0x461bcd)\n      dup2\n      mstore\n        /* \"#utility.yul\":1447:1449   */\n      0x20\n        /* \"contracts/case/Error.sol\":1110:1155  require(newBalance >= oldBalance, \"Overflow\") */\n      0x04\n      dup3\n      add\n        /* \"#utility.yul\":1429:1450   */\n      mstore\n        /* \"#utility.yul\":1486:1487   */\n      0x08\n        /* \"#utility.yul\":1466:1484   */\n      0x24\n      dup3\n      add\n        /* \"#utility.yul\":1459:1488   */\n      mstore\n      shl(0xc0, 0x4f766572666c6f77)\n        /* \"#utility.yul\":1504:1522   */\n      0x44\n      dup3\n      add\n        /* \"#utility.yul\":1497:1535   */\n      mstore\n        /* \"#utility.yul\":1552:1570   */\n      0x64\n      add\n        /* \"contracts/case/Error.sol\":1110:1155  require(newBalance >= oldBalance, \"Overflow\") */\n      tag_23\n        /* \"#utility.yul\":1245:1576   */\n      jump\n        /* \"contracts/case/Error.sol\":1110:1155  require(newBalance >= oldBalance, \"Overflow\") */\n    tag_35:\n        /* \"contracts/case/Error.sol\":1168:1175  balance */\n      0x00\n        /* \"contracts/case/Error.sol\":1168:1188  balance = newBalance */\n      dup2\n      swap1\n      sstore\n        /* \"contracts/case/Error.sol\":1208:1229  balance >= oldBalance */\n      dup2\n      dup2\n      lt\n      iszero\n        /* \"contracts/case/Error.sol\":1201:1230  assert(balance >= oldBalance) */\n      tag_39\n      jumpi\n      tag_39\n      tag_31\n      jump\t// in\n    tag_39:\n        /* \"contracts/case/Error.sol\":929:1238  {... */\n      pop\n      pop\n        /* \"contracts/case/Error.sol\":888:1238  function deposit(uint256 _amount) public {... */\n      pop\n      jump\t// out\n        /* \"#utility.yul\":14:194   */\n    tag_9:\n        /* \"#utility.yul\":73:79   */\n      0x00\n        /* \"#utility.yul\":126:128   */\n      0x20\n        /* \"#utility.yul\":114:123   */\n      dup3\n        /* \"#utility.yul\":105:112   */\n      dup5\n        /* \"#utility.yul\":101:124   */\n      sub\n        /* \"#utility.yul\":97:129   */\n      slt\n        /* \"#utility.yul\":94:146   */\n      iszero\n      tag_43\n      jumpi\n        /* \"#utility.yul\":142:143   */\n      0x00\n        /* \"#utility.yul\":139:140   */\n      dup1\n        /* \"#utility.yul\":132:144   */\n      revert\n        /* \"#utility.yul\":94:146   */\n    tag_43:\n      pop\n        /* \"#utility.yul\":165:188   */\n      calldataload\n      swap2\n        /* \"#utility.yul\":14:194   */\n      swap1\n      pop\n      jump\t// out\n        /* \"#utility.yul\":718:845   */\n    tag_40:\n        /* \"#utility.yul\":779:789   */\n      0x4e487b71\n        /* \"#utility.yul\":774:777   */\n      0xe0\n        /* \"#utility.yul\":770:790   */\n      shl\n        /* \"#utility.yul\":767:768   */\n      0x00\n        /* \"#utility.yul\":760:791   */\n      mstore\n        /* \"#utility.yul\":810:814   */\n      0x11\n        /* \"#utility.yul\":807:808   */\n      0x04\n        /* \"#utility.yul\":800:815   */\n      mstore\n        /* \"#utility.yul\":834:838   */\n      0x24\n        /* \"#utility.yul\":831:832   */\n      0x00\n        /* \"#utility.yul\":824:839   */\n      revert\n        /* \"#utility.yul\":850:978   */\n    tag_28:\n        /* \"#utility.yul\":917:926   */\n      dup2\n      dup2\n      sub\n        /* \"#utility.yul\":938:949   */\n      dup2\n      dup2\n      gt\n        /* \"#utility.yul\":935:972   */\n      iszero\n      tag_49\n      jumpi\n        /* \"#utility.yul\":952:970   */\n      tag_49\n      tag_40\n      jump\t// in\n    tag_49:\n        /* \"#utility.yul\":850:978   */\n      swap3\n      swap2\n      pop\n      pop\n      jump\t// out\n        /* \"#utility.yul\":983:1110   */\n    tag_31:\n        /* \"#utility.yul\":1044:1054   */\n      0x4e487b71\n        /* \"#utility.yul\":1039:1042   */\n      0xe0\n        /* \"#utility.yul\":1035:1055   */\n      shl\n        /* \"#utility.yul\":1032:1033   */\n      0x00\n        /* \"#utility.yul\":1025:1056   */\n      mstore\n        /* \"#utility.yul\":1075:1079   */\n      0x01\n        /* \"#utility.yul\":1072:1073   */\n      0x04\n        /* \"#utility.yul\":1065:1080   */\n      mstore\n        /* \"#utility.yul\":1099:1103   */\n      0x24\n        /* \"#utility.yul\":1096:1097   */\n      0x00\n        /* \"#utility.yul\":1089:1104   */\n      revert\n        /* \"#utility.yul\":1115:1240   */\n    tag_34:\n        /* \"#utility.yul\":1180:1189   */\n      dup1\n      dup3\n      add\n        /* \"#utility.yul\":1201:1211   */\n      dup1\n      dup3\n      gt\n        /* \"#utility.yul\":1198:1234   */\n      iszero\n      tag_49\n      jumpi\n        /* \"#utility.yul\":1214:1232   */\n      tag_49\n      tag_40\n      jump\t// in\n\n    auxdata: 0xa264697066735822122007598db456290c82160f967bc4c2ff04618cdb634fa2a3b0fbb3e6829dd0d09b64736f6c63430008130033\n}\n",
				"bytecode": {
					"linkReferences": {},
					"object": "608060405234801561001057600080fd5b50610258806100206000396000f3fe608060405234801561001057600080fd5b506004361061004c5760003560e01c80632e1a7d4d14610051578063b69ef8a814610066578063b6b55f2514610081578063e5b5019a14610094575b600080fd5b61006461005f3660046101b1565b61009d565b005b61006f60005481565b60405190815260200160405180910390f35b61006461008f3660046101b1565b61014b565b61006f60001981565b600054818110156100e15760405162461bcd60e51b8152602060048201526009602482015268556e646572666c6f7760b81b60448201526064015b60405180910390fd5b81600054101561011f5760405162461bcd60e51b8152602060048201526009602482015268556e646572666c6f7760b81b60448201526064016100d8565b8160008082825461013091906101e0565b9091555050600054811015610147576101476101f9565b5050565b600080549061015a838361020f565b9050818110156101975760405162461bcd60e51b81526020600482015260086024820152674f766572666c6f7760c01b60448201526064016100d8565b6000819055818110156101ac576101ac6101f9565b505050565b6000602082840312156101c357600080fd5b5035919050565b634e487b7160e01b600052601160045260246000fd5b818103818111156101f3576101f36101ca565b92915050565b634e487b7160e01b600052600160045260246000fd5b808201808211156101f3576101f36101ca56fea264697066735822122007598db456290c82160f967bc4c2ff04618cdb634fa2a3b0fbb3e6829dd0d09b64736f6c63430008130033",
					"opcodes": "PUSH1 0x80 PUSH1 0x40 MSTORE CALLVALUE DUP1 ISZERO PUSH2 0x10 JUMPI PUSH1 0x0 DUP1 REVERT JUMPDEST POP PUSH2 0x258 DUP1 PUSH2 0x20 PUSH1 0x0 CODECOPY PUSH1 0x0 RETURN INVALID PUSH1 0x80 PUSH1 0x40 MSTORE CALLVALUE DUP1 ISZERO PUSH2 0x10 JUMPI PUSH1 0x0 DUP1 REVERT JUMPDEST POP PUSH1 0x4 CALLDATASIZE LT PUSH2 0x4C JUMPI PUSH1 0x0 CALLDATALOAD PUSH1 0xE0 SHR DUP1 PUSH4 0x2E1A7D4D EQ PUSH2 0x51 JUMPI DUP1 PUSH4 0xB69EF8A8 EQ PUSH2 0x66 JUMPI DUP1 PUSH4 0xB6B55F25 EQ PUSH2 0x81 JUMPI DUP1 PUSH4 0xE5B5019A EQ PUSH2 0x94 JUMPI JUMPDEST PUSH1 0x0 DUP1 REVERT JUMPDEST PUSH2 0x64 PUSH2 0x5F CALLDATASIZE PUSH1 0x4 PUSH2 0x1B1 JUMP JUMPDEST PUSH2 0x9D JUMP JUMPDEST STOP JUMPDEST PUSH2 0x6F PUSH1 0x0 SLOAD DUP2 JUMP JUMPDEST PUSH1 0x40 MLOAD SWAP1 DUP2 MSTORE PUSH1 0x20 ADD PUSH1 0x40 MLOAD DUP1 SWAP2 SUB SWAP1 RETURN JUMPDEST PUSH2 0x64 PUSH2 0x8F CALLDATASIZE PUSH1 0x4 PUSH2 0x1B1 JUMP JUMPDEST PUSH2 0x14B JUMP JUMPDEST PUSH2 0x6F PUSH1 0x0 NOT DUP2 JUMP JUMPDEST PUSH1 0x0 SLOAD DUP2 DUP2 LT ISZERO PUSH2 0xE1 JUMPI PUSH1 0x40 MLOAD PUSH3 0x461BCD PUSH1 0xE5 SHL DUP2 MSTORE PUSH1 0x20 PUSH1 0x4 DUP3 ADD MSTORE PUSH1 0x9 PUSH1 0x24 DUP3 ADD MSTORE PUSH9 0x556E646572666C6F77 PUSH1 0xB8 SHL PUSH1 0x44 DUP3 ADD MSTORE PUSH1 0x64 ADD JUMPDEST PUSH1 0x40 MLOAD DUP1 SWAP2 SUB SWAP1 REVERT JUMPDEST DUP2 PUSH1 0x0 SLOAD LT ISZERO PUSH2 0x11F JUMPI PUSH1 0x40 MLOAD PUSH3 0x461BCD PUSH1 0xE5 SHL DUP2 MSTORE PUSH1 0x20 PUSH1 0x4 DUP3 ADD MSTORE PUSH1 0x9 PUSH1 0x24 DUP3 ADD MSTORE PUSH9 0x556E646572666C6F77 PUSH1 0xB8 SHL PUSH1 0x44 DUP3 ADD MSTORE PUSH1 0x64 ADD PUSH2 0xD8 JUMP JUMPDEST DUP2 PUSH1 0x0 DUP1 DUP3 DUP3 SLOAD PUSH2 0x130 SWAP2 SWAP1 PUSH2 0x1E0 JUMP JUMPDEST SWAP1 SWAP2 SSTORE POP POP PUSH1 0x0 SLOAD DUP2 LT ISZERO PUSH2 0x147 JUMPI PUSH2 0x147 PUSH2 0x1F9 JUMP JUMPDEST POP POP JUMP JUMPDEST PUSH1 0x0 DUP1 SLOAD SWAP1 PUSH2 0x15A DUP4 DUP4 PUSH2 0x20F JUMP JUMPDEST SWAP1 POP DUP2 DUP2 LT ISZERO PUSH2 0x197 JUMPI PUSH1 0x40 MLOAD PUSH3 0x461BCD PUSH1 0xE5 SHL DUP2 MSTORE PUSH1 0x20 PUSH1 0x4 DUP3 ADD MSTORE PUSH1 0x8 PUSH1 0x24 DUP3 ADD MSTORE PUSH8 0x4F766572666C6F77 PUSH1 0xC0 SHL PUSH1 0x44 DUP3 ADD MSTORE PUSH1 0x64 ADD PUSH2 0xD8 JUMP JUMPDEST PUSH1 0x0 DUP2 SWAP1 SSTORE DUP2 DUP2 LT ISZERO PUSH2 0x1AC JUMPI PUSH2 0x1AC PUSH2 0x1F9 JUMP JUMPDEST POP POP POP JUMP JUMPDEST PUSH1 0x0 PUSH1 0x20 DUP3 DUP5 SUB SLT ISZERO PUSH2 0x1C3 JUMPI PUSH1 0x0 DUP1 REVERT JUMPDEST POP CALLDATALOAD SWAP2 SWAP1 POP JUMP JUMPDEST PUSH4 0x4E487B71 PUSH1 0xE0 SHL PUSH1 0x0 MSTORE PUSH1 0x11 PUSH1 0x4 MSTORE PUSH1 0x24 PUSH1 0x0 REVERT JUMPDEST DUP2 DUP2 SUB DUP2 DUP2 GT ISZERO PUSH2 0x1F3 JUMPI PUSH2 0x1F3 PUSH2 0x1CA JUMP JUMPDEST SWAP3 SWAP2 POP POP JUMP JUMPDEST PUSH4 0x4E487B71 PUSH1 0xE0 SHL PUSH1 0x0 MSTORE PUSH1 0x1 PUSH1 0x4 MSTORE PUSH1 0x24 PUSH1 0x0 REVERT JUMPDEST DUP1 DUP3 ADD DUP1 DUP3 GT ISZERO PUSH2 0x1F3 JUMPI PUSH2 0x1F3 PUSH2 0x1CA JUMP INVALID LOG2 PUSH5 0x6970667358 0x22 SLT KECCAK256 SMOD MSIZE DUP14 0xB4 JUMP 0x29 0xC DUP3 AND 0xF SWAP7 PUSH28 0xC4C2FF04618CDB634FA2A3B0FBB3E6829DD0D09B64736F6C63430008 SGT STOP CALLER "
				},
				"gasEstimates": {
					"creation": {
						"codeDepositCost": "120000",
						"executionCost": "165",
						"totalCost": "120165"
					},
					"external": {
						"MAX_UINT()": "230",
						"balance()": "2283",
						"deposit(uint256)": "24628",
						"withdraw(uint256)": "30915"
					}
				},
				"methodIdentifiers": {
					"MAX_UINT()": "e5b5019a",
					"balance()": "b69ef8a8",
					"deposit(uint256)": "b6b55f25",
					"withdraw(uint256)": "2e1a7d4d"
				}
			},
			"storageLayout": {
				"storage": [
					{
						"astId": 74,
						"contract": "contracts/case/Error.sol:Account",
						"label": "balance",
						"offset": 0,
						"slot": "0",
						"type": "t_uint256"
					}
				],
				"types": {
					"t_uint256": {
						"encoding": "inplace",
						"label": "uint256",
						"numberOfBytes": "32"
					}
				}
			},
			"userdoc": {
				"kind": "user",
				"methods": {},
				"version": 1
			}
		}
	}
}