{
	"data": {
		"bytecode": {
			"linkReferences": {},
			"object": "608060405234801561001057600080fd5b506101e1806100206000396000f3fe608060405234801561001057600080fd5b50600436106100415760003560e01c8063127b4e081461004657806372057987146100705780639a7846b914610070575b600080fd5b61005e6100543660046100a8565b5093949350505050565b60405190815260200160405180910390f35b604080518082019091526001808252606360f81b60209092019190915261005e565b634e487b7160e01b600052604160045260246000fd5b60008060008060008060c087890312156100c157600080fd5b86359550602087013594506040870135935060608701356001600160a01b03811681146100ed57600080fd5b92506080870135801515811461010257600080fd5b915060a087013567ffffffffffffffff8082111561011f57600080fd5b818901915089601f83011261013357600080fd5b81358181111561014557610145610092565b604051601f8201601f19908116603f0116810190838211818310171561016d5761016d610092565b816040528281528c602084870101111561018657600080fd5b826020860160208301376000602084830101528095505050505050929550929550929556fea2646970667358221220cd2e0f1ff5a77d0253af18de10a4ebddfa9609eaf5eac5919a58747efd05ed2164736f6c63430008130033",
			"opcodes": "PUSH1 0x80 PUSH1 0x40 MSTORE CALLVALUE DUP1 ISZERO PUSH2 0x10 JUMPI PUSH1 0x0 DUP1 REVERT JUMPDEST POP PUSH2 0x1E1 DUP1 PUSH2 0x20 PUSH1 0x0 CODECOPY PUSH1 0x0 RETURN INVALID PUSH1 0x80 PUSH1 0x40 MSTORE CALLVALUE DUP1 ISZERO PUSH2 0x10 JUMPI PUSH1 0x0 DUP1 REVERT JUMPDEST POP PUSH1 0x4 CALLDATASIZE LT PUSH2 0x41 JUMPI PUSH1 0x0 CALLDATALOAD PUSH1 0xE0 SHR DUP1 PUSH4 0x127B4E08 EQ PUSH2 0x46 JUMPI DUP1 PUSH4 0x72057987 EQ PUSH2 0x70 JUMPI DUP1 PUSH4 0x9A7846B9 EQ PUSH2 0x70 JUMPI JUMPDEST PUSH1 0x0 DUP1 REVERT JUMPDEST PUSH2 0x5E PUSH2 0x54 CALLDATASIZE PUSH1 0x4 PUSH2 0xA8 JUMP JUMPDEST POP SWAP4 SWAP5 SWAP4 POP POP POP POP JUMP JUMPDEST PUSH1 0x40 MLOAD SWAP1 DUP2 MSTORE PUSH1 0x20 ADD PUSH1 0x40 MLOAD DUP1 SWAP2 SUB SWAP1 RETURN JUMPDEST PUSH1 0x40 DUP1 MLOAD DUP1 DUP3 ADD SWAP1 SWAP2 MSTORE PUSH1 0x1 DUP1 DUP3 MSTORE PUSH1 0x63 PUSH1 0xF8 SHL PUSH1 0x20 SWAP1 SWAP3 ADD SWAP2 SWAP1 SWAP2 MSTORE PUSH2 0x5E JUMP JUMPDEST PUSH4 0x4E487B71 PUSH1 0xE0 SHL PUSH1 0x0 MSTORE PUSH1 0x41 PUSH1 0x4 MSTORE PUSH1 0x24 PUSH1 0x0 REVERT JUMPDEST PUSH1 0x0 DUP1 PUSH1 0x0 DUP1 PUSH1 0x0 DUP1 PUSH1 0xC0 DUP8 DUP10 SUB SLT ISZERO PUSH2 0xC1 JUMPI PUSH1 0x0 DUP1 REVERT JUMPDEST DUP7 CALLDATALOAD SWAP6 POP PUSH1 0x20 DUP8 ADD CALLDATALOAD SWAP5 POP PUSH1 0x40 DUP8 ADD CALLDATALOAD SWAP4 POP PUSH1 0x60 DUP8 ADD CALLDATALOAD PUSH1 0x1 PUSH1 0x1 PUSH1 0xA0 SHL SUB DUP2 AND DUP2 EQ PUSH2 0xED JUMPI PUSH1 0x0 DUP1 REVERT JUMPDEST SWAP3 POP PUSH1 0x80 DUP8 ADD CALLDATALOAD DUP1 ISZERO ISZERO DUP2 EQ PUSH2 0x102 JUMPI PUSH1 0x0 DUP1 REVERT JUMPDEST SWAP2 POP PUSH1 0xA0 DUP8 ADD CALLDATALOAD PUSH8 0xFFFFFFFFFFFFFFFF DUP1 DUP3 GT ISZERO PUSH2 0x11F JUMPI PUSH1 0x0 DUP1 REVERT JUMPDEST DUP2 DUP10 ADD SWAP2 POP DUP10 PUSH1 0x1F DUP4 ADD SLT PUSH2 0x133 JUMPI PUSH1 0x0 DUP1 REVERT JUMPDEST DUP2 CALLDATALOAD DUP2 DUP2 GT ISZERO PUSH2 0x145 JUMPI PUSH2 0x145 PUSH2 0x92 JUMP JUMPDEST PUSH1 0x40 MLOAD PUSH1 0x1F DUP3 ADD PUSH1 0x1F NOT SWAP1 DUP2 AND PUSH1 0x3F ADD AND DUP2 ADD SWAP1 DUP4 DUP3 GT DUP2 DUP4 LT OR ISZERO PUSH2 0x16D JUMPI PUSH2 0x16D PUSH2 0x92 JUMP JUMPDEST DUP2 PUSH1 0x40 MSTORE DUP3 DUP2 MSTORE DUP13 PUSH1 0x20 DUP5 DUP8 ADD ADD GT ISZERO PUSH2 0x186 JUMPI PUSH1 0x0 DUP1 REVERT JUMPDEST DUP3 PUSH1 0x20 DUP7 ADD PUSH1 0x20 DUP4 ADD CALLDATACOPY PUSH1 0x0 PUSH1 0x20 DUP5 DUP4 ADD ADD MSTORE DUP1 SWAP6 POP POP POP POP POP POP SWAP3 SWAP6 POP SWAP3 SWAP6 POP SWAP3 SWAP6 JUMP INVALID LOG2 PUSH5 0x6970667358 0x22 SLT KECCAK256 0xCD 0x2E 0xF 0x1F CREATE2 0xA7 PUSH30 0x253AF18DE10A4EBDDFA9609EAF5EAC5919A58747EFD05ED2164736F6C63 NUMBER STOP ADDMOD SGT STOP CALLER "
		},
		"gasEstimates": {
			"creation": {
				"codeDepositCost": "96200",
				"executionCost": "147",
				"totalCost": "96347"
			},
			"external": {
				"callFunc()": "277",
				"callFuncWithKeyValue()": "255",
				"someFuncWithManyInputs(uint256,uint256,uint256,address,bool,string)": "infinite"
			}
		},
		"methodIdentifiers": {
			"callFunc()": "9a7846b9",
			"callFuncWithKeyValue()": "72057987",
			"someFuncWithManyInputs(uint256,uint256,uint256,address,bool,string)": "127b4e08"
		}
	},
	"abi": [
		{
			"inputs": [],
			"name": "callFunc",
			"outputs": [
				{
					"internalType": "uint256",
					"name": "",
					"type": "uint256"
				}
			],
			"stateMutability": "pure",
			"type": "function"
		},
		{
			"inputs": [],
			"name": "callFuncWithKeyValue",
			"outputs": [
				{
					"internalType": "uint256",
					"name": "",
					"type": "uint256"
				}
			],
			"stateMutability": "pure",
			"type": "function"
		},
		{
			"inputs": [
				{
					"internalType": "uint256",
					"name": "x",
					"type": "uint256"
				},
				{
					"internalType": "uint256",
					"name": "y",
					"type": "uint256"
				},
				{
					"internalType": "uint256",
					"name": "z",
					"type": "uint256"
				},
				{
					"internalType": "address",
					"name": "a",
					"type": "address"
				},
				{
					"internalType": "bool",
					"name": "b",
					"type": "bool"
				},
				{
					"internalType": "string",
					"name": "c",
					"type": "string"
				}
			],
			"name": "someFuncWithManyInputs",
			"outputs": [
				{
					"internalType": "uint256",
					"name": "",
					"type": "uint256"
				}
			],
			"stateMutability": "pure",
			"type": "function"
		}
	]
}