{
	"contracts/DataType.sol": {
		"Udvt": {
			"abi": [
				{
					"inputs": [],
					"name": "add",
					"outputs": [
						{
							"internalType": "Udvt.Weight",
							"name": "wp",
							"type": "uint128"
						}
					],
					"stateMutability": "view",
					"type": "function"
				}
			],
			"devdoc": {
				"kind": "dev",
				"methods": {},
				"version": 1
			},
			"evm": {
				"assembly": "    /* \"contracts/DataType.sol\":925:1241  contract Udvt {... */\n  mstore(0x40, 0x80)\n    /* \"contracts/DataType.sol\":1037:1061  Price  p = Price.wrap(5) */\n  0x050000000000000000000000000000000a\n    /* \"contracts/DataType.sol\":1004:1030  Weight w = Weight.wrap(10) */\n  0x00\n    /* \"contracts/DataType.sol\":1037:1061  Price  p = Price.wrap(5) */\n  sstore\n    /* \"contracts/DataType.sol\":925:1241  contract Udvt {... */\n  callvalue\n  dup1\n  iszero\n  tag_1\n  jumpi\n  0x00\n  dup1\n  revert\ntag_1:\n  pop\n  dataSize(sub_0)\n  dup1\n  dataOffset(sub_0)\n  0x00\n  codecopy\n  0x00\n  return\nstop\n\nsub_0: assembly {\n        /* \"contracts/DataType.sol\":925:1241  contract Udvt {... */\n      mstore(0x40, 0x80)\n      callvalue\n      dup1\n      iszero\n      tag_1\n      jumpi\n      0x00\n      dup1\n      revert\n    tag_1:\n      pop\n      jumpi(tag_2, lt(calldatasize, 0x04))\n      shr(0xe0, calldataload(0x00))\n      dup1\n      0x4f2be91f\n      eq\n      tag_3\n      jumpi\n    tag_2:\n      0x00\n      dup1\n      revert\n        /* \"contracts/DataType.sol\":1074:1238  function add() public view returns (Weight wp) {... */\n    tag_3:\n      tag_4\n      tag_5\n      jump\t// in\n    tag_4:\n      mload(0x40)\n      sub(shl(0x80, 0x01), 0x01)\n        /* \"#utility.yul\":203:250   */\n      swap1\n      swap2\n      and\n        /* \"#utility.yul\":185:251   */\n      dup2\n      mstore\n        /* \"#utility.yul\":173:175   */\n      0x20\n        /* \"#utility.yul\":158:176   */\n      add\n        /* \"contracts/DataType.sol\":1074:1238  function add() public view returns (Weight wp) {... */\n      mload(0x40)\n      dup1\n      swap2\n      sub\n      swap1\n      return\n    tag_5:\n        /* \"contracts/DataType.sol\":1110:1119  Weight wp */\n      0x00\n        /* \"contracts/DataType.sol\":1227:1228  w */\n      dup1\n      sload\n        /* \"contracts/DataType.sol\":1208:1229  10 + Weight.unwrap(w) */\n      tag_9\n      swap1\n      sub(shl(0x80, 0x01), 0x01)\n        /* \"contracts/DataType.sol\":1227:1228  w */\n      and\n        /* \"contracts/DataType.sol\":1208:1210  10 */\n      0x0a\n        /* \"contracts/DataType.sol\":1208:1229  10 + Weight.unwrap(w) */\n      tag_10\n      jump\t// in\n    tag_9:\n        /* \"contracts/DataType.sol\":1191:1230  wp = Weight.wrap(10 + Weight.unwrap(w)) */\n      swap1\n      pop\n        /* \"contracts/DataType.sol\":1074:1238  function add() public view returns (Weight wp) {... */\n      swap1\n      jump\t// out\n        /* \"#utility.yul\":262:556   */\n    tag_10:\n      sub(shl(0x80, 0x01), 0x01)\n        /* \"#utility.yul\":384:394   */\n      dup2\n      dup2\n      and\n        /* \"#utility.yul\":396:406   */\n      dup4\n      dup3\n      and\n        /* \"#utility.yul\":380:407   */\n      add\n      swap1\n        /* \"#utility.yul\":419:430   */\n      dup1\n      dup3\n      gt\n        /* \"#utility.yul\":416:550   */\n      iszero\n      tag_14\n      jumpi\n        /* \"#utility.yul\":472:482   */\n      0x4e487b71\n        /* \"#utility.yul\":467:470   */\n      0xe0\n        /* \"#utility.yul\":463:483   */\n      shl\n        /* \"#utility.yul\":460:461   */\n      0x00\n        /* \"#utility.yul\":453:484   */\n      mstore\n        /* \"#utility.yul\":507:511   */\n      0x11\n        /* \"#utility.yul\":504:505   */\n      0x04\n        /* \"#utility.yul\":497:512   */\n      mstore\n        /* \"#utility.yul\":535:539   */\n      0x24\n        /* \"#utility.yul\":532:533   */\n      0x00\n        /* \"#utility.yul\":525:540   */\n      revert\n        /* \"#utility.yul\":416:550   */\n    tag_14:\n      pop\n        /* \"#utility.yul\":262:556   */\n      swap3\n      swap2\n      pop\n      pop\n      jump\t// out\n\n    auxdata: 0xa2646970667358221220bba75cdd92312e264bb8489066ad35c077831c111e0ff6883fb27a2d39bf455864736f6c63430008130033\n}\n",
				"bytecode": {
					"linkReferences": {},
					"object": "608060405270050000000000000000000000000000000a60005534801561002557600080fd5b5060d4806100346000396000f3fe6080604052348015600f57600080fd5b506004361060285760003560e01c80634f2be91f14602d575b600080fd5b6033604f565b6040516001600160801b03909116815260200160405180910390f35b600080546065906001600160801b0316600a606a565b905090565b6001600160801b03818116838216019080821115609757634e487b7160e01b600052601160045260246000fd5b509291505056fea2646970667358221220bba75cdd92312e264bb8489066ad35c077831c111e0ff6883fb27a2d39bf455864736f6c63430008130033",
					"opcodes": "PUSH1 0x80 PUSH1 0x40 MSTORE PUSH17 0x50000000000000000000000000000000A PUSH1 0x0 SSTORE CALLVALUE DUP1 ISZERO PUSH2 0x25 JUMPI PUSH1 0x0 DUP1 REVERT JUMPDEST POP PUSH1 0xD4 DUP1 PUSH2 0x34 PUSH1 0x0 CODECOPY PUSH1 0x0 RETURN INVALID PUSH1 0x80 PUSH1 0x40 MSTORE CALLVALUE DUP1 ISZERO PUSH1 0xF JUMPI PUSH1 0x0 DUP1 REVERT JUMPDEST POP PUSH1 0x4 CALLDATASIZE LT PUSH1 0x28 JUMPI PUSH1 0x0 CALLDATALOAD PUSH1 0xE0 SHR DUP1 PUSH4 0x4F2BE91F EQ PUSH1 0x2D JUMPI JUMPDEST PUSH1 0x0 DUP1 REVERT JUMPDEST PUSH1 0x33 PUSH1 0x4F JUMP JUMPDEST PUSH1 0x40 MLOAD PUSH1 0x1 PUSH1 0x1 PUSH1 0x80 SHL SUB SWAP1 SWAP2 AND DUP2 MSTORE PUSH1 0x20 ADD PUSH1 0x40 MLOAD DUP1 SWAP2 SUB SWAP1 RETURN JUMPDEST PUSH1 0x0 DUP1 SLOAD PUSH1 0x65 SWAP1 PUSH1 0x1 PUSH1 0x1 PUSH1 0x80 SHL SUB AND PUSH1 0xA PUSH1 0x6A JUMP JUMPDEST SWAP1 POP SWAP1 JUMP JUMPDEST PUSH1 0x1 PUSH1 0x1 PUSH1 0x80 SHL SUB DUP2 DUP2 AND DUP4 DUP3 AND ADD SWAP1 DUP1 DUP3 GT ISZERO PUSH1 0x97 JUMPI PUSH4 0x4E487B71 PUSH1 0xE0 SHL PUSH1 0x0 MSTORE PUSH1 0x11 PUSH1 0x4 MSTORE PUSH1 0x24 PUSH1 0x0 REVERT JUMPDEST POP SWAP3 SWAP2 POP POP JUMP INVALID LOG2 PUSH5 0x6970667358 0x22 SLT KECCAK256 0xBB 0xA7 0x5C 0xDD SWAP3 BALANCE 0x2E 0x26 0x4B 0xB8 BASEFEE SWAP1 PUSH7 0xAD35C077831C11 0x1E 0xF 0xF6 DUP9 EXTCODEHASH 0xB2 PUSH27 0x2D39BF455864736F6C634300081300330000000000000000000000 "
				},
				"gasEstimates": {
					"creation": {
						"codeDepositCost": "42400",
						"executionCost": "22199",
						"totalCost": "64599"
					},
					"external": {
						"add()": "2427"
					}
				},
				"methodIdentifiers": {
					"add()": "4f2be91f"
				}
			},
			"storageLayout": {
				"storage": [
					{
						"astId": 57,
						"contract": "contracts/DataType.sol:Udvt",
						"label": "w",
						"offset": 0,
						"slot": "0",
						"type": "t_userDefinedValueType(Weight)48"
					},
					{
						"astId": 64,
						"contract": "contracts/DataType.sol:Udvt",
						"label": "p",
						"offset": 16,
						"slot": "0",
						"type": "t_userDefinedValueType(Price)50"
					}
				],
				"types": {
					"t_userDefinedValueType(Price)50": {
						"encoding": "inplace",
						"label": "Udvt.Price",
						"numberOfBytes": "16"
					},
					"t_userDefinedValueType(Weight)48": {
						"encoding": "inplace",
						"label": "Udvt.Weight",
						"numberOfBytes": "16"
					}
				}
			},
			"userdoc": {
				"kind": "user",
				"methods": {},
				"version": 1
			}
		}
	}
}